:0300000002185D86
:0C185D00787FE4F6D8FD7581740218A4B1
:0E137B00C18C010B00010900010800010A00ED
:100026001200037590D87B017A0079DC1218E9D2A8
:1000360007750A0A300303120D06300403121975F8
:10004600300529C2AFC205D2AF900001E0240AFFF5
:10005600900000E004FD900003E0240AFB900002FB
:10006600E004F560121B4E750B04D20CE50AD3941E
:10007600004002150AE50BB407004003020CFC9091
:10008600008CF82828730200A10200C002021602A2
:10009600038802010E020C7C020CE2300C0BC20C2F
:1000A6007B017A0079E01218E9200103020CFCD2E8
:1000B6000C750A0A750B01020CFC300C0C200203AD
:1000C600020CFCC20CC2028044E50A6003020CFC6E
:1000D600121AB54002804E7561017562007563EDB6
:1000E6007B017A007907121B7E9208200802803570
:1000F60078F17C007D017B017A0079ED7E007F043A
:100106001212FDD20C0208D9300C0EC20C7B017AF9
:100116000079071218E9020382E50A6003020CFC63
:10012600121AB54003020382756101756200756398
:10013600ED7B017A0079D4121B7E92082008030217
:020146000213A2
:10014800900000E0F552A3E0F553A3E0F554A3E0D6
:10015800F55575F004E552A42553F582E435F0F51C
:1001680083E58224F9F582E5833400F583E05407BA
:10017800FFBF0618E55425E025E04555FFA207E432
:10018800332409F582E43401F583EFF075F004E5D2
:1001980052A42553F582E435F0F583E58224F9F578
:1001A80082E5833400F583E0FF75F004E554A42567
:1001B80055F582E435F0F583E58224F9F582E58387
:1001C8003400F583EFF075F004E552A42553F58269
:1001D800E435F0F583E58224F9F582E5833400F50A
:1001E80083E4F078F17C007D017B017A0079D4FE0C
:1001F8007F041212FDB2077B017A0079DC1218E93C
:0B020800750B02E4F509D20C020CFC9F
:10021300020382300C0EC20C7B017A0079DC1218C7
:10022300E9750A0230020EC2027B017A00790712D5
:1002330018E9750A02E50A6003020CFC121AB540BC
:10024300030203827561017562007563ED7B017AB8
:100253000079F1121B7E9208200808D20C750B035B
:10026300020CFC7B017A0079DC1218E9E5091460C1
:10027300030203827560017561007562ED7B017A8B
:100283000079F1121A569000E5E0FF121BFC7E0084
:10029300C006C0079000E4E0FF121BFCEFFDD0E0B6
:1002A3002DFFD0E03400FEC006C0079000E6E0FF5B
:1002B300121BFCEFFDD0E02DFFD0E03400FEC006A2
:1002C300C0079000E7E0FF121BFCEFFDD0E02DFF1D
:1002D300D0E034004F60030203829000F6E0FF1287
:1002E3001BFC7E00C006C0079000F5E0FF121BFC5C
:1002F300EFFDD0E02DFFD0E03400FEC006C0079034
:1003030000F7E0FF121BFCEFFDD0E02DFFD0E0343F
:1003130000FEC006C0079000F8E0FF121BFCEFFDD3
:0B032300D0E02DFFD0E034004F7054FC
:10032E009000E8E0FFC4540FF552EF540FF55374EC
:10033E00ED2552F582E43400F583E0FFAE53A806B6
:10034E00088002C313D8FC30E012E4F5099000E8EF
:10035E00F07B017A0079DC1218E98018750B05E440
:10036E00F509780B7C017D017B017A0079DCFE7F3B
:04037E00041212FD56
:10038200750A02020CFC300C02C20C756001756128
:10039200007562ED7B017A0079F1121A56E50914B3
:1003A20070030204EA1470030208DC2402600302F0
:0203B2000C61DC
:1003B4009000E5E0FF121BFC7E00C006C007900021
:1003C400E4E0FF121BFCEFFDD0E02DFFD0E0340091
:1003D400FEC006C0079000E6E0FF121BFCEFFDD054
:1003E400E02DFFD0E03400FEC006C0079000E7E037
:1003F400FF121BFCEFFDD0E02DFFD0E03400FEEF38
:1004040064014E60030204E49000F6E0FF121BFC5A
:100414007E00C006C0079000F5E0FF121BFCEFFD54
:10042400D0E02DFFD0E03400FEC006C0079000F7F6
:10043400E0FF121BFCEFFDD0E02DFFD0E03400FE06
:10044400C006C0079000F8E0FF121BFCEFFDD0E0EF
:0C0454002DFFD0E034004F60030204E4F0
:10046000C209750901750B02D20CF552300903025D
:100470000CFCE4F55374E42552F582E43400F58372
:10048000E0FFAE53A806088002C313D8FC30E03F5B
:10049000E55225E025E02553FF121089780B7C01F9
:1004A0007D017E007F041212FD78077C007D017BB8
:1004B000017A01790B7E007F041212FDE49000E8BE
:1004C000F0E552C454F04553F0D202D20980090538
:1004D00053E553C39404409D0552E552C394044030
:0404E0008B020CFC83
:1004E400750B05020CFC9000E5E0FF121BFC7E007E
:1004F400C006C0079000E4E0FF121BFCEFFDD0E053
:100504002DFFD0E03400FEC006C0079000E6E0FFF7
:10051400121BFCEFFDD0E02DFFD0E03400FEC0063E
:10052400C0079000E7E0FF121BFCEFFDD0E02DFFB9
:10053400D0E03400FEEF64014E70549000F6E0FF0A
:10054400121BFC7E00C006C0079000F5E0FF121BE2
:10055400FCEFFDD0E02DFFD0E03400FEC006C00764
:100564009000F7E0FF121BFCEFFDD0E02DFFD0E080
:100574003400FEC006C0079000F8E0FF121BFCEF39
:10058400FDD0E02DFFD0E034004F70030208D99075
:1005940000E5E0FF121BFC7E00C006C0079000E4EB
:1005A400E0FF121BFCEFFDD0E02DFFD0E03400FE95
:1005B400C006C0079000E6E0FF121BFCEFFDD0E090
:1005C4002DFFD0E03400FEC006C0079000E7E0FF36
:1005D400121BFCEFFDD0E02DFFD0E03400FEEF64F1
:1005E400024E60030206E19000F6E0FF121BFC7E5F
:1005F40000C006C0079000F5E0FF121BFCEFFDD021
:10060400E02DFFD0E03400FEC006C0079000F7E004
:10061400FF121BFCEFFDD0E02DFFD0E03400FEC044
:1006240006C0079000F8E0FF121BFCEFFDD0E02DA0
:0B063400FFD0E034004F60030206E13D
:10063F00C209F554E4F55574E42554F582E4340009
:10064F00F583E0FFAE55A806088002C313D8FC302F
:10065F00E04E9000E8E0FDC4540F75F004A4FFEDE8
:10066F00540F7C002FFDEC35F0FCE55475F004A41D
:10067F007A002555FFEA35F0FEEF6D7002EE6C60E3
:10068F001F740B2554F582E43401F583E0FFAE555A
:10069F00A806088002C313D8FC30E004D2098008F2
:1006AF000555E5556404708F2009080554E5546419
:1006BF00047081200903020C6178E97C007D017BC5
:1006CF00017A0079ED7E007F041212FD7509020296
:0206DF000C59B4
:1006E1009000E5E0FF121BFC7E00C006C0079000F1
:1006F100E4E0FF121BFCEFFDD0E02DFFD0E0340061
:10070100FEC006C0079000E6E0FF121BFCEFFDD023
:10071100E02DFFD0E03400FEC006C0079000E7E006
:10072100FF121BFCEFFDD0E02DFFD0E03400FEEF07
:1007310064014E60030208D99000F6E0FF121BFC31
:100741007E00C006C0079000F5E0FF121BFCEFFD24
:10075100D0E02DFFD0E03400FEC006C0079000F7C6
:10076100E0FF121BFCEFFDD0E02DFFD0E03400FED6
:10077100C006C0079000F8E0FF121BFCEFFDD0E0BF
:100781002DFFD0E03400FEEF64014E60030208D972
:10079100F554C209F552740B2552F582E43401F582
:1007A10083E0FF74F52552F582E43400F583E05FC0
:1007B1006032E4F55374F52552F582E43400F58393
:1007C100E0FFAE53A806088002C313D8FC20E0075F
:1007D1000553E553B404DEE552C454F04553F554D2
:1007E100D20980070552E552B404AB200903020C7B
:1007F100619000E8E0FFC4540FF555EF540FF55632
:10080100E554C4540FF557E554540FF55875F004E9
:10081100E555A42556F582E435F0F583E58224F902
:10082100F582E5833400F583E05407FFBF0618E540
:100831005725E025E04558FFA207E4332409F58256
:10084100E43401F583EFF075F004E555A42556F580
:1008510082E435F0F583E58224F9F582E5833400FD
:10086100F583E0FF75F004E557A42558F582E435DA
:10087100F0F583E58224F9F582E5833400F583EF11
:10088100F075F004E555A42556F582E435F0F583BD
:10089100E58224F9F582E5833400F583E4F074F10F
:1008A1002555F582E43400F583E0FFAE56A80674C1
:1008B10001088002C333D8FCF45FF074F12557F5C9
:1008C10082E43400F583E0FFAE58A8067401088085
:0808D10002C333D8FC020B79CD
:1008D900020C597560017561007562ED7B017A0042
:1008E90079E9121A569000E5E0FF121BFC7E00C060
:1008F90006C0079000E4E0FF121BFCEFFDD0E02DDD
:10090900FFD0E03400FEC006C0079000E6E0FF1209
:100919001BFCEFFDD0E02DFFD0E03400FEC006C087
:10092900079000E7E0FF121BFCEFFDD0E02DFFD0A0
:10093900E034004F6003020BB79000F6E0FF121B92
:10094900FC7E00C006C0079000F5E0FF121BFCEF1B
:10095900FDD0E02DFFD0E03400FEC006C0079000B6
:10096900F7E0FF121BFCEFFDD0E02DFFD0E03400D3
:10097900FEC006C0079000F8E0FF121BFCEFFDD097
:10098900E02DFFD0E03400FEEF64014E6003020B5E
:01099900B7A6
:10099A00F554C209F55B740B255BF582E43401F565
:1009AA0083E0FF74F5255BF582E43400F583E05FAC
:1009BA006035E4F55C74F5255BF582E43400F58373
:1009CA00E0FFAE5CA806088002C313D8FC30E00D35
:1009DA00E55BC454F0455CF554D2098007055CE533
:1009EA005CB404D1200907055BE55BB404A82009BF
:1009FA0003020C619000E8E0FFC4540FF555EF5470
:100A0A000FF556E554C4540FF557E554540FF558ED
:100A1A00E4F55BE4F55C74E4255BF582E43400F507
:100A2A0083E0FFAE5CA806088002C313D8FC30E05E
:100A3A002EE55575F004A47C002556FDEC35F0FC36
:100A4A00E55B75F004A47A00255CFFEA35F0FEEF59
:100A5A006D7002EE6C6008855B59855C5A800705EB
:100A6A005CE55CB404B0055BE55BB404A675F00410
:100A7A00E555A42556F582E435F0F583E58224F997
:100A8A00F582E5833400F583E05407FFBF0618E5D5
:100A9A005725E025E04558FFA207E4332409F582EB
:100AAA00E43401F583EFF075F004E555A42556F515
:100ABA0082E435F0F583E58224F9F582E583340092
:100ACA00F583E0FF75F004E557A42558F582E4356F
:100ADA00F0F583E58224F9F582E5833400F583EFA6
:100AEA00F075F004E555A42556F582E435F0F58352
:100AFA00E58224F9F582E5833400F583E4F075F0A4
:100B0A0004E559A4255AF582E435F0F583E58224F3
:100B1A00F9F582E5833400F583E4F074F12555F59F
:100B2A0082E43400F583E0FFAE56A806740108801B
:100B3A0002C333D8FCF45FF074F12559F582E4342A
:100B4A0000F583E0FFAE5AA8067401088002C33399
:100B5A00D8FCF45FF074F12557F582E43400F5838C
:100B6A00E0FFAE58A8067401088002C333D8FC4FD0
:100B7A00F0B207E4F509750B02780B7C017D017B65
:100B8A00017A0079DCFE7F041212FD90000F74AA2C
:100B9A00F090000B7403F090000514F09000E8E068
:0D0BAA00900050F0A3E554F0D204020CFCC2
:100BB7009000E5E0FF121BFC7E00C006C007900016
:100BC700E4E0FF121BFCEFFDD0E02DFFD0E0340086
:100BD700FEC006C0079000E6E0FF121BFCEFFDD049
:100BE700E02DFFD0E03400FEC006C0079000E7E02C
:100BF700FF121BFCEFFDD0E02DFFD0E034004F705B
:100C0700579000F6E0FF121BFC7E00C006C007905D
:100C170000F5E0FF121BFCEFFDD0E02DFFD0E03424
:100C270000FEC006C0079000F7E0FF121BFCEFFDB7
:100C3700D0E02DFFD0E03400FEC006C0079000F8DA
:100C4700E0FF121BFCEFFDD0E02DFFD0E034004F9A
:100C57007006750B02020CFC8000750B05E4F509A4
:100C6700780B7C017D017B017A0079DCFE7F041221
:050C770012FD020CFC5F
:100C7C00300C0DC20C7B017A0079E01218E90508E2
:100C8C00E50A706CE508C394064046E4F508121AB0
:100C9C00B5502D7561017562007563ED7B017A00AD
:100CAC0079F1121B7E9208300816750B02E4F509D7
:100CBC007B017A0079DC1218E9D20C750A0A8030B3
:100CCC007B017A0079F11218E9750A32E4F5088093
:100CDC001F750B068015300C0BC20C7B017A00794A
:100CEC00DC1218E9E50A7008750B05750A0AD20CB6
:0A0CFC007F0A7E00121BD402003AAA
:0A1389004100D2004100D300C10D65
:1000030053890F438920D28E758DFF75985043878E
:0600130080D2ACD2AF2246
:101B11009000D2E004543FFEA3E06E602F9000D20B
:101B2100E02492F582E43400F583EFF09000D2EEE8
:101B3100F0200D18D20DA3E02492F582E43400F5D3
:0C1B410083E0F5999000D3E004543FF0DD
:011B4D002275
:1013930052010F3F065B4F666D7D077F6F777C3988
:0513A3005E79713D764A
:051C3C00121C41D2B4AE
:021C410000227F
:0F1C0D00D2B5D2B4121C41C2B5121C41C2B422CE
:0D1C1C00C2B4121C41C2B5121C3CD2B5224C
:091BAE00F582E43401F583E0FF47
:101BB700E4FEC2B4EF1392B5121C3CEFC313FF0E41
:0C1BC700BE08EFC2B4D2B5121C3CC2B480
:011BD30022EF
:09001900121C0D121BB7021C1C85
:101B4E00AC077F40120019121C0D7FC0121BB77418
:101B5E000F2C121BAE740F2D121BAE740F2B121BFB
:101B6E00AE740F2560121BAE121C1C7F8F02001963
:101BE900438901758CFC758A67C28DD28C308DFD55
:031BF900C28C2279
:101BD400E4FDFCC3ED9FEC9E500A121BE90DBD0011
:041BE400010C80EF81
:011BE80022DA
:101BFC00E4FE53070FEF60061452070E80F7AF0692
:011C0C0022B5
:041C4300000000009D
:061A56008B5D8A5E895FD2
:101A5C00E4FFAB60AA61A9628F8275830012133C0C
:101A6C00F4FEAB5DAA5EA95F8F8275830012133CF6
:101A7C005EFE74E42FF582E43400F583EEF08F8281
:101A8C0075830012133CF4FEAB60AA61A9628F82CD
:101A9C0075830012133C5EFE74F52FF582E434005E
:081AAC00F583EEF00FBF04AA60
:011AB400220F
:101AB500755D03AF5D155DEF60501219E778217C08
:101AC500017D017E007F041212FD7F057E00121B41
:101AD500D41219E778257C017D017E007F0412125E
:101AE500FD7561017562017563257B017A017921B7
:101AF500121B7E50BE78ED7C007D017B017A017959
:0B1B0500217E007F041212FDD322C3DA
:011B100022B2
:1019E70078297C017D017BFF7A1C79437E007F0487
:1019F7001212FDD297C296121C41D296121C34C203
:101A070097E4F55EE4F55FA294E433FF53070174AE
:101A170029255FF582E43401F583E0FEEF70047F4A
:101A27000180027F00AD5EA805EF088002C333D8AE
:101A3700FC4EF0121C34055FE55FC3940440C805F3
:0E1A47005EE55EC3940440BC7B017A01792900
:011A5500226E
:1018E900121323F55E90000112133CF55F9000027C
:1018F90012133CF56090000312133CF561C2931278
:0E1909001C2CD2937F017E00121BD4E4F55DEE
:10191700C37403955DF562FFF8E561088002C313A0
:10192700D8FC121C29AF62A807E560088002C31320
:10193700D8FC121C29AF62A807E55F088002C31311
:10194700D8FC139290121C2CAF62A807E55E0880A2
:0B19570002C313D8FC139290121C2C4A
:10196200055DE55DC3940440ACC292D292121C4163
:02197200C2921F
:011974002250
:031C290013929083
:081C2C00D291121C41C2912269
:081C3400D295121C41C2952259
:1013A8004400ED1F1B041F4400F1FFFFFFFF440032
:1013B800D8000000004400E4000000004400F500EC
:1013C80000000044010B000000004400E900000098
:1013D800004400D4000000004400DC000000004489
:1013E80000E0FFFFFFFFC108C187C1864201090075
:1013F800005000F90000000000000000000000009C
:08140800000000004100E800B3
:061B7E008B5E8A5F8960A6
:101B8400E4FFAB61AA62A9638F8275830012133CE0
:101B9400FEAB5EAA5FA9608F8275830012133C6E50
:091BA4006002C3220FBF04DAD372
:011BAD002215
:10141000C102C101C100C10541000C0041009000A2
:1014200044000000000000010C0044000700000020
:0814300000010D00C103C1041D
:030023000214794B
:10147900C0E0C083C082C0D075D000C007209803E7
:0314890002152722
:10148C00859974C298E50D14602314603314605070
:10149C0014607A24046003021551E57464AA600395
:1014AC0002155190000DF0750D01021551900006BA
:1014BC00E574F090000DE06574F0750D02021551A5
:1014CC00900004E574F0900091E4F090000DE0655C
:1014DC0074F0900004E0D39400402D750D038065EA
:1014EC00900091E0FF04F074102FF582E43400F5C5
:1014FC0083E574F090000DE06574F0900004E0FF5B
:10150C00900091E0C39F403D750D04803890000D14
:0B151C00E0B57402D203750D00802AB8
:10152700309927C2999000D2E0FF9000D3E06F6016
:1015370017E02492F582E43400F583E0F5999000F2
:10154700D3E004543FF08002C20DD007D0D0D08240
:05155700D083D0E0325A
:100D0600200303020EDAC203900006E024FE601000
:100D1600147003020DE524026003020EDAD20122EA
:0F0D2600E4F55D900004E014FFE55DC39F5041CC
:100D35007410255DF582E43400F583E0F55E74F901
:100D4500255DF582E43400F583E55EF05407FFBFC9
:020D5500061B7B
:100D5700E55E30E603D38001C3920AA20AE4332496
:0B0D670009F582E43401F583E55DF03E
:100D7200055D80B37410255DF582E43400F583E0EF
:100D820024FF920678077C007D017B017A0079DCE2
:100D92007E007F041212FDE4F55DE4FF75F004E5C8
:100DA2005DA42FF582E435F0F583E58224F9F5821E
:100DB200E5833400F583E05407601A7407255DF576
:100DC20082E43400F583E0FEA8077401088002C3C0
:100DD20033D8FC4EF00FBF04C3055DE55DB404BA21
:100DE200D2022278077C007D017B017A0079DC7EC9
:100DF200007F041212FDE4F55D900004E0FFE55D62
:100E0200C39F501E7410255DF582E43400F583E023
:100E1200FF7400255DF582E43400F583EFF0055D93
:100E220080D7900000E02407F582E43400F583C007
:100E320083C082E0FF900001E0FEF87401088002A6
:100E4200C333D8FC4FD082D083F0900002E0240755
:100E5200F582E43400F583C083C082E0FF90000392
:100E6200E0FEF87401088002C333D8FC4FD082D070
:100E720083F078D47C007D017B017A0079F17E00D9
:100E82007F041212FD900000E024D4F582E43400C5
:100E9200F583C083C082E0FF900001E0FEF8740198
:100EA200088002C333D8FCF45FD082D083F0900074
:100EB20002E024D4F582E43400F583C083C082E0EA
:100EC200FF900003E0FEF87401088002C333D8FCEF
:080ED2004FD082D083F0D2055D
:010EDA0022F5
:1019750030046EC204E490000EF0A3E0FF121B11C8
:1019850090000BE0FF121B11900005E0FF121B11E8
:1019950090000EE0FF90000BE0FEEF6E90000EF061
:1019A500E0FF900005E0FEEF6E90000EF0E4F55DBF
:1019B500900005E0FFE55DC39F501E7450255DF561
:1019C50082E43400F583E0F55E90000EE0655EF09C
:1019D500AF5E121B11055D80D790000EE0FF121B54
:0119E50011F0
:0119E60022DE
:101438000842FFFFFF0000010101083AFF0001FF19
:1014480001FF0001044EFF010000044A0000FF01F3
:101458000436FFFF0101042AFF01FF01082EFEFEEA
:10146800FFFF010102020822FF01FE02FE02FF0146
:021089008F5D79
:10108B0078647C007D007B017A0079DC7E007F0434
:10109B001212FD78687C007D007B017A0079DC7E82
:1010AB00007F041212FD74F9255DF582E43400F51E
:1010BB0083E0F561A207E4332409F582E43401F5FA
:1010CB0083E0F563E5615407FF7004FB021228E52A
:1010DB006130E603D38001C3920AA20A300701B341
:1010EB004008A20A300601B350057B00021228EF1C
:1010FB0024FD601A14601C14601B146028240470F7
:10110B002F7B007A007964AF5D12171A80221215BB
:10111B005C801D800312155C7B007A007964AF5DE7
:10112B0012163F800B7B007A007964AF5D1217C2F9
:10113B00E4F55EE4F55F7464255EF8E6FD7C007E05
:10114B00007401A85F088005C333CE33CED8F9FFF6
:10115B00EE5CFEEF5D4E700302120EE55E25E025A0
:10116B00E0455FF56024F9F582E43400F583E0F5A2
:10117B006274F92560F582E43400F583E561F0745F
:10118B00F9255DF582E43400F583E4F0E56154075D
:10119B00FFBF0610A207E4332409F582E43401F5FE
:1011AB0083E560F0A207E4332409F582E43401F50A
:1011BB0083E0FFA207B3920B120EDB401A74682573
:1011CB005EF8C000E6FFAE5FA8067401088002C39C
:1011DB0033D8FC4FD000F674F9255DF582E434006A
:1011EB00F583E561F074F92560F582E43400F5834D
:1011FB00E562F0A207E4332409F582E43401F583B8
:10120B00E563F0055FE55FC39404500302114105EC
:10121B005EE55EC39404500302113E7B007A0079B5
:01122B00685A
:01122C00229F
:0617C2008B6C8A6D896E3C
:1017C80074F92FF582E43400F583E05440F56FEFA7
:1017D8001313543FF570EF5403F571E4FF74422F6F
:1017E800F8E62570FE743A2FF8E62571FDC3EE641D
:1017F8008094804059EE648094845052C3ED648094
:101808009480404AED648094845043EE25E025E0BE
:101818002D24F9F582E43400F583E0FC54076007D1
:10182800EC5440656F6027AB6CEEF5823395E0F5BC
:1018380083E56E2582F9E56D3583FA121323FEA838
:10184800057401088002C333D8FC4E1213690FEFE8
:041858006408708927
:01185C002269
:06163F008B6C8A6D896EC0
:1016450074F92FF582E43400F583E05440F56FEF2B
:101655001313543FF572EF5403F573E4FF8572716C
:10166500AE73744E2FF8E62571F571744A2FF8E6BE
:101675002EFEC3E571648094805003021710E57156
:10168500648094844003021710C3EE648094804004
:101695007AEE64809484507375F004E571A42EF598
:1016A50082E435F0F583E58224F9F582E58334009B
:1016B500F583E0F57054077026AB6CAD71ED33958D
:1016C500E0FCE56E2DF9E56D3CFA121323FDA80645
:1016D5007401088002C333D8FC4D1213698083E579
:1016E500705440656F6024AB6CAD71ED3395E0FCD3
:1016F500E56E2DF9E56D3CFA121323FDA80674017C
:10170500088002C333D8FC4D1213690FEF640460DF
:041715000302166253
:0117190022AD
:08155C007B007A007964AF5DA9
:061564008B6C8A6D896E9C
:10156A0074F92FF582E43400F583E05440F56FEF07
:10157A001313543FF572EF5403F573E4FF85727148
:10158A00AE7374362FF8E62571F571742A2FF8E6D2
:10159A002EFEC3E571648094805003021635E5710E
:1015AA00648094844003021635C3EE6480948040BC
:1015BA007AEE64809484507375F004E571A42EF574
:1015CA0082E435F0F583E58224F9F582E583340077
:1015DA00F583E0F57054077026AB6CAD71ED339569
:1015EA00E0FCE56E2DF9E56D3CFA121323FDA80621
:1015FA007401088002C333D8FC4D1213698083E555
:10160A00705440656F6024AB6CAD71ED3395E0FCAE
:10161A00E56E2DF9E56D3CFA121323FDA806740157
:10162A00088002C333D8FC4D1213690FEF640460BB
:04163A00030215870B
:01163E002289
:06171A008B6C8A6D896EE4
:1017200074F92FF582E43400F583E05440F56FEF4F
:101730001313543FF570EF5403F571E4FF742E2F2B
:10174000F8E62570FE74222FF8E62571FDC3EE64DD
:101750008094804063EE64809484505CC3ED648028
:1017600094804054ED64809484504D75F004EEA450
:101770002DF582E435F0F583E58224F9F582E583E1
:101780003400F583E0FC54076007EC5440656F605B
:1017900027AB6CEEF5823395E0F583E56E2582F993
:1017A000E56D3583FA121323FEA805740108800243
:1017B000C333D8FC4E1213690FEF6408600302179D
:0117C0003DEB
:0117C1002205
:100EDB00EF1313543FF56CEF5403F56DE4FF742ED1
:100EEB002FF8E6256CFD74222FF8E6256DFEC3ED79
:100EFB00648094804041ED64809484503AC3EE64E6
:100F0B008094804032EE64809484502BED25E02554
:100F1B00E04EF924F9F582E43400F583E0FC540744
:100F2B00FBBB0213EC30E6047B0180027B00A20BBF
:100F3B00E433B50302D3220FEF640870A1E4FFADD5
:100F4B006CAE6D744E2FF8E62DFD744A2FF8E62E1D
:100F5B00FEC3ED64809480404DED648094845046D4
:100F6B00C3EE64809480403EEE648094845037EDF1
:100F7B0025E025E04EF924F9F582E43400F583E011
:100F8B00FC540760BEEC30E6047B0180027B00A2C0
:100F9B000BE433B50310EC5407F56E64046005E500
:100FAB006EB40502D3220FEF64047093E4FFAD6CB3
:100FBB00AE6D74362FF8E62DFD742A2FF8E62EFE53
:100FCB00C3ED64809480404DED648094845046C39F
:100FDB00EE64809480403EEE648094845037ED251F
:100FEB00E025E04EF924F9F582E43400F583E0FCCA
:100FFB00540760BEEC30E6047B0180027B00A20B41
:10100B00E433B50310EC5407F56E64036005E56E2D
:10101B00B40502D3220FEF64047093E4FF74422FE4
:10102B00F8E6256CFD743A2FF8E6256DFEC3ED64EA
:10103B008094804041ED64809484503AC3EE648088
:10104B0094804032EE64809484502BED25E025E0B3
:10105B004EF924F9F582E43400F583E0FC5407FBE8
:10106B00BB0613EC30E6047B0180027B00A20BE491
:0D107B0033B50302D3220FEF640870A1C348
:011088002245
:10186900020026E493A3F8E493A34003F68001F26F
:1018790008DFF48029E493A3F85407240CC8C33380
:10188900C4540F4420C8834004F456800146F6DF4F
:10189900E4800B010204081020408090137BE47E51
:1018A900019360BCA3FF543F30E509541FFEE49344
:1018B900A360010ECF54C025E060A840B8E493A30B
:1018C900FAE493A3F8E493A3C8C582C8CAC583CA36
:1018D900F0A3C8C582C8CAC583CADFE9DEE780BEEE
:011478000073
:10122D00E709F608DFFA8046E709F208DFFA803EA3
:10123D0088828C83E709F0A3DFFA8032E309F60890
:10124D00DFFA8078E309F208DFFA807088828C83F8
:10125D00E309F0A3DFFA806489828A83E0A3F608AC
:10126D00DFFA805889828A83E0A3F208DFFA804C86
:10127D0080D280FA80C680D4806980F2803380105D
:10128D0080A680EA809A80A880DA80E280CA8033C6
:10129D0089828A83ECFAE493A3C8C582C8CCC5833E
:1012AD00CCF0A3C8C582C8CCC583CCDFE9DEE7800E
:1012BD000D89828A83E493A3F608DFF9ECFAA9F08D
:1012CD00EDFB2289828A83ECFAE0A3C8C582C8CCE3
:1012DD00C583CCF0A3C8C582C8CCC583CCDFEADEFC
:1012ED00E880DB89828A83E493A3F208DFF980CC5E
:1012FD0088F0EF60010E4E60C388F0ED2402B40457
:10130D000050B9F582EB2402B4040050AF232345FD
:06131D00822390127D7393
:10132300BB010689828A83E0225002E722BBFE02C8
:09133300E32289828A83E49322FB
:10133C00BB010CE58229F582E5833AF583E0225066
:10134C0006E92582F8E622BBFE06E92582F8E222B0
:0D135C00E58229F582E5833AF583E49322CA
:10136900BB010689828A83F0225002F722BBFE0163
:02137900F3225D
:00000001FF
