:0300000002136A7E
:0C136A00787FE4F6D8FD75817D0213B198
:0E16CF00C18D0115000113000112000114006D
:10117300FBEF4B2416F582740035F0F5832274538C
:101183002522AE23F8E6FFA8060822FF2416F582DF
:1011930074003EF583E022752E00752F0075305CD8
:1011A3007B007A00796422AE26E6FFA80674010864
:1011B30022FDA20BE4332474F822E55B13131354CA
:1011C3001F22E52233333354F845232275F008A454
:1011D300FFAEF0EF2275F008A4FFEF2278647C00E5
:1011E300020CCDE6FFE52A5407FEF8740108222518
:1011F30029F8E6FFAE2AA8060822E52A131313549A
:101203001F2422F8227B017A00795A22753F007548
:10121300400075415C22E52333333354F8452422DF
:0A122300E52933333354F8452A223D
:1000260012190C7590D81206F6D20B75140A300305
:1000360003120D4B30040312171B300529C2AFC241
:1000460005D2AF900057E0240AFF900056E004FD69
:10005600900059E0240AFB900058E004F52E12188F
:1000660020751504D20DE514D3940040021514E54D
:1000760015B408004003020690900086F8282873FD
:1000860002009E0200C10201AA02022D0201030221
:1000960005BC02062C02067E300D0F752E017B0272
:1000A6007D027F01121820120733200103020690F9
:1000B600D20D75140A751501020690300D24752EA1
:1000C600027B037D037F02121820200203020690A2
:1000D600C20DC2027D001212087E007F081211DFD7
:1000E6008020E51460030206901217634002802701
:1000F6001206BC200C02801FD20D02043B300D0BF1
:10010600C20D12120812090B020227E5146003023F
:100116000690121763400302022712120F7B017A20
:0B012600007900121886920C300C7655
:10013100900056E0F522A3E0F523A3E0F524A3E027
:10014100F525E5221211CF452312118E5407FDBD6D
:10015100060EE52433333354F845251211B4A605B0
:1001610074162F121191FDE52475F008A4FFE52501
:10017100121173EDF0E5221211D84523121176E424
:10018100F0FD7B017A007900FE7F081211DFB20BCE
:100191001206F6121480500302058F751502E4F55C
:0601A10013D20D020690CE
:1001A700020227300D12752E037B047D047F031294
:1001B70018201206B075140230020BC20212120880
:1001C70012090B751402E5146003020690121763F7
:1001D70040030202271206BC200C08D20D75150336
:1001E70002069012071FE51314703512119A1206B2
:0A01F700A3EF702CFB12069A70268D
:100201001211BDF522E55B5407F523745C121183CD
:100211008002C313D8FC30E00AE4F513F55B120742
:060221001F800312073FDD
:10022700751402020690300D02C20D12119A1218AF
:1002370053E5131470030202CF14700302043E2423
:100247000260030205B6752E017B017D017F011255
:0F0257001820120700EF6401706812070A706325
:10026600C206751301751502D20DF522300603027A
:100276000690E4F5231211818002C313D8FC30E006
:100286002D1211C5FF7B007A007976C207120AA1EA
:10029600785A7C007D017B007A0079767E007F08A3
:1002A600120CCD1211C5F55BD202D20680090523C8
:1002B600E523C3940840BE0522E522C3940840AC5A
:0302C6000206909D
:1002C900751506020690120700BF010A7B00120687
:1002D9009A700302043B1207146402706B12070A36
:0202E90070663D
:1002EB00C206F522E4F5231211818002C313D8FC58
:1002FB0030E0221211BDFFE55B54074FFF1211C511
:10030B006F601274761211838002C313D8FC30E035
:10031B0004D20680070523E523B408CB2006080585
:10032B0022E522640870BD2006030205B6780E7C18
:10033B00007D017B007A00795C7E007F08120CCD7A
:06034B007513020205AE6D
:100351001207146401600302043B1207296401605F
:040361000302043B54
:10036500F522C206F52374762523F8E6FF746C257D
:1003750023F8E65F6025E4F524746C2523AE24128A
:1003850011878002C313D8FC20E0070524E524B4B7
:1003950008E7121219F522D20680070523E523B4D2
:1003A50008C42006030205B61211BDF525E55B5408
:1003B50007F526E522131313541FF527E5225407E5
:1003C500F528E5251211CF452612118E5407FDBDDE
:1003D500060EE52733333354F845281211B4A60524
:1003E50074162F121191FDE52775F008A4FFE52875
:1003F500121173EDF0E5251211D84526121176E498
:10040500F074642525F8C0001211AA8002C333D800
:10041500FCF45FD000F674642527F8C000AE2812FE
:1004250011AC8002C333D8FC4FD0001206D1400373
:0604350002069002058F93
:10043B000205AE752E00752F0075305C7B017A00BE
:10044B00790E1206A3EF60030205971207296401C8
:05045B0060030205979B
:10046000C206F52974762529F8E6FF746C2529F86B
:10047000E65F6024E4F52A746C1211F28002C31363
:10048000D8FC30E009121223F522D2068007052A93
:10049000E52AB408E22006070529E529B408C520A5
:1004A00006030205B61211BDF523E55B5407F524DA
:1004B000E522131313541FF525E5225407F526E40E
:1004C000F529E4F52A74531211F28002C313D8FC03
:1004D00030E012121219FF1212236F6008852927CB
:1004E000852A288007052AE52AB408D90529E5299F
:1004F000B408CFE5231211CF452412118E5407FD05
:10050000BD060EE52533333354F845261211B4A643
:100510000574162F121191FDE52575F008A4FFE56D
:1005200026121173EDF0E5231211D845241211762D
:10053000E4F0E5271211D84528121176E4F074642E
:100540002523F8C000E6FFAE24A806740108800247
:10055000C333D8FCF45FD000F674642527F8C000DC
:10056000E6FFAE28A8067401088002C333D8FCF465
:100570005FD000F674642525F8C0001211AA80022D
:10058000C333D8FC4FD0001206D140030206907549
:070590001505D20D020690D3
:100597007B007A00795312160AEF7011FB7A007903
:1005A7006C12160AEF70067515020206908000128B
:0B05B700073F020690200D0302069093
:1005C200C20D1211B5E6F52AE51864017021F52273
:1005D200F523F524F525F526F527F528F529121139
:1005E200FDC0001211E68002C333D8FC4F802CE517
:1005F20018702B7522FF7523FF7524FF7525FF7573
:1006020026FF7527FF7528FF7529FF1211FDC0000F
:100612001211E68002C333D8FCF45FD000F67B00EF
:070622007A00792212090B96
:10062900020690300D051207330512E5147058E5DE
:1006390012C39406403AE4F51212176350241212B9
:100649000F1211A3121886920C300C16751502E4BC
:10065900F5137BFF7A19797E12090BD20D75140AED
:1006690080251211A312090B751432E4F5128017B3
:10067900751507800D300D031206B0E51470087565
:10068900150675140AD20D7F0A7E0012192202007E
:10069900347A00796C12160AEF221218537B007A09
:1006A90000795312160A22C20D7BFF7A19797E123C
:1006B900090B22753F0075400075415C7B007A008B
:1006C9007964121886920C22F6B20BE4F5137515AB
:1006D9000212195C750EAA750B037509029000A325
:1006E900E55BF0A3E522F0D204121480227BFF7AA5
:1006F90019797E12090B227B007A00795312160AA6
:1007090022FB7A00796C12160AEF227B007A0079B3
:100719005312160AEF227BFF7A19797E12090B22EE
:10072900FB7A00796C12160AEF22C20D7BFF7A1947
:10073900798612090B22751506E4F51312195C2244
:0816DD00011600011700C10E07
:10190C0053890F438920D28E758DFF75985043876C
:06191C0080D2ACD2AF2224
:1017EA00E516045407FE6517602BAD1674A82DF58F
:1017FA0082E43400F583EFF08E16200E18D20EAF75
:10180A001774A82FF582E43400F583E0F599E517FB
:05181A00045407F5175E
:01181F0022A6
:10194A003F065B4F666D7D077F6F777C395E7971E5
:02195A003D76D8
:0B199A00D2B5D2B400C2B500C2B42226
:0C198E00C2B400C2B500D2B400D2B52231
:10000300E4FEC2B4EF1392B500D2B400EFC313FF02
:0E0013000EBE08EEC2B4D2B500D2B400C2B424
:0100210022BC
:0919A50012199A12000302198EB6
:10182000AC077F401219A512199A7FC0120003EC71
:1018300090194A93FF120003ED93FF120003EB93FC
:10184000FF120003E52E93FF12000312198E7F8F03
:031850000219A5D5
:10196E000001010201020203010202030203030449
:1018E6002D2FFF120D0CFE54F0C4540F90196E9359
:1018F600FDEE540F932D2FFF22120D0C54F0C454FD
:061906000F90196E932200
:10193700438901758CFC758A67C28DD28C308DFD09
:03194700C28C222D
:10192200E4FDFCC3ED9FEC9E500A1219370DBD0079
:04193200010C80EF35
:01193600228E
:10160A00900001120D0CFF121902FEEF540F932ED7
:10161A00FF120CF3FE121902FDEE540F9390000212
:10162A001218E6900003120D0CFE121902FDEE5478
:10163A000F939000041218E69000051218E9900022
:10164A00061218FFFE900006120D0C1219052E2F15
:10165A00FF9000071218FFFE900007120D0C1219D6
:05166A00052E2FFF22F8
:10166F00A294E433F541534101E5402404FFE433F0
:10167F00FEAB3CE53E2FF9E53D3EFA120CF3FF229F
:10168F00AB2EAA2FA9308F82758300020D0CA29466
:10169F00E433F541534101AB3CE53E2540F9E435D8
:1016AF003DFA120CF3FF227403C3952BF534FFF8A8
:1016BF0022053FE53FC39404227B007A00792B2259
:061853008B2B8A2C892D6D
:10185900E4FF12168FF4FEAB2BAA2CA92D121695B4
:101869005EFE74532FF8A606121695F4FE12168F13
:0C1879005EFE746C2FF8A6060FBF08D6A8
:011885002240
:10176300753B03AF3B153BEF60391216C8120FC52B
:101773007F057E001219227B007A007933120FC590
:10178300753F007540007541331216C81218865014
:10179300D2785C7C007D001216C87E007F08120C94
:0417A300CDD322C3BD
:0117A700221F
:060FC5008B3C8A3D893ED1
:100FCB00A801AC02AD037BFF7A19797E7E007F0806
:100FDB00120CCDD297C29600D2961219B4C297E4D6
:100FEB00F53FE4F54012169DE54170047E01800249
:100FFB007E00AD3FA805EE088002C333D8FC12106B
:10100B009540E21216C040DAE4F53FE4F5401216C3
:10101B009DE53F2404FEE54170047D0180027D00C7
:10102B00A806ED088002C333D8FC12109540DF12DE
:10103B0016C040D7E4F53FE4F54012166FE53F24A8
:10104B0004FEE54170047D0180027D00A806ED08D9
:10105B008002C333D8FC1210A440DF1216C040D755
:10106B00E4F53FE4F54012166FE54170047E018014
:10107B00027E00AD3FA805EE088002C333D8FC12F8
:09108B0010A440E21216C040DA84
:10109400224F120D391219B40540E540C3940422BD
:0F10A4004F120D391219B40540E540C3940422D0
:10090B00120CF3F52C900001120D0CF52D9000023A
:10091B00120D0CF52E900003120D0CF52F90000408
:10092B00120D0CF530900005120D0CF531900006F0
:10093B00120D0CF532900007120D0CF533C2931209
:0E094B0019AED2937F017E00121922E4F52B23
:100959001216B6E533088002C313D8FC120A43E520
:1009690032088002C313D8FC120A43E53108800219
:10097900C313D8FC120A4EE530088002C313D8FC11
:08098900120A6F40CBE4F52BCC
:1009910074071216B8E533088002C313D8FC120A93
:1009A1004EE532088002C313D8FC120A59E531081A
:1009B1008002C313D8FC120A59E530088002C31320
:0209C100D8FC60
:0809C300120A6F40C9E4F52B94
:1009CB00C374071216B9E52F088002C313D8FC12A3
:1009DB000A64E52E088002C313D8FC120A64E52DC5
:1009EB00088002C313D8FC120A7DE52C088002C3D1
:0309FB0013D8FC12
:0809FE00120A8840C8E4F52B41
:100A06001216B6E52F088002C313D8FC120A7DE53C
:100A16002E088002C313D8FC120A96E52D08800220
:100A2600C313D8FC120A96E52C088002C313D8FC1F
:0C0A3600120A8840CBC292D29200C292F9
:100A4200221392901219AEAF34A807221392901279
:100A520019AEAF34A807221392901219AEAF34A880
:100A620007221392901219AEAF34A8072213929064
:100A72001219AE052BE52BC394042213929012197E
:100A8200AEAF34A807221392901219AE052BE52BB4
:0F0A9200C39404221392901219AEAF34A8072216
:0619AE00D29100C291225B
:0619B400D29500C295224D
:10197E000000000000000000FFFFFFFFFFFFFFFF61
:1016E500C10CC18BC18A0274000044000A000000CD
:0916F500004200080000015B0046
:10195C00E4F576F577F578F579F57AF57BF57CF5A0
:02196C007D22DA
:061886008B3C8A3D893E07
:10188C00E4FFAB3FAA40A9418F82758300120D0C77
:10189C00FEAB3CAA3DA93E8F82758300120D0C6EE7
:0918AC006002C3220FBF08DAD369
:0118B5002210
:1016FE00C102C101C100C105440056000000000135
:09170E000F00011100C103C10428
:1017A800E490005AF0A3F0A3F0A3F0A3F0A3F0A3F1
:1017B800F0A3F0227462252BF582E43400F583222D
:1017C800E0900057FFE0FEF874010822E0245AF583
:1017D80082E43400F58322E02400F582E43400F545
:0217E80083225A
:0300230002122D99
:10122D00C0E0C083C082C0D075D000C00730986DBB
:10123D00859952C298E51114601A14602314603612
:10124D0014604E2404707BE55264AA7075F50C751C
:10125D001101806E85520AE552620C751102806291
:10126D00855208751000E552620CE508D3940040D4
:10127D001B751103804CAF10051074622F1217C02F
:10128D00E552F0620CE510C39508403675110480E7
:0D129D0031E552B50C02D203751100802519
:1012AA00309922C299E51765166018AF1774A82FEE
:1012BA00F582E43400F583E0F599E517045407F55F
:1012CA00178002C20ED007D0D0D082D083D0E032AD
:100D4B00200303020E8FC203E50A24FE6010147009
:100D5B0003020DEE24026003020E8FD20122E4F592
:010D6B002B5C
:100D6C001217BCE0F52C7416252BF582E43400F533
:0A0D7C0083E52CF05407FFBF0614B6
:100D8600E52C30E603D38001C39207A207E433249F
:040D960074F8A62B1C
:100D9A00052BE52BB440CB1217BCE024FF920A12B4
:100DAA0017A8F52BE4FDE52B75F008A4FFEDFBEF82
:100DBA004B2416F582740035F0F583E0540760166B
:100DCA00745A252B1217D7E0FFA805740108800270
:100DDA00C333D8FC4FF00DBD08CC052BE52BB40866
:100DEA00C3D202221217A8F52B1217BCE0FF7456C1
:100DFA00252BF582E43400F583EFF0052BE52BB4BF
:100E0A0004E79000561217D4C083C0821217C88014
:100E1A0002C333D8FC4FD082D083F0900058121707
:100E2A00D4C083C082E09000591217CC8002C33329
:100E3A00D8FC4FD082D083F078007C007D017B0003
:100E4A007A0079647E007F08120CCD900056121742
:100E5A00DFC083C0821217C88002C333D8FCF45F94
:100E6A00D082D083F09000581217DFC083C082E08E
:100E7A00FF9000591217CD8002C333D8FC4FD0829D
:050E8A00D083F0D20549
:010E8F002240
:10171B00300444C204E4F50DAF0E1217EAAF0B12FE
:10172B0017EAAF091217EAE50B620DE509620DE442
:10173B00F52BE52BC39509501974A3252BF582E4E2
:10174B003400F583E0F52C620DAF2C1217EA052B54
:07175B0080E0AF0D1217EA58
:011762002264
:1018B600FFFFFF0000010101FF0001FF01FF000122
:1018C600FF0100000000FF01FFFF0101FF01FF0112
:1018D600FEFEFFFF01010202FF01FE02FE02FF0102
:03171700011800B6
:1010B300E933333354F84CF5492416F582E434000C
:1010C300F583E022AB46AD4BED3395E0FCE5482DCF
:1010D300F9E5473CFA120CF3FDA806740108227BDC
:1010E300007A00793EAF3422AB47E549254DF9E458
:1010F3003548FA020CF32546F9EF932547FCC3E97B
:101103006480948022A20BE4332474F8227416259D
:101113003AF582E43400F5832245F0FEEB4F2416C2
:10112300F58274003EF583E0FD5407FF22EF1313AD
:1011330013541F22AB46AD4BED3395E0FCE5482D30
:10114300F9E54722AF48EF3395E0254675F008A44B
:10115300FFE54722FDC3EE64809480223583FA12B3
:101163000CF3FEA80574010822C3EC64809480226A
:080AA1008F348B358A3689374A
:100AA900E4F53EF53FF540F541F542F543F544F5EA
:100AB90045A801AC02AD037BFF7A19797EFE7F0858
:100AC900120CCD741625341210BEF53B121108E62E
:100AD900F53DE53B5407FF7003020BFCE53B30E6AF
:100AE90003D38001C39208A208300B01B35003025B
:100AF9000BFC20070BA208300A01B35003020BFCC0
:100B0900EF24FE601814601D146022146021146023
:100B19002C2405702E1210E2120E9080261210E27B
:100B2900121589801E1210E21212DA80168006123E
:100B390010E21212DA1210E21213F680061210E213
:100B4900121508E4F538E4F539743E2538F8E6FD60
:100B59007C007E007401A839088005C333CE33CEEA
:100B6900D8F9FFEE5CFEEF5D4E6070E53833333344
:100B790054F84539F53A1210BCF53C121110E53B11
:100B8900F074162534121114E4F0E53B5407FFBF45
:100B99000605121108A63A121108E6FFA20BB39234
:100BA900091207494020AB35E5372538F9E43536D0
:100BB900FA120CF3FFAE39A8067401088002C33398
:100BC900D8FC4F120D3974162534121114E53BF077
:100BD900121110E53CF0121108A63D0539E539C39B
:100BE90094085003020B520538E538C394085003A2
:030BF900020B4F9D
:010BFC0022D6
:080E90008F468B478A4889490F
:100E9800E546131313541FFFE5465407F54B741624
:100EA80025461210BE5440F54A30E60875500175C3
:100EB8004F0180067550FF754F06E55033333354A4
:100EC800F8F551E5502FF54DC39408506CE54DC326
:100ED80094004065E5462551F54C1210BC54077046
:100EE800581210EBFEAD4BA8057401088002C333FD
:100EF800D8FC4E120D39E551254CF54CEF654F7075
:100F0800387416254C1210BE5407702DAF50EF33AD
:100F180095E0FEE54D2FFFE43EFEAB47E5492FF98E
:100F2800E5483EFA120CF3FFAE4BA80674010880A0
:100F380002C333D8FC4F120D39E54BD39400403A25
:100F4800E54D94004034E54D9408502EE546255172
:100F580014F54C1210BCF54E5407601EE54E544073
:100F6800654A60161210EBFFE54B14FEF874010891
:100F78008002C333D8FC4F120D39E54BC394075098
:100F88003BE54DC394004034E54D9408502EE546AA
:100F9800255104F54C1210BCF54E5407601EE54E61
:100FA8005440654A60161210EBFFE54B04FEF874D6
:0C0FB80001088002C333D8FC4F120D3931
:010FC400220A
:061508008B468A4789486A
:10150E0074162F1210BE5440F549121130F54AEFE1
:10151E005407F54BE4FFEF9018B693254AFEEF9073
:10152E0018BE93254B121157404AEE648094885092
:10153E0043C3ED64809480403BED648094885034C6
:10154E00EE33333354F82D1210BCFC54076007EC05
:10155E0054406549601EAB46EEF5823395E0F58347
:10156E00E5482582F9E54712115F8002C333D8FCA6
:0A157E004E120D390FEF6408709C47
:011588002240
:0613F6008B468A4789487E
:1013FC0074162F1210BE5440F549121130F54CEFF3
:10140C005407F54DE4FF854C4BAE4DEF9018C69349
:10141C00254BF54BEF9018CA932EFEC3E54B648019
:10142C0094804049E54B6480948850411211584097
:10143C003CEE648094885035E54B33333354F82EAE
:10144C001210BCF54A5407700F1210C78002C33338
:10145C00D8FC4D120D3980B3E54A54406549600DF6
:10146C001210C78002C333D8FC4D120D390FEF6434
:03147C0004709366
:01147F00224A
:0612DA008B468A4789489B
:1012E00074162F1210BE5440F549121130F54CEF10
:1012F0005407F54DE4FF854C4BAE4DEF9018CE935F
:10130000254BF54BEF9018D2932EFEC3E54B64802E
:101310009480404FE54B64809488504712115840A8
:1013200042EE64809488503BE54B33333354F82EBF
:101330001210BCF54A540770121211371210D680E1
:1013400002C333D8FC4D120D3980B0E54A544065D4
:101350004960101211371210D68002C333D8FC4DE9
:09136000120D390FEF6404708DC9
:011369002261
:061589008B468A478948E9
:10158F0074162F1210BE5440F549121130F54AEF60
:10159F005407F54BE4FFEF9018D693254AFEEF90D2
:1015AF0018DE93254B121157404AEE6480948850F1
:1015BF0043C3ED64809480403BED64809488503445
:1015CF00EE33333354F82D1210BCFC54076007EC84
:1015DF0054406549601EAB46EEF5823395E0F583C6
:1015EF00E5482582F9E54712115F8002C333D8FC25
:0A15FF004E120D390FEF6408709CC6
:0116090022BE
:10074900121130F546EF5407F5473009047FFF8051
:10075900027F018F48EF3395E0FEE5462FFFE43E27
:10076900FEC364809480405AEF9408EE64809480BC
:100779005050E5479400402212114724FFFBE4340E
:10078900FF12111CBF0113ED30E6047F0180027FC7
:1007990000A209E433B50702D322E547C394075001
:1007A900211211472401FBE43312111CBF0113ED7F
:1007B90030E6047F0180027F00A209E433B5070215
:1007C900D322E4FFEF9018D6939018DE1210F94067
:1007D90030E964809488502912116C4024EC6480BB
:1007E9009488501D1210B3FD5407FEBE0213ED305C
:1007F900E6047E0180027E00A209E433B50602D335
:10080900220FEF640870BDE4FFA946AC47EF9018CA
:10081900C69329F9EF9018CA932C121100403CE9AC
:1008290064809488503512116C4030EC648094884F
:1008390050291210B3FD5407FE60D2ED30E6047B57
:100849000180027B00A209E433B5030F8E4AE54A11
:1008590064046005E54AB40502D3220FEF6404700D
:10086900A8E4FFA946AC47EF9018CE9329F9EF9079
:1008790018D2932C121100403CE9648094885035B9
:1008890012116C4030EC6480948850291210B3FD29
:100899005407FE60D2ED30E6047B0180027B00A2A2
:1008A90009E433B5030F8E4AE54A64036005E54A56
:1008B900B40502D3220FEF640470A8E4FFEF901887
:1008C900B6939018BE1210F94030E96480948850AC
:1008D9002912116C4024EC64809488501D1210B3C5
:1008E900FD5407FEBE0613ED30E6047E0180027E4C
:1008F90000A209E433B50602D3220FEF640870BDE4
:01090900C32A
:01090A0022CA
:10148000121108E6FF7B007A00792CD207120AA11C
:10149000E4FF742C2FF8E66002C3220FBF08F3E4C8
:1014A000F52B7416252B1210BEFE603930E6047E33
:1014B0000180027E00A20BE4336E70297416252B86
:1014C0001210BE54076406601C7B007A00792CD28F
:1014D00007AF2B120AA1E4FF742C2FF8E66002C3B9
:1014E000220FBF08F3052BE52BC3944040B4E4F56D
:1014F00018A20B332474F8E6FFA20BB3920912076B
:07150000495003751801D3E7
:0115070022C1
:10137600020026E493A3F8E493A34003F68001F267
:1013860008DFF48029E493A3F85407240CC8C33378
:10139600C4540F4420C8834004F456800146F6DF47
:1013A600E4800B01020408102040809016CFE47EF2
:1013B600019360BCA3FF543F30E509541FFEE4933C
:1013C600A360010ECF54C025E060A840B8E493A303
:1013D600FAE493A3F8E493A3C8C582C8CAC583CA2E
:1013E600F0A3C8C582C8CAC583CADFE9DEE780BEE6
:01171A0000CE
:100BFD00E709F608DFFA8046E709F208DFFA803EDA
:100C0D0088828C83E709F0A3DFFA8032E309F608C6
:100C1D00DFFA8078E309F208DFFA807088828C832E
:100C2D00E309F0A3DFFA806489828A83E0A3F608E2
:100C3D00DFFA805889828A83E0A3F208DFFA804CBC
:100C4D0080D280FA80C680D4806980F28033801093
:100C5D0080A680EA809A80A880DA80E280CA8033FC
:100C6D0089828A83ECFAE493A3C8C582C8CCC58374
:100C7D00CCF0A3C8C582C8CCC583CCDFE9DEE78044
:100C8D000D89828A83E493A3F608DFF9ECFAA9F0C3
:100C9D00EDFB2289828A83ECFAE0A3C8C582C8CC19
:100CAD00C583CCF0A3C8C582C8CCC583CCDFEADE32
:100CBD00E880DB89828A83E493A3F208DFF980CC94
:100CCD0088F0EF60010E4E60C388F0ED2402B4048D
:100CDD000050B9F582EB2402B4040050AF23234534
:060CED008223900C4D7300
:100CF300BB010689828A83E0225002E722BBFE02FF
:090D0300E32289828A83E4932231
:100D0C00BB010CE58229F582E5833AF583E022509C
:100D1C0006E92582F8E622BBFE06E92582F8E222E6
:0D0D2C00E58229F582E5833AF583E4932200
:100D3900BB010689828A83F0225002F722BBFE0199
:020D4900F32293
:00000001FF
