:0300000002183FA4
:0C183F00787FE4F6D8FD758174021886ED
:0E135D00C18C011100010F00010E00011000F3
:10002600121BEE7590D87B017A0079DC1218CBD2C0
:100036000775100A300303120CE83004031219572F
:1000460030050BC2AFC205D2AF751104D20CE51054
:10005600D3940040021510E511B407004003020CCA
:10006600DE90006EF82828730200830200A20201C7
:10007600F802036A0200F0020C5E020CC4300C0B9C
:10008600C20C7B017A0079E01218CB200103020C26
:10009600DED20C75100A751101020CDE300C0C2034
:1000A6000203020CDEC20CC2028044E510600302A9
:1000B6000CDE121A974002804E756101756200755A
:1000C60063ED7B017A007907121B989208200802DB
:1000D600803578F17C007D017B017A0079ED7E0028
:1000E6007F041212DFD20C0208BB300C0EC20C7B4E
:1000F600017A0079071218CB020364E51060030247
:100106000CDE121A974003020364756101756200E2
:100116007563ED7B017A0079D4121B98920820084A
:04012600030201F5DA
:10012A00900000E0F552A3E0F553A3E0F554A3E0F4
:10013A00F55575F004E552A42553F582E435F0F53A
:10014A0083E58224F9F582E5833400F583E05407D8
:10015A00FFBF0618E55425E025E04555FFA207E450
:10016A00332409F582E43401F583EFF075F004E5F0
:10017A0052A42553F582E435F0F583E58224F9F596
:10018A0082E5833400F583E0FF75F004E554A42585
:10019A0055F582E435F0F583E58224F9F582E583A5
:1001AA003400F583EFF075F004E552A42553F58287
:1001BA00E435F0F583E58224F9F582E5833400F528
:1001CA0083E4F078F17C007D017B017A0079D4FE2A
:1001DA007F041212DFB2077B017A0079DC1218CB96
:0B01EA00751102E4F50FD20C020CDED0
:1001F500020364300C0EC20C7B017A0079DC121804
:10020500CB75100230020EC2027B017A007907120B
:1002150018CB751002E5106003020CDE121A974028
:10022500030203647561017562007563ED7B017AF4
:100235000079F1121B989208200808D20C75110359
:10024500020CDE7B017A0079DC1218CBE50F146015
:10025500030203647560017561007562ED7B017AC7
:100265000079F1121A389000E5E0FF121C2C7E008F
:10027500C006C0079000E4E0FF121C2CEFFDD0E0A3
:100285002DFFD0E03400FEC006C0079000E6E0FF79
:10029500121C2CEFFDD0E02DFFD0E03400FEC0068F
:1002A500C0079000E7E0FF121C2CEFFDD0E02DFF0A
:1002B500D0E034004F60030203649000F6E0FF12C3
:1002C5001C2C7E00C006C0079000F5E0FF121C2C18
:1002D500EFFDD0E02DFFD0E03400FEC006C0079052
:1002E50000F7E0FF121C2CEFFDD0E02DFFD0E0342D
:1002F50000FEC006C0079000F8E0FF121C2CEFFDC1
:0B030500D0E02DFFD0E034004F70541A
:100310009000E8E0FFC4540FF552EF540FF553740A
:10032000ED2552F582E43400F583E0FFAE53A806D4
:10033000088002C313D8FC30E012E4F50F9000E807
:10034000F07B017A0079DC1218CB8018751105E476
:10035000F50F780B7C017D017B017A0079DCFE7F53
:04036000041212DF92
:10036400751002020CDE300C02C20C75600175615E
:10037400007562ED7B017A0079F1121A38E50F14E9
:1003840070030204CC1470030208BE24026003024A
:020394000C4318
:100396009000E5E0FF121C2C7E00C006C00790000E
:1003A600E4E0FF121C2CEFFDD0E02DFFD0E034007E
:1003B600FEC006C0079000E6E0FF121C2CEFFDD041
:1003C600E02DFFD0E03400FEC006C0079000E7E055
:1003D600FF121C2CEFFDD0E02DFFD0E03400FEEF25
:1003E60064014E60030204C69000F6E0FF121C2C66
:1003F6007E00C006C0079000F5E0FF121C2CEFFD42
:10040600D0E02DFFD0E03400FEC006C0079000F714
:10041600E0FF121C2CEFFDD0E02DFFD0E03400FEF3
:10042600C006C0079000F8E0FF121C2CEFFDD0E0DC
:0C0436002DFFD0E034004F60030204C62C
:10044200C209750F01751102D20CF552300903026F
:100452000CDEE4F55374E42552F582E43400F583AE
:10046200E0FFAE53A806088002C313D8FC30E03F79
:10047200E55225E025E02553FF12106B780B7C0135
:100482007D017E007F041212DF78077C007D017BF4
:10049200017A01790B7E007F041212DFE49000E8FA
:1004A200F0E552C454F04553F0D202D20980090556
:1004B20053E553C39404409D0552E552C39404404E
:0404C2008B020CDEBF
:1004C600751105020CDE9000E5E0FF121C2C7E0083
:1004D600C006C0079000E4E0FF121C2CEFFDD0E040
:1004E6002DFFD0E03400FEC006C0079000E6E0FF16
:1004F600121C2CEFFDD0E02DFFD0E03400FEC0062C
:10050600C0079000E7E0FF121C2CEFFDD0E02DFFA6
:10051600D0E03400FEEF64014E70549000F6E0FF28
:10052600121C2C7E00C006C0079000F5E0FF121CCE
:100536002CEFFDD0E02DFFD0E03400FEC006C00752
:100546009000F7E0FF121C2CEFFDD0E02DFFD0E06D
:100556003400FEC006C0079000F8E0FF121C2CEF26
:10056600FDD0E02DFFD0E034004F70030208BB90B1
:1005760000E5E0FF121C2C7E00C006C0079000E4D8
:10058600E0FF121C2CEFFDD0E02DFFD0E03400FE82
:10059600C006C0079000E6E0FF121C2CEFFDD0E07D
:1005A6002DFFD0E03400FEC006C0079000E7E0FF54
:1005B600121C2CEFFDD0E02DFFD0E03400FEEF64DE
:1005C600024E60030206C39000F6E0FF121C2C7E6A
:1005D60000C006C0079000F5E0FF121C2CEFFDD00E
:1005E600E02DFFD0E03400FEC006C0079000F7E023
:1005F600FF121C2CEFFDD0E02DFFD0E03400FEC032
:1006060006C0079000F8E0FF121C2CEFFDD0E02D8D
:0B061600FFD0E034004F60030206C379
:10062100C209F554E4F55574E42554F582E4340027
:10063100F583E0FFAE55A806088002C313D8FC304D
:10064100E04E9000E8E0FDC4540F75F004A4FFED06
:10065100540F7C002FFDEC35F0FCE55475F004A43B
:100661007A002555FFEA35F0FEEF6D7002EE6C6001
:100671001F740B2554F582E43401F583E0FFAE5578
:10068100A806088002C313D8FC30E004D209800810
:100691000555E5556404708F2009080554E5546437
:1006A100047081200903020C4378E97C007D017B01
:1006B100017A0079ED7E007F041212DF750F0202CC
:0206C1000C3BF0
:1006C3009000E5E0FF121C2C7E00C006C0079000DE
:1006D300E4E0FF121C2CEFFDD0E02DFFD0E034004E
:1006E300FEC006C0079000E6E0FF121C2CEFFDD011
:1006F300E02DFFD0E03400FEC006C0079000E7E025
:10070300FF121C2CEFFDD0E02DFFD0E03400FEEFF4
:1007130064014E60030208BB9000F6E0FF121C2C3C
:100723007E00C006C0079000F5E0FF121C2CEFFD11
:10073300D0E02DFFD0E03400FEC006C0079000F7E4
:10074300E0FF121C2CEFFDD0E02DFFD0E03400FEC3
:10075300C006C0079000F8E0FF121C2CEFFDD0E0AC
:100763002DFFD0E03400FEEF64014E60030208BBAE
:10077300F554C209F552740B2552F582E43401F5A0
:1007830083E0FF74F52552F582E43400F583E05FDE
:100793006032E4F55374F52552F582E43400F583B1
:1007A300E0FFAE53A806088002C313D8FC20E0077D
:1007B3000553E553B404DEE552C454F04553F554F0
:1007C300D20980070552E552B404AB200903020C99
:1007D300439000E8E0FFC4540FF555EF540FF5566E
:1007E300E554C4540FF557E554540FF55875F00408
:1007F300E555A42556F582E435F0F583E58224F921
:10080300F582E5833400F583E05407FFBF0618E55E
:100813005725E025E04558FFA207E4332409F58274
:10082300E43401F583EFF075F004E555A42556F59E
:1008330082E435F0F583E58224F9F582E58334001B
:10084300F583E0FF75F004E557A42558F582E435F8
:10085300F0F583E58224F9F582E5833400F583EF2F
:10086300F075F004E555A42556F582E435F0F583DB
:10087300E58224F9F582E5833400F583E4F074F12D
:100883002555F582E43400F583E0FFAE56A80674DF
:1008930001088002C333D8FCF45FF074F12557F5E7
:1008A30082E43400F583E0FFAE58A80674010880A3
:0808B30002C333D8FC020B5B09
:1008BB00020C3B7560017561007562ED7B017A007E
:1008CB0079E9121A389000E5E0FF121C2C7E00C06B
:1008DB0006C0079000E4E0FF121C2CEFFDD0E02DCA
:1008EB00FFD0E03400FEC006C0079000E6E0FF1228
:1008FB001C2CEFFDD0E02DFFD0E03400FEC006C075
:10090B00079000E7E0FF121C2CEFFDD0E02DFFD08D
:10091B00E034004F6003020B999000F6E0FF121CCD
:10092B002C7E00C006C0079000F5E0FF121C2CEFD8
:10093B00FDD0E02DFFD0E03400FEC006C0079000D4
:10094B00F7E0FF121C2CEFFDD0E02DFFD0E03400C0
:10095B00FEC006C0079000F8E0FF121C2CEFFDD084
:10096B00E02DFFD0E03400FEEF64014E6003020B7C
:01097B0099E2
:10097C00F554C209F55B740B255BF582E43401F583
:10098C0083E0FF74F5255BF582E43400F583E05FCA
:10099C006035E4F55C74F5255BF582E43400F58391
:1009AC00E0FFAE5CA806088002C313D8FC30E00D53
:1009BC00E55BC454F0455CF554D2098007055CE551
:1009CC005CB404D1200907055BE55BB404A82009DD
:1009DC0003020C439000E8E0FFC4540FF555EF54AC
:1009EC000FF556E554C4540FF557E554540FF5580C
:1009FC00E4F55BE4F55C74E4255BF582E43400F526
:100A0C0083E0FFAE5CA806088002C313D8FC30E07C
:100A1C002EE55575F004A47C002556FDEC35F0FC54
:100A2C00E55B75F004A47A00255CFFEA35F0FEEF77
:100A3C006D7002EE6C6008855B59855C5A80070509
:100A4C005CE55CB404B0055BE55BB404A675F0042E
:100A5C00E555A42556F582E435F0F583E58224F9B5
:100A6C00F582E5833400F583E05407FFBF0618E5F3
:100A7C005725E025E04558FFA207E4332409F58209
:100A8C00E43401F583EFF075F004E555A42556F533
:100A9C0082E435F0F583E58224F9F582E5833400B0
:100AAC00F583E0FF75F004E557A42558F582E4358D
:100ABC00F0F583E58224F9F582E5833400F583EFC4
:100ACC00F075F004E555A42556F582E435F0F58370
:100ADC00E58224F9F582E5833400F583E4F075F0C2
:100AEC0004E559A4255AF582E435F0F583E5822412
:100AFC00F9F582E5833400F583E4F074F12555F5BE
:100B0C0082E43400F583E0FFAE56A8067401088039
:100B1C0002C333D8FCF45FF074F12559F582E43448
:100B2C0000F583E0FFAE5AA8067401088002C333B7
:100B3C00D8FCF45FF074F12557F582E43400F583AA
:100B4C00E0FFAE58A8067401088002C333D8FC4FEE
:100B5C00F0B207E4F50F751102780B7C017D017B77
:100B6C00017A0079DCFE7F041212DF90000F74AA68
:100B7C00F090000B7403F090000514F09000E8E086
:0D0B8C00900050F0A3E554F0D204020CDEFE
:100B99009000E5E0FF121C2C7E00C006C007900003
:100BA900E4E0FF121C2CEFFDD0E02DFFD0E0340073
:100BB900FEC006C0079000E6E0FF121C2CEFFDD036
:100BC900E02DFFD0E03400FEC006C0079000E7E04A
:100BD900FF121C2CEFFDD0E02DFFD0E034004F7048
:100BE900579000F6E0FF121C2C7E00C006C007904B
:100BF90000F5E0FF121C2CEFFDD0E02DFFD0E03412
:100C090000FEC006C0079000F7E0FF121C2CEFFDA4
:100C1900D0E02DFFD0E03400FEC006C0079000F8F8
:100C2900E0FF121C2CEFFDD0E02DFFD0E034004F87
:100C39007006751102020CDE8000751105E4F50FCE
:100C4900780B7C017D017B017A0079DCFE7F04123F
:050C590012DF020CDEB9
:100C5E00300C0DC20C7B017A0079E01218CB050E18
:100C6E00E510706CE50EC394064046E4F50E121ABC
:100C7E0097502D7561017562007563ED7B017A00E9
:100C8E0079F1121B989208300816751102E4F50FCF
:100C9E007B017A0079DC1218CBD20C75100A8030E9
:100CAE007B017A0079F11218CB751032E4F50E80C3
:100CBE001F7511068015300C0BC20C7B017A007962
:100CCE00DC1218CBE510700875110575100AD20CE0
:0A0CDE007F0A7E00121C0402003A97
:0A136B004100D2004100D300C10D83
:101BEE0053890F438920D28E758DFF759850438788
:061BFE0080D2ACD2AF2240
:101AF3009000D2E004543FFEA3E06E602F9000D22A
:101B0300E02492F582E43400F583EFF09000D2EE06
:101B1300F0200D18D20DA3E02492F582E43400F5F1
:0C1B230083E0F5999000D3E004543FF0FB
:011B2F002293
:10000300AD07AC068D828C83E49360100DED700117
:0D0013000C14F582E493FF121AF380E8222A
:1013750052010F3F065B4F666D7D077F6F777C39A6
:051385005E79713D7668
:051C7500121C7AD2B43C
:021C7A00002246
:0F1C3D00D2B5D2B4121C7AC2B5121C7AC2B4222C
:0D1C4C00C2B4121C7AC2B5121C75D2B522AA
:091BC800F582E43401F583E0FF2D
:101BD100E4FEC2B4EF1392B5121C75EFC313FF0EEE
:0C1BE100BE08EFC2B4D2B5121C75C2B42D
:011BED0022D5
:091C6400121C3D121BD1021C4CA4
:101B6800AC077F40121C64121C3D7FC0121BD1744D
:101B78000F2C121BC8740F2D121BC8740F2B121BAD
:101B8800C8740F2515121BC8121C4C7F8F021C64C9
:101C1900438901758CFC758A67C28DD28C308DFD24
:031C2900C28C2248
:101C0400E4FDFCC3ED9FEC9E500A121C190DBD00AF
:041C1400010C80EF50
:011C180022A9
:101C2C00E4FE53070FEF60061452070E80F7AF0661
:011C3C002285
:041C7C000000000064
:061B30008B088A09890AF6
:101B3600E4FFAB0BAA0CA90D8F8275830012131E4E
:101B4600FEAB08AA09A90A8F8275830012131E6EBE
:101B5600FE74D82FF582E43400F583EEF00FBF044F
:011B6600D1AD
:011B6700225B
:061A38008B5D8A5E895FF0
:101A3E00E4FFAB60AA61A9628F8275830012131E48
:101A4E00F4FEAB5DAA5EA95F8F8275830012131E32
:101A5E005EFE74E42FF582E43400F583EEF08F829F
:101A6E0075830012131EF4FEAB60AA61A9628F8209
:101A7E0075830012131E5EFE74F52FF582E434009A
:081A8E00F583EEF00FBF04AA7E
:011A9600222D
:101A9700755D03AF5D155DEF60501219C978217C44
:101AA700017D017E007F041212DF7F057E00121C7C
:101AB700041219C978257C017D017E007F0412126A
:101AC700DF7561017562017563257B017A017921F3
:101AD700121B9850BE78ED7C007D017B017A01795D
:0B1AE700217E007F041212DFD322C317
:011AF20022D1
:1019C90078297C017D017BFF7A1C797C7E007F046C
:1019D9001212DFD297C296121C7AD296121C6DC2CD
:1019E90097E4F55EE4F55FA294E433FF53070174CD
:1019F90029255FF582E43401F583E0FEEF70047F69
:101A09000180027F00AD5EA805EF088002C333D8CC
:101A1900FC4EF0121C6D055FE55FC3940440C805D8
:0E1A29005EE55EC3940440BC7B017A0179291E
:011A3700228C
:1018CB00121305F55E90000112131EF55F900002D6
:1018DB0012131EF56090000312131EF561C29312D2
:0E18EB001C5CD2937F017E00121C04E4F55DAC
:1018F900C37403955DF562FFF8E561088002C313BF
:10190900D8FC121C59AF62A807E560088002C3130E
:10191900D8FC121C59AF62A807E55F088002C313FF
:10192900D8FC139290121C5CAF62A807E55E088090
:0B19390002C313D8FC139290121C5C38
:10194400055DE55DC3940440ACC292D292121C7A48
:02195400C2923D
:01195600226E
:031C590013929053
:081C5C00D291121C7AC2912200
:081C6D00D295121C7AC29522E7
:10138A004400ED1F1B041F4400F1FFFFFFFF440050
:10139A00D8000000004400E4000000004400F5000A
:1013AA0000000044010B000000004400E9000000B6
:1013BA00004400D4000000004400DC0000000044A7
:1013CA0000E0FFFFFFFFC108C187C1864201090093
:1013DA00005000F9000000000000000000000000BA
:0813EA00000000004100E800D2
:061B98008B5E8A5F89608C
:101B9E00E4FFAB61AA62A9638F8275830012131EE4
:101BAE00FEAB5EAA5FA9608F8275830012131E6E54
:091BBE006002C3220FBF04DAD358
:011BC70022FB
:1013F200C102C101C100C10541000C0041009000C1
:101402004400000000000001160044000700000034
:0814120000011700C103C10431
:0300230002145B69
:10145B00C0E0C083C082C0D075D000C00720980305
:03146B000215095E
:10146E00859974C298E51714602314603314605084
:10147E0014607A24046003021533E57464AA6003D1
:10148E0002153390000DF07517010215339000060A
:10149E00E574F090000DE06574F0751702021533D7
:1014AE00900004E574F0900091E4F090000DE0657A
:1014BE0074F0900004E0D39400402D7517038065FE
:1014CE00900091E0FF04F074102FF582E43400F5E3
:1014DE0083E574F090000DE06574F0900004E0FF79
:1014EE00900091E0C39F403D751704803890000D29
:0B14FE00E0B57402D203751700802ACD
:10150900309927C2999000D2E0FF9000D3E06F6034
:1015190017E02492F582E43400F583E0F599900010
:10152900D3E004543FF08002C20DD007D0D0D0825E
:05153900D083D0E03278
:100CE800200303020EBCC203900006E024FE60103D
:100CF800147003020DC724026003020EBCD2012245
:0F0D0800E4F55D900004E014FFE55DC39F5041EA
:100D17007410255DF582E43400F583E0F55E74F91F
:100D2700255DF582E43400F583E55EF05407FFBFE7
:020D3700061B99
:100D3900E55E30E603D38001C3920AA20AE43324B4
:0B0D490009F582E43401F583E55DF05C
:100D5400055D80B37410255DF582E43400F583E00D
:100D640024FF920678077C007D017B017A0079DC00
:100D74007E007F041212DFE4F55DE4FF75F004E504
:100D84005DA42FF582E435F0F583E58224F9F5823C
:100D9400E5833400F583E05407601A7407255DF594
:100DA40082E43400F583E0FEA8077401088002C3DE
:100DB40033D8FC4EF00FBF04C3055DE55DB404BA3F
:100DC400D2022278077C007D017B017A0079DC7EE7
:100DD400007F041212DFE4F55D900004E0FFE55D9E
:100DE400C39F501E7410255DF582E43400F583E042
:100DF400FF7400255DF582E43400F583EFF0055DB2
:100E040080D7900000E02407F582E43400F583C025
:100E140083C082E0FF900001E0FEF87401088002C4
:100E2400C333D8FC4FD082D083F0900002E0240773
:100E3400F582E43400F583C083C082E0FF900003B0
:100E4400E0FEF87401088002C333D8FC4FD082D08E
:100E540083F078D47C007D017B017A0079F17E00F7
:100E64007F041212DF900000E024D4F582E4340001
:100E7400F583C083C082E0FF900001E0FEF87401B6
:100E8400088002C333D8FCF45FD082D083F0900092
:100E940002E024D4F582E43400F583C083C082E008
:100EA400FF900003E0FEF87401088002C333D8FC0D
:080EB4004FD082D083F0D2057B
:010EBC002213
:1019570030046EC204E490000EF0A3E0FF121AF305
:1019670090000BE0FF121AF3900005E0FF121AF344
:1019770090000EE0FF90000BE0FEEF6E90000EF07F
:10198700E0FF900005E0FEEF6E90000EF0E4F55DDD
:10199700900005E0FFE55DC39F501E7450255DF57F
:1019A70082E43400F583E0F55E90000EE0655EF0BA
:1019B700AF5E121AF3055D80D790000EE0FF121A92
:0119C700F32C
:0119C80022FC
:10141A000842FFFFFF0000010101083AFF0001FF37
:10142A0001FF0001044EFF010000044A0000FF0111
:10143A000436FFFF0101042AFF01FF01082EFEFE08
:10144A00FFFF010102020822FF01FE02FE02FF0164
:02106B008F5D97
:10106D0078647C007D007B017A0079DC7E007F0452
:10107D001212DF78687C007D007B017A0079DC7EBE
:10108D00007F041212DF74F9255DF582E43400F55A
:10109D0083E0F561A207E4332409F582E43401F518
:1010AD0083E0F563E5615407FF7004FB02120AE566
:1010BD006130E603D38001C3920AA20A300701B35F
:1010CD004008A20A300601B350057B0002120AEF58
:1010DD0024FD601A14601C14601B14602824047015
:1010ED002F7B007A007964AF5D1216FC80221215F9
:1010FD003E801D800312153E7B007A007964AF5D42
:10110D00121621800B7B007A007964AF5D1217A453
:10111D00E4F55EE4F55F7464255EF8E6FD7C007E23
:10112D00007401A85F088005C333CE33CED8F9FF14
:10113D00EE5CFEEF5D4E70030211F0E55E25E025DD
:10114D00E0455FF56024F9F582E43400F583E0F5C0
:10115D006274F92560F582E43400F583E561F0747D
:10116D00F9255DF582E43400F583E4F0E56154077B
:10117D00FFBF0610A207E4332409F582E43401F51C
:10118D0083E560F0A207E4332409F582E43401F528
:10119D0083E0FFA207B3920B120EBD401A746825AF
:1011AD005EF8C000E6FFAE5FA8067401088002C3BA
:1011BD0033D8FC4FD000F674F9255DF582E4340088
:1011CD00F583E561F074F92560F582E43400F5836B
:1011DD00E562F0A207E4332409F582E43401F583D6
:1011ED00E563F0055FE55FC3940450030211230529
:1011FD005EE55EC3940450030211207B007A0079F2
:01120D006878
:01120E0022BD
:0617A4008B6C8A6D896E5A
:1017AA0074F92FF582E43400F583E05440F56FEFC5
:1017BA001313543FF570EF5403F571E4FF74422F8D
:1017CA00F8E62570FE743A2FF8E62571FDC3EE643B
:1017DA008094804059EE648094845052C3ED6480B2
:1017EA009480404AED648094845043EE25E025E0DD
:1017FA002D24F9F582E43400F583E0FC54076007F0
:10180A00EC5440656F6027AB6CEEF5823395E0F5DA
:10181A0083E56E2582F9E56D3583FA121305FEA874
:10182A00057401088002C333D8FC4E12134B0FEF24
:04183A006408708945
:01183E002287
:061621008B6C8A6D896EDE
:1016270074F92FF582E43400F583E05440F56FEF49
:101637001313543FF572EF5403F573E4FF8572718A
:10164700AE73744E2FF8E62571F571744A2FF8E6DC
:101657002EFEC3E5716480948050030216F2E57193
:101667006480948440030216F2C3EE648094804041
:101677007AEE64809484507375F004E571A42EF5B6
:1016870082E435F0F583E58224F9F582E5833400B9
:10169700F583E0F57054077026AB6CAD71ED3395AB
:1016A700E0FCE56E2DF9E56D3CFA121305FDA80681
:1016B7007401088002C333D8FC4D12134B8083E5B5
:1016C700705440656F6024AB6CAD71ED3395E0FCF1
:1016D700E56E2DF9E56D3CFA121305FDA8067401B8
:1016E700088002C333D8FC4D12134B0FEF6404601C
:0416F7000302164490
:0116FB0022CC
:08153E007B007A007964AF5DC7
:061546008B6C8A6D896EBA
:10154C0074F92FF582E43400F583E05440F56FEF25
:10155C001313543FF572EF5403F573E4FF85727166
:10156C00AE7374362FF8E62571F571742A2FF8E6F0
:10157C002EFEC3E571648094805003021617E5714A
:10158C00648094844003021617C3EE6480948040F8
:10159C007AEE64809484507375F004E571A42EF592
:1015AC0082E435F0F583E58224F9F582E583340095
:1015BC00F583E0F57054077026AB6CAD71ED339587
:1015CC00E0FCE56E2DF9E56D3CFA121305FDA8065D
:1015DC007401088002C333D8FC4D12134B8083E591
:1015EC00705440656F6024AB6CAD71ED3395E0FCCD
:1015FC00E56E2DF9E56D3CFA121305FDA806740194
:10160C00088002C333D8FC4D12134B0FEF640460F7
:04161C000302156947
:0116200022A7
:0616FC008B6C8A6D896E03
:1017020074F92FF582E43400F583E05440F56FEF6D
:101712001313543FF570EF5403F571E4FF742E2F49
:10172200F8E62570FE74222FF8E62571FDC3EE64FB
:101732008094804063EE64809484505CC3ED648046
:1017420094804054ED64809484504D75F004EEA46E
:101752002DF582E435F0F583E58224F9F582E583FF
:101762003400F583E0FC54076007EC5440656F6079
:1017720027AB6CEEF5823395E0F583E56E2582F9B1
:10178200E56D3583FA121305FEA80574010880027F
:10179200C333D8FC4E12134B0FEF640860030217D9
:0117A2001F27
:0117A3002223
:100EBD00EF1313543FF56CEF5403F56DE4FF742EEF
:100ECD002FF8E6256CFD74222FF8E6256DFEC3ED97
:100EDD00648094804041ED64809484503AC3EE6404
:100EED008094804032EE64809484502BED25E02573
:100EFD00E04EF924F9F582E43400F583E0FC540763
:100F0D00FBBB0213EC30E6047B0180027B00A20BDD
:100F1D00E433B50302D3220FEF640870A1E4FFADF3
:100F2D006CAE6D744E2FF8E62DFD744A2FF8E62E3B
:100F3D00FEC3ED64809480404DED648094845046F2
:100F4D00C3EE64809480403EEE648094845037ED0F
:100F5D0025E025E04EF924F9F582E43400F583E02F
:100F6D00FC540760BEEC30E6047B0180027B00A2DE
:100F7D000BE433B50310EC5407F56E64046005E51E
:100F8D006EB40502D3220FEF64047093E4FFAD6CD1
:100F9D00AE6D74362FF8E62DFD742A2FF8E62EFE71
:100FAD00C3ED64809480404DED648094845046C3BD
:100FBD00EE64809480403EEE648094845037ED253D
:100FCD00E025E04EF924F9F582E43400F583E0FCE8
:100FDD00540760BEEC30E6047B0180027B00A20B5F
:100FED00E433B50310EC5407F56E64036005E56E4C
:100FFD00B40502D3220FEF64047093E4FF74422F03
:10100D00F8E6256CFD743A2FF8E6256DFEC3ED6408
:10101D008094804041ED64809484503AC3EE6480A6
:10102D0094804032EE64809484502BED25E025E0D1
:10103D004EF924F9F582E43400F583E0FC5407FB06
:10104D00BB0613EC30E6047B0180027B00A20BE4AF
:0D105D0033B50302D3220FEF640870A1C366
:01106A002263
:10184B00020026E493A3F8E493A34003F68001F28D
:10185B0008DFF48029E493A3F85407240CC8C3339E
:10186B00C4540F4420C8834004F456800146F6DF6D
:10187B00E4800B010204081020408090135DE47E8D
:10188B00019360BCA3FF543F30E509541FFEE49362
:10189B00A360010ECF54C025E060A840B8E493A329
:1018AB00FAE493A3F8E493A3C8C582C8CAC583CA54
:1018BB00F0A3C8C582C8CAC583CADFE9DEE780BE0C
:01145A000091
:10120F00E709F608DFFA8046E709F208DFFA803EC1
:10121F0088828C83E709F0A3DFFA8032E309F608AE
:10122F00DFFA8078E309F208DFFA807088828C8316
:10123F00E309F0A3DFFA806489828A83E0A3F608CA
:10124F00DFFA805889828A83E0A3F208DFFA804CA4
:10125F0080D280FA80C680D4806980F2803380107B
:10126F0080A680EA809A80A880DA80E280CA8033E4
:10127F0089828A83ECFAE493A3C8C582C8CCC5835C
:10128F00CCF0A3C8C582C8CCC583CCDFE9DEE7802C
:10129F000D89828A83E493A3F608DFF9ECFAA9F0AB
:1012AF00EDFB2289828A83ECFAE0A3C8C582C8CC01
:1012BF00C583CCF0A3C8C582C8CCC583CCDFEADE1A
:1012CF00E880DB89828A83E493A3F208DFF980CC7C
:1012DF0088F0EF60010E4E60C388F0ED2402B40475
:1012EF000050B9F582EB2402B4040050AF2323451C
:0612FF00822390125F73D0
:10130500BB010689828A83E0225002E722BBFE02E6
:09131500E32289828A83E4932219
:10131E00BB010CE58229F582E5833AF583E0225084
:10132E0006E92582F8E622BBFE06E92582F8E222CE
:0D133E00E58229F582E5833AF583E49322E8
:10134B00BB010689828A83F0225002F722BBFE0181
:02135B00F3227B
:00000001FF
