:0300000002149750
:0C149700787FE4F6D8FD75817D0214DE3C
:0E17ED00C18D0115000113000112000114004E
:1016B60074532522AE23F8E6FFA8060822752E00ED
:1016C600752F0075305C7B007A007964227476256C
:1016D60023F8E6FF746C2523F8E622E5223333333C
:1016E60054F8452322E52333333354F84524F522B1
:1016F600D206227E007F08020D11E6FFE52A540776
:10170600FEF874010822E52A131313541F2422F845
:10171600227B017A00795A22753F00754000754197
:021726005C2243
:10002600121A2E7590D8120522D20B75140A3003B7
:1000360003120ED730040312183D300529C2AFC291
:1000460005D2AF900057E0240AFF900056E004FD69
:10005600900059E0240AFB900058E004F52E12198E
:1000660042751504D20DE514D3940040021514E52B
:1000760015B4080040030204E1900086F8282873AE
:1000860002009E0200C102017D0202040201030277
:10009600040902047D0204CF300D0F752E017B0288
:1000A6007D027F011219421205752001030204E147
:1000B600D20D75140A7515010204E1300D24752E52
:1000C600027B037D037F021219422002030204E130
:1000D600C20DC20278647C007D001217171216F951
:1000E6008020E51460030204E1121885400280278F
:1000F60012050D200C02801FD20D02037B300D0B62
:10010600C20D1217171209550201FEE5146003020B
:1001160004E112188540030201FE12171E7B017AC4
:0B0126000079001219A8920C300C495F
:10013100900056E0F522A3E0F523A3E0F524A3E027
:10014100F525900056E033333354F8FFA3E04FFF19
:10015100A3E033333354F8FEA3E04EFDC20712058A
:100161008B1215AD5005751505D20D1205227515A9
:0901710002E4F513D20D0204E1D1
:10017A000201FE300D12752E037B047D047F0312EB
:10018A00194212050175140230020BC20212171726
:10019A00120955751402E51460030204E112188568
:1001AA0040030201FE12050D200C08D20D7515033D
:1001BA000204E1120561E5131470391216C3120420
:0A01CA00F4EF7030FB1204EB702A12
:1001D400E55B131313541FF522E55B5407F52374F1
:1001E4005C1216B88002C313D8FC30E00AE4F5139D
:0A01F400F55B12056180031205811E
:1001FE007514020204E1300D02C20D1216C312195B
:10020E0075E5131470030202A214700302037E2418
:10021E00026003020403752E017B017D017F011232
:0F022E00194212052CEF64017064120536705FDF
:10023D00C206751301751502D20DF52230060302A3
:10024D0004E1E4F5231216B68002C313D8FC30E0A6
:10025D00291216E1FF7B007A007976C207120AE5B2
:10026D00785A7C007D017B007A0079761216F9129E
:10027D0016E1F55BD202D20680090523E523C3946E
:0F028D000840C20522E522C3940840B00204E1F4
:10029C007515060204E112052CBF010A7B0012043D
:1002AC00EB700302037B1205566402706F12053665
:0202BC00706A66
:1002BE00C206F522E4F5231216B68002C313D8FC4B
:1002CE0030E026E55B131313541FFFE55B54074F15
:1002DE00FF1216E16F601274761216B88002C31305
:1002EE00D8FC30E004D20680070523E523B408C706
:1002FE002006080522E522640870B92006030204D0
:10030E0003780E7C007D017B007A00795C7E007F95
:0A031E0008120D117513020203FB13
:0E0328001205566401704C12056B640170459D
:10033600F522C206F5231216D35F6021E4F5247474
:100346006C2523AE241216BC8002C313D8FC20E011
:10035600070524E524B408E71216EB80070523E514
:1003660023B408D220060302040312054040030208
:0503760004E10203DCBC
:10037B000203FB752E00752F0075305C7B017A0034
:0F038B00790E1204F4EF705112056B6401704A81
:10039A00C206F5231216D35F6024E4F5241216DA96
:1003AA00FFAE24A806088002C313D8FC30E0051269
:1003BA0016EB80070524E524B408E2200607052386
:1003CA00E523B408CF200602802F1205404003021D
:0A03DA0004E1751505D20D0204E1DF
:1003E4007B007A007953121728EF7011FB7A007999
:1003F4006C121728EF70067515020204E1800012D2
:0B04040005810204E1200D030204E169
:10040F00C20DA20BE4332474F8E6F52AE51A640151
:10041F007021F522F523F524F525F526F527F52886
:10042F00F52912170CC0001217008002C333D8FC35
:10043F004F802CE51A702B7522FF7523FF7524FF53
:10044F007525FF7526FF7527FF7528FF7529FF1284
:10045F00170CC0001217008002C333D8FCF45FD012
:0B046F0000F67B007A0079221209558C
:10047A000204E1300D051205750512E5147058E500
:10048A0012C39406403AE4F5121218855024121742
:10049A001E1216CC1219A8920C300C16751502E40D
:1004AA00F5137BFF7A1A79A0120955D20D75140A31
:1004BA0080251216CC120955751432E4F5128017EC
:1004CA00751507800D300D03120501E514700875C6
:1004DA00150675140AD20D7F0A7E00121A4402000C
:1004EA00347A00796C121728EF221219757B007A78
:1004FA0000795312172822C20D7BFF7A1A79A012AB
:10050A00095522753F0075400075415C7B007A00F1
:10051A0079641219A8920C227BFF7A1A79A012091F
:10052A0055227B007A00795312172822FB7A007928
:10053A006C121728EF22E4F513751502121A7ED2EF
:10054A0007AD22AF5B12058B1215AD227B007A0034
:10055A007953121728EF227BFF7A1A79A0120955CC
:10056A0022FB7A00796C121728EF22C20D7BFF7AE0
:10057A001A79A812095522751506E4F513121A7E7E
:01058A00224E
:0817FB00011600011700C10EE8
:101A2E0053890F438920D28E758DFF759850438749
:061A3E0080D2ACD2AF2201
:10190C00E516045407FE6517602BAD1674A82DF56B
:10191C0082E43400F583EFF08E16200E18D20EAF51
:10192C001774A82FF582E43400F583E0F599E517D8
:05193C00045407F5173B
:011941002283
:101A6C003F065B4F666D7D077F6F777C395E7971C2
:021A7C003D76B5
:0B1ABC00D2B5D2B400C2B500C2B42203
:0C1AB000C2B400C2B500D2B400D2B5220E
:10000300E4FEC2B4EF1392B500D2B400EFC313FF02
:0E0013000EBE08EEC2B4D2B500D2B400C2B424
:0100210022BC
:091AC700121ABC120003021AB04D
:10194200AC077F40121AC7121ABC7FC0120003EC08
:10195200901A6C93FF120003ED93FF120003EB93B6
:10196200FF120003E52E93FF120003121AB07F8FBD
:03197200021AC78F
:101A90000001010201020203010202030203030426
:0418030002180000C7
:101A08002D2FFF120D50FE54F0C4540F901A9093CE
:101A1800FDEE540F932D2FFF22120D5054F0C45495
:061A28000F901A909322BA
:101A5900438901758CFC758A67C28DD28C308DFDE6
:031A6900C28C220A
:101A4400E4FDFCC3ED9FEC9E500A121A590DBD0033
:041A5400010C80EF12
:011A5800226B
:10172800900001120D50FF121A24FEEF540F932E51
:10173800FF120D37FE121A24FDEE540F939000028B
:10174800121A08900003120D50FE121A24FDEE54CE
:101758000F93900004121A08900005121A0B9000BB
:1017680006121A21FE900006120D50121A272E2F6B
:10177800FF900007121A21FE900007120D50121A4E
:05178800272E2FFF22B7
:10178D00A294E433F541534101E5402404FFE433D1
:10179D00FEAB3CE53E2FF9E53D3EFA120D37FF223B
:1017AD00AB2EAA2FA9308F82758300020D50A29403
:1017BD00E433F541534101AB3CE53E2540F9E435B9
:1017CD003DFA120D37FF227403C3952BF534FFF844
:1017DD0022053FE53FC39404227B007A00792B223A
:061975008B2B8A2C892D4A
:10197B00E4FF1217ADF4FEAB2BAA2CA92D1217B353
:10198B005EFE74532FF8A6061217B3F4FE1217ADB2
:0C199B005EFE746C2FF8A6060FBF08D685
:0119A700221D
:10188500753B03AF3B153BEF60391217E612126C3F
:101895007F057E00121A447B007A00793312126CA0
:1018A500753F007540007541331217E61219A850AF
:1018B500D2785C7C007D001217E67E007F08120D51
:0418C50011D322C356
:0118C90022FC
:06126C008B3C8A3D893E27
:10127200A801AC02AD037BFF7A1A79A07E007F0839
:10128200120D11D297C29600D296121AD6C297E4C4
:10129200F53FE4F5401217BBE54170047E01800280
:1012A2007E00AD3FA805EE088002C333D8FC1213BE
:1012B2003C40E21217DE40DAE4F53FE4F540121753
:1012C200BBE53F2404FEE54170047D0180027D0000
:1012D200A806ED088002C333D8FC12133C40DF128B
:1012E20017DE40D7E4F53FE4F54012178DE53F24C1
:1012F20004FEE54170047D0180027D00A806ED0830
:101302008002C333D8FC12134B40DF1217DE40D7E2
:10131200E4F53FE4F54012178DE54170047E01804B
:10132200027E00AD3FA805EE088002C333D8FC124E
:09133200134B40E21217DE40DA11
:10133B00224F120D7D121AD60540E540C3940422AC
:0F134B004F120D7D121AD60540E540C3940422BF
:10095500120D37F52C900001120D50F52D90000267
:10096500120D50F52E900003120D50F52F90000436
:10097500120D50F530900005120D50F5319000061E
:10098500120D50F532900007120D50F533C2931237
:080995001AD0D29300E4F52B07
:10099D001217D4E533088002C313D8FC120A87E579
:1009AD0032088002C313D8FC120A87E53108800291
:1009BD00C313D8FC120A92E530088002C313D8FC89
:0809CD00120AB340CBE4F52B44
:1009D50074071217D6E533088002C313D8FC120A30
:1009E50092E532088002C313D8FC120A9DE531084E
:1009F5008002C313D8FC120A9DE530088002C31398
:020A0500D8FC1B
:080A0700120AB340C9E4F52B0B
:100A0F00C374071217D7E52F088002C313D8FC123F
:100A1F000AA8E52E088002C313D8FC120AA8E52DF8
:100A2F00088002C313D8FC120AC1E52C088002C348
:030A3F0013D8FCCD
:080A4200120ACC40C8E4F52BB8
:100A4A001217D4E52F088002C313D8FC120AC1E595
:100A5A002E088002C313D8FC120ADAE52D08800298
:100A6A00C313D8FC120ADAE52C088002C313D8FC97
:0C0A7A00120ACC40CBC292D29200C29271
:100A860022139290121AD0AF34A807221392901212
:100A96001AD0AF34A80722139290121AD0AF34A8F6
:100AA6000722139290121AD0AF34A80722139290FD
:100AB600121AD0052BE52BC3940422139290121A16
:100AC600D0AF34A80722139290121AD0052BE52B2B
:0F0AD600C3940422139290121AD0AF34A80722AF
:061AD000D29100C2912238
:061AD600D29500C295222A
:101AA0000000000000000000FFFFFFFFFFFFFFFF3E
:10180700C10CC18BC18A0274000044000A000000A9
:09181700004200080000015B0022
:101A7E00E4F576F577F578F579F57AF57BF57CF57D
:021A8E007D22B7
:0619A8008B3C8A3D893EE4
:1019AE00E4FFAB3FAA40A9418F82758300120D5010
:1019BE00FEAB3CAA3DA93E8F82758300120D506E80
:0919CE006002C3220FBF08DAD346
:0119D70022ED
:10182000C102C101C100C105440056000000000111
:091830000F00011100C103C10405
:1018CA00E490005AF0A3F0A3F0A3F0A3F0A3F0A3CE
:1018DA00F0A3F0227462252BF582E43400F583220A
:1018EA00E0900057FFE0FEF874010822E0245AF560
:1018FA0082E43400F58322E02400F582E43400F522
:02190A00832236
:0300230002135A6B
:10135A00C0E0C083C082C0D075D000C00730986D8D
:10136A00859952C298E51114601A146023146036E4
:10137A0014604E2404707BE55264AA7075F50C75EE
:10138A001101806E85520AE552620C751102806263
:10139A00855208751000E552620CE508D3940040A6
:1013AA001B751103804CAF10051074622F1218E2DE
:1013BA00E552F0620CE510C39508403675110480B9
:0D13CA0031E552B50C02D2037511008025EB
:1013D700309922C299E51765166018AF1774A82FC0
:1013E700F582E43400F583E0F599E517045407F531
:1013F700178002C20ED007D0D0D082D083D0E0327F
:100ED70020030302101BC203E50A24FE60101470EE
:100EE70003020F7A2402600302101BD20122E4F5E9
:010EF7002BCF
:100EF8001218DEE0F52C7416252BF582E43400F583
:0A0F080083E52CF05407FFBF061428
:100F1200E52C30E603D38001C39207A207E4332411
:040F220074F8A62B8E
:100F2600052BE52BB440CB1218DEE024FF920A1203
:100F360018CAF52BE4FDE52B75F008A4FFEDFBEFD1
:100F46004B2416F582740035F0F583E054076016DD
:100F5600745A252B1218F9E0FFA8057401088002BF
:100F6600C333D8FC4FF00DBD08CC052BE52BB408D8
:100F7600C3D202221218CAF52B1218DEE0FF7456ED
:100F8600252BF582E43400F583EFF0052BE52BB431
:100F960004E79000561218F6C083C0821218EA8041
:100FA60002C333D8FC4FD082D083F0900058121879
:100FB600F6C083C082E09000591218EE8002C33357
:100FC600D8FC4FD082D083F078007C007D017B0076
:100FD6007A0079647E007F08120D1190005612196E
:100FE60001C083C0821218EA8002C333D8FCF45FC2
:100FF600D082D083F0900058121901C083C082E0DD
:10100600FF9000591218EF8002C333D8FC4FD082EC
:05101600D083F0D205BB
:01101B0022B2
:10183D00300444C204E4F50DAF0E12190CAF0B12B7
:10184D00190CAF0912190CE50B620DE509620DE4D7
:10185D00F52BE52BC39509501974A3252BF582E4BF
:10186D003400F583E0F52C620DAF2C12190C052B0D
:07187D0080E0AF0D12190C11
:011884002241
:1019D800FFFFFF0000010101FF0001FF01FF0001FF
:1019E800FF0100000000FF01FFFF0101FF01FF01EF
:1019F800FEFEFFFF01010202FF01FE02FE02FF01DF
:03183900011A0091
:10115100E933333354F84CF5492416F582E434006D
:10116100F583E02234FF45F0FEEB4F2416F582743F
:10117100003EF583E022AB46AD4BED3395E0FCE557
:10118100482DF9E5473CFA120D37FDA80674010810
:10119100227B007A00793EAF3422E52C75F008A459
:1011A100FFEF452D2416F582740035F0F58322AB4F
:1011B10047E549254DF9E43548FA020D372546F949
:1011C100EF932547FCC3E96480948022A20BE433AA
:1011D1002474F8227416253AF582E43400F583224A
:1011E100E54A75F008A4FF22EF131313541F22AB35
:1011F10046E548254AF9E43547FA120D37FFE54B34
:1012010022AB46AD4BED3395E0FCE5482DF9E547C2
:1012110022AF48EF3395E0254675F008A4FFE54776
:1012210022E6FFA80674010822FDC3EE64809480C3
:10123100223583FA120D37FEA80574010822C3EC8A
:101241006480948022F582E43400F58322F0A3F0D7
:10125100A3F0A3F022E0245AF582E43400F58322BE
:0B126100E02400F582E43400F5832255
:02058B008D2BB6
:10058D00C208C2091211E9F52CEF5407F52DE52B20
:10059D00131313541FF52EE52B5407F52FE52C756A
:1005AD00F008A4FFAEF0EF452DFF12116C54076457
:1005BD00066003020692A20B332408121246E06075
:1005CD0003020675E52DB40406E52F64066012E5F9
:1005DD002D64046003020675E52F640260030206B4
:1005ED0075D209E52FB40604C2088007E52FB402C1
:1005FD0002D208900056E52CF02008047D078002F9
:10060D007D00900057EDF0A3E52EF02008047D0548
:10061D0080027D03900059EDF0E490005A12124EC5
:10062D00A312124E900056121256C083C082E0FDE6
:10063D00900057E0FCF87401088002C333D8FC4DDC
:10064D00D082D083F0900058121256C083C082E041
:10065D00FD900059E0FCF87401088002C333D8FC0A
:10066D004DD082D083F0D205E52E33333354F84587
:10067D002FFDA20BE433FC2474F8A60574082C128C
:10068D0012467401F074162F12116E5407FFBF0439
:10069D0030A20BE43325E0FFE433FE740A2FF5821C
:1006AD0074003EF583E52DD394047E0040047F0154
:1006BD0080027F00E5822FF582E5833EF58374018C
:1006CD00F012119BE0FDE52E75F008A4FFE52FFB60
:1006DD00EF4B1211A5EDF012119BE4F07464252C73
:1006ED00F8C000AE2D1212228002C333D8FCF45F85
:1006FD00D000F67464252EF8C000AE2F12122280A1
:10070D0002C333D8FC4FD000F6200902B20B3009DA
:10071D005678007C007D017B007A0079647E007F35
:10072D0008120D11900056121261C083C082E0FFB5
:10073D00900057E0FEF87401088002C333D8FCF432
:10074D005FD082D083F0900058121261C083C082B6
:10075D00E0FF900059E0FEF87401088002C333D821
:10076D00FC4FD082D083F0300715750EAA750B03A0
:0F077D007509029000A3E55BF0A3E52BF0D20411
:01078C00224A
:080AE5008F348B358A36893706
:100AED00E4F53EF53FF540F541F542F543F544F5A6
:100AFD0045A801AC02AD037BFF7A1A79A0FE7F08F1
:100B0D00120D117416253412115CF53B1211CDE640
:100B1D00F53DE53B5407FF7003020C40E53B30E625
:100B2D0003D38001C39208A208300B01B350030216
:100B3D000C4020070BA208300A01B35003020C40F1
:100B4D00EF24FE601814601D1460221460211460DF
:100B5D002C2405702E12119212101C802612119247
:100B6D00121635801E12119212140780168006126D
:100B7D00119212140712119212152380061211925E
:100B8D00120D8FE4F538E4F539743E2538F8E6FD9D
:100B9D007C007E007401A839088005C333CE33CEA6
:100BAD00D8F9FFEE5CFEEF5D4E6070E53833333300
:100BBD0054F84539F53A12115AF53C1211D5E53B69
:100BCD00F0741625341211D9E4F0E53B5407FFBF3C
:100BDD0006051211CDA63A1211CDE6FFA20BB39266
:100BED000912078D4020AB35E5372538F9E4353648
:100BFD00FA120D37FFAE39A8067401088002C3330F
:100C0D00D8FC4F120D7D741625341211D9E53BF029
:100C1D001211D5E53CF01211CDA63D0539E539C3CC
:100C2D0094085003020B960538E538C39408500319
:030C3D00020B9314
:010C40002291
:08101C008F468B478A48894981
:10102400E546131313541FFFE5465407F54B741696
:10103400254612115C5440F54A30E6087550017596
:101044004F0180067550FF754F06E5503333335416
:10105400F8F551E5502FF54DC39408506CE54DC398
:1010640094004065E5462551F54C12115A54077019
:10107400581211B0FEAD4BA8057401088002C333A9
:10108400D8FC4E120D7DE551254CF54CEF654F70A3
:10109400387416254C12115C5407702DAF50EF3381
:1010A40095E0FEE54D2FFFE43EFEAB47E5492FF901
:1010B400E5483EFA120D37FFAE4BA80674010880CE
:1010C40002C333D8FC4F120D7DE54BD39400403A54
:1010D400E54D94004034E54D9408502EE5462551E5
:1010E40014F54C12115AF54E5407601EE54E544047
:1010F400654A60161211B0FFE54B14FEF87401083E
:101104008002C333D8FC4F120D7DE54BC3940750C6
:101114003BE54DC394004034E54D9408502EE5461C
:10112400255104F54C12115AF54E5407601EE54E34
:101134005440654A60161211B0FFE54B04FEF87482
:0C11440001088002C333D8FC4F120D7D5F
:01115000227C
:060D8F008B468A478948EB
:100D950074162F12115C5440F5491211E9F54AEF0A
:100DA5005407F54BE54960047F0180027F008F4CB5
:100DB500E4FFEF9019D893254AFEEF9019E09325AB
:100DC5004B12122A404AEE648094885043C3ED6466
:100DD500809480403BED648094885034EE33333307
:100DE50054F82D12115AFC54076007EC544065491C
:100DF500601EAB46EEF5823395E0F583E548258226
:100E0500F9E5471212328002C333D8FC4E120D7D2C
:100E15000FEF6408709C7408254C121246E06003BD
:100E2500020ED6E54C25E0240AF582E43400F5836C
:100E3500E0703C1211E1AD4B7C00ED2401FBEC337D
:100E4500121167540770281211E1ED2402FDEC33ED
:100E550045F0FEED12116B540770141211F02402C7
:100E6500FEF87401088002C333D8FC4F120D7DE5EE
:100E75004C25E0240BF582E43400F583E070521232
:100E850011E1AD4B7C00ED24FFFBEC12116554071D
:100E9500703F1211E1ED24FEFDEC34FF45F0FEED4F
:100EA50012116B5407702A1211E1E54B24FDFDEC7C
:100EB50034FF45F0FEED12116B540770141211F05A
:100EC50024FEFEF87401088002C333D8FC4F120DCE
:010ED5007D9F
:010ED60022F9
:061523008B468A4789484F
:1015290074162F12115C5440F5491211E9F54CEF6C
:101539005407F54DE4FF854C4BAE4DEF9019E893F8
:10154900254BF54BEF9019EC932EFEC3E54B6480C8
:1015590094804049E54B64809488504112122B4095
:101569003CEE648094885035E54B33333354F82E80
:1015790012115AF54A5407700F1211778002C333BA
:10158900D8FC4D120D7D80B3E54A54406549600D84
:101599001211778002C333D8FC4D120D7D0FEF6411
:0315A90004709338
:0115AC00221C
:061407008B468A4789486C
:10140D0074162F12115C5440F5491211E9F54CEF89
:10141D005407F54DE4FF854C4BAE4DEF9019F0930D
:10142D00254BF54BEF9019F4932EFEC3E54B6480DD
:10143D009480404FE54B64809488504712122B40A6
:10144D0042EE64809488503BE54B33333354F82E91
:10145D0012115AF54A540770121212021211868097
:10146D0002C333D8FC4D120D7D80B0E54A54406562
:10147D004960101212021211868002C333D8FC4D3E
:09148D00120D7D0FEF6404708D57
:011496002233
:061635008B468A4789483C
:10163B0074162F12115C5440F5491211E9F54AEF5B
:10164B005407F54BE4FFEF9019F893254AFEEF9002
:10165B001A0093254B12122A404AEE64809488504C
:10166B0043C3ED64809480403BED64809488503498
:10167B00EE33333354F82D12115AFC54076007EC38
:10168B0054406549601EAB46EEF5823395E0F58319
:10169B00E5482582F9E5471212328002C333D8FCA4
:0A16AB004E120D7D0FEF6408709CD5
:0116B5002212
:10078D001211E9F546EF5407F5473009047FFF8054
:10079D00027F018F48EF3395E0FEE5462FFFE43EE3
:1007AD00FEC3648094804060EF9408EE6480948072
:1007BD005056E5479400402412121224FFFBE41218
:1007CD001165FD5407FFBF0113ED30E6047F018075
:1007DD00027F00A209E433B50702D322E547C39493
:1007ED000750251212122401FBE433121167FD5438
:1007FD0007FFBF0113ED30E6047F0180027F00A2E9
:10080D0009E433B50702D322E4FFEF9019F8939072
:10081D001A001211BE4030E96480948850291212DA
:10082D003F4024EC64809488501D121151FD5407F3
:10083D00FEBE0213ED30E6047E0180027E00A209A9
:10084D00E433B50602D3220FEF640870BDE4FFA9AF
:10085D0046AC47EF9019E89329F9EF9019EC932CDA
:10086D001211C5403CE964809488503512123F4006
:10087D0030EC648094885029121151FD5407FE60AC
:10088D00D2ED30E6047B0180027B00A209E433B592
:10089D00030F8E4AE54A64046005E54AB40502D3A8
:1008AD00220FEF640470A8E4FFA946AC47EF90193E
:1008BD00F09329F9EF9019F4932C1211C5403CE9EE
:1008CD0064809488503512123F4030EC64809488D7
:1008DD005029121151FD5407FE60D2ED30E6047B14
:1008ED000180027B00A209E433B5030F8E4AE54A6D
:1008FD0064036005E54AB40502D3220FEF6404706A
:10090D00A8E4FFEF9019D8939019E01211BE403072
:10091D00E964809488502912123F4024EC6480943D
:10092D0088501D121151FD5407FEBE0613ED30E621
:10093D00047E0180027E00A209E433B50602D322B3
:07094D000FEF640870BDC349
:010954002280
:1015AD001211CDE6FF7B007A00792CD207120AE5E5
:1015BD00E4FF742C2FF8E66002C3220FBF08F3E49A
:1015CD00F52B7416252B12115CFE603930E6047E66
:1015DD000180027E00A20BE4336E70297416252B58
:1015ED0012115C54076406601C7B007A00792CD2C2
:1015FD0007AF2B120AE5E4FF742C2FF8E66002C347
:10160D00220FBF08F3052BE52BC3944040B4E4F53E
:10161D001AA20B332474F8E6FFA20BB3920912073A
:07162D008D5003751A01D373
:011634002293
:1014A300020026E493A3F8E493A34003F68001F239
:1014B30008DFF48029E493A3F85407240CC8C3334A
:1014C300C4540F4420C8834004F456800146F6DF19
:1014D300E4800B01020408102040809017EDE47EA5
:1014E300019360BCA3FF543F30E509541FFEE4930E
:1014F300A360010ECF54C025E060A840B8E493A3D5
:10150300FAE493A3F8E493A3C8C582C8CAC583CAFF
:10151300F0A3C8C582C8CAC583CADFE9DEE780BEB7
:01183C0000AB
:100C4100E709F608DFFA8046E709F208DFFA803E95
:100C510088828C83E709F0A3DFFA8032E309F60882
:100C6100DFFA8078E309F208DFFA807088828C83EA
:100C7100E309F0A3DFFA806489828A83E0A3F6089E
:100C8100DFFA805889828A83E0A3F208DFFA804C78
:100C910080D280FA80C680D4806980F2803380104F
:100CA10080A680EA809A80A880DA80E280CA8033B8
:100CB10089828A83ECFAE493A3C8C582C8CCC58330
:100CC100CCF0A3C8C582C8CCC583CCDFE9DEE78000
:100CD1000D89828A83E493A3F608DFF9ECFAA9F07F
:100CE100EDFB2289828A83ECFAE0A3C8C582C8CCD5
:100CF100C583CCF0A3C8C582C8CCC583CCDFEADEEE
:100D0100E880DB89828A83E493A3F208DFF980CC4F
:100D110088F0EF60010E4E60C388F0ED2402B40448
:100D21000050B9F582EB2402B4040050AF232345EF
:060D31008223900C917377
:100D3700BB010689828A83E0225002E722BBFE02BA
:090D4700E32289828A83E49322ED
:100D5000BB010CE58229F582E5833AF583E0225058
:100D600006E92582F8E622BBFE06E92582F8E222A2
:0D0D7000E58229F582E5833AF583E49322BC
:100D7D00BB010689828A83F0225002F722BBFE0155
:020D8D00F3224F
:00000001FF
