:0300000002102FBC
:0C102F00787FE4F6D8FD7581720210761F
:0B0D3600C188011200010F0001110034
:100026001213647590D87B017A0079041210BBD242
:1000360009C20775110AE511D3940040021511E5AE
:100046001214603E1470030200DF147003020209EA
:100056001470030206201470030206372405600399
:1000660002065130080BC2087B017A00790812108B
:10007600BB200403020651D20875110A751201024B
:100086000651300813300510C208C2057B017A00FC
:10009600795B1210BB751102E5116003020651125D
:1000A60012154003020203755D01755E00755F114E
:1000B6007B017A00795B12130E920A200A03020270
:1000C6000378157C007D017B017A0079117E007F23
:1000D60004120A89D2080203F430080EC2087B0112
:1000E6007A0079041210BB75110230050EC2057B29
:1000F600017A00792F1210BB751102E51160030217
:1001060006511212154003020203755D01755E0069
:10011600755F117B017A00791512130E920A200A77
:1001260008D2087512030206517B017A007904127F
:1001360010BBE50F146003020203755C01755D00D8
:10014600755E117B017A0079151211B690000DE0EB
:10015600FF1213A27E00C006C00790000CE0FF123B
:1001660013A2EFFDD0E02DFFD0E03400FEC006C0A4
:100176000790000EE0FF1213A2EFFDD0E02DFFD096
:10018600E03400FEC006C00790000FE0FF1213A285
:10019600EFFDD0E02DFFD0E034004F706090001AE4
:1001A600E0FF1213A27E00C006C007900019E0FF10
:1001B6001213A2EFFDD0E02DFFD0E03400FEC00602
:1001C600C00790001BE0FF1213A2EFFDD0E02DFF49
:1001D600D0E03400FEC006C00790001CE0FF1213FA
:1001E600A2EFFDD0E02DFFD0E034004F700FF50FE9
:1001F600900010F07B017A0079041210BB75110291
:10020600020651300802C208755C01755D00755E14
:10021600117B017A0079151211B6E50F14700302ED
:08022600034E046003020651BF
:10022E0090000DE0FF1213A27E00C006C0079000E2
:10023E000CE0FF1213A2EFFDD0E02DFFD0E0340052
:10024E00FEC006C00790000EE0FF1213A2EFFDD015
:10025E00E02DFFD0E03400FEC006C00790000FE096
:10026E00FF1213A2EFFDD0E02DFFD0E03400FEEF21
:10027E0064014E600302034890001AE0FF1213A2BD
:10028E007E00C006C007900019E0FF1213A2EFFD1A
:10029E00D0E02DFFD0E03400FEC006C00790001B5A
:1002AE00E0FF1213A2EFFDD0E02DFFD0E03400FEF0
:1002BE00C006C00790001CE0FF1213A2EFFDD0E0B5
:0902CE002DFFD0E034004F7071E7
:1002D700C200750F01751202D208F55230000302F1
:1002E7000651E4F553740C2552F582E43400F58386
:1002F700E0FFAE53A806088002C313D8FC30E02CF9
:10030700E55225E025E02553FF12081D782F7C00D4
:100317007D017E007F04120A89E4900010F0E55207
:10032700C454F04553F0D205D20080090553E55374
:10033700C3940440B00552E552C39404409E02069C
:010347005164
:1003480075120402065190000DE0FF1213A27E0000
:10035800C006C00790000CE0FF1213A2EFFDD0E02A
:100368002DFFD0E03400FEC006C00790000EE0FF6D
:100378001213A2EFFDD0E02DFFD0E03400FEC0063E
:10038800C00790000FE0FF1213A2EFFDD0E02DFF91
:10039800D0E03400FEEF64014E705790001AE0FF81
:1003A8001213A27E00C006C007900019E0FF1213C6
:1003B800A2EFFDD0E02DFFD0E03400FEC006C0075C
:1003C80090001BE0FF1213A2EFFDD0E02DFFD0E05C
:1003D8003400FEC006C00790001CE0FF1213A2EF15
:1003E800FDD0E02DFFD0E034004F700675120202F8
:1003F800065190000DE0FF1213A27E00C006C00750
:1004080090000CE0FF1213A2EFFDD0E02DFFD0E02A
:100418003400FEC006C00790000EE0FF1213A2EFE2
:10042800FDD0E02DFFD0E03400FEC006C0079000EC
:100438000FE0FF1213A2EFFDD0E02DFFD0E0340053
:10044800FEEF64014E600302065190001AE0FF12AD
:1004580013A27E00C006C007900019E0FF1213A285
:10046800EFFDD0E02DFFD0E03400FEC006C00790BD
:10047800001BE0FF1213A2EFFDD0E02DFFD0E03407
:1004880000FEC006C00790001CE0FF1213A2EFFD9B
:10049800D0E02DFFD0E03400FEEF64014E6003028F
:0204A8000651FB
:1004AA00F554C200F552742F2552F582E43400F552
:1004BA0083E0FF74192552F582E43400F583E05F86
:1004CA006032E4F55374192552F582E43400F58359
:1004DA00E0FFAE53A806088002C313D8FC20E00749
:1004EA000553E553B404DEE552C454F04553F554BC
:1004FA00D20080070552E552B404AB20000B7512F6
:10050A00047F491212A9020651900010E0FFC45458
:10051A000FF555EF540FF556E554C4540FF557E54A
:10052A0054540FF55875F004E555A42556F582E4A0
:10053A0035F0F583E582241DF582E5833400F583E1
:10054A00E05407FFBF0618E55725E025E04558FFA8
:10055A00A209E433242DF582E43400F583EFF07523
:10056A00F004E555A42556F582E435F0F583E582D5
:10057A00241DF582E5833400F583E0FF75F004E578
:10058A0057A42558F582E435F0F583E582241DF554
:10059A0082E5833400F583EFF075F004E555A42570
:1005AA0056F582E435F0F583E582241DF582E5836C
:1005BA003400F583E4F074152555F582E43400F52A
:1005CA0083E0FFAE56A8067401088002C333D8FC44
:1005DA00F45FF074152557F582E43400F583E0FFE3
:1005EA00AE58A8067401088002C333D8FC4FF0B293
:1005FA0009E4F50F751202782F7C007D017B017AE0
:10060A00007904FE7F04120A89D207900010E0F5EF
:06061A001085540E803132
:1006200030080BC2087B017A0079081210BBE51173
:10063000701F751205801530080BC2087B017A0007
:1006400079041210BBE511700875120475110AD2F5
:1006500008300711C2077F4D1212A9AF101212A95C
:0F066000AF0E1212A97F0A7E0012137A02003C1D
:0A0D41004100590041005A00C10BA7
:1013640053890F438920D28E758DFF75985043871A
:0613740080D2ACD2AF22D2
:1012A900900059E02451F582E43400F583EFF09081
:1012B9000059E0045407F0200B1AD20BC299A3E09D
:1012C9002451F582E43400F583E0F59990005AE061
:0512D900045407F0229F
:10000300AD07AC068D828C83E49360100DED700117
:0D0013000C14F582E493FF1212A980E8227C
:100D4B005200333F065B4F666D7D077F6F777C39B3
:050D5B005E79713D7698
:0513EB001213F0D2B462
:0213F0000022D9
:0F13B300D2B5D2B41213F0C2B51213F0C2B422E5
:0D13C200C2B41213F0C2B51213EBD2B52263
:09133E00F582E43400F583E0FFC0
:10134700E4FEC2B4EF1392B51213EBEFC313FF0E13
:0C135700BE08EFC2B4D2B51213EBC2B452
:011363002267
:0913DA001213B31213470213C2EF
:1012DE00AC077F401213DA1213B37FC01213477498
:1012EE00332C12133E74332D12133E74332B121300
:1012FE003E7433251612133E1213C27F8F0213DA79
:10138F00438901758CFC758A67C28DD28C308DFDB7
:03139F00C28C22DB
:10137A00E4FDFCC3ED9FEC9E500A12138F0DBD00D5
:04138A00010C80EFE3
:01138E00223C
:1013A200E4FE53070FEF60061452070E80F7AF06F4
:0113B2002218
:0413F20000000000F7
:061271008B088A09890ABE
:10127700E4FFAB0BAA0CA90D8F82758300120AC875
:10128700FEAB08AA09A90A8F82758300120AC86EE5
:10129700FE74002FF582E43400F583EEF00FBF04EF
:0112A700D175
:0112A8002223
:0611B6008B598A5A895B87
:1011BC00E4FFAB5CAA5DA95E8F82758300120AC83E
:1011CC00F4FEAB59AA5AA95B8F82758300120AC828
:1011DC005EFE740C2FF582E43400F583EEF08F8202
:1011EC00758300120AC8F4FEAB5CAA5DA95E8F82FF
:1011FC00758300120AC85EFE74192FF582E4340060
:08120C00F583EEF00FBF04AA08
:0112140022B7
:10121500755903AF591559EF605012114778457C40
:10122500007D017E007F04120A897F057E0012136E
:101235007A12114778497C007D017E007F04120AED
:1012450089755D01755E00755F497B017A00794599
:1012550012130E50BE78117C007D017B017A007956
:0B126500457E007F04120A89D322C3DB
:01127000225B
:10114700784D7C007D017BFF7A1379F27E007F0466
:10115700120A89D297C2961213F0D2961213E3C2DB
:1011670097E4F55AE4F55BA294E433FF530701745F
:101177004D255BF582E43400F583E0FEEF70047FD4
:101187000180027F00AD5AA805EF088002C333D85B
:10119700FC4EF01213E3055BE55BC3940440C805FE
:0E11A7005AE55AC3940440BC7B017A00794D8E
:0111B5002217
:1010BB00120AAFF55A900001120AC8F55B900002B4
:1010CB00120AC8F55C900003120AC8F55DC29312B0
:0E10DB0013D2D2937F017E0012137AE4F559EE
:1010E900C374039559F55EFFF8E55D088002C313E3
:1010F900D8FC1213CFAF5EA807E55C088002C313C2
:10110900D8FC1213CFAF5EA807E55B088002C313B2
:10111900D8FC1392901213D2AF5EA807E55A088043
:0B11290002C313D8FC1392901213D2E3
:101134000559E559C3940440ACC292D2921213F0FB
:02114400C29255
:011146002286
:0313CF00139290E6
:0813D200D2911213F0C2912226
:0813E300D2951213F0C295220D
:100D60004400111F1B041F440015FFFFFFFF440038
:100D7000000000000044000C0000000044001900C6
:100D800000000044002F00000000440004000000A8
:100D900000440008FFFFFFFFC10AC18942002D0087
:100DA0000050001D000000000000000000000000D6
:080DB0000000000041001000EA
:06130E008B5A8A5B895C2A
:10131400E4FFAB5DAA5EA95F8F82758300120AC8E1
:10132400FEAB5AAA5BA95C8F82758300120AC86E51
:091334006002C3220FBF04DAD3EA
:01133D00228D
:100DB800C106C105C10441005F0041006000011780
:080DC8000044005B0000000084
:03002300020B07C6
:100B0700C0E0C0F0C083C082C0D075D000C000C0B4
:100B170001C002C003C004C005C006C00720980377
:030B2700020C0EAF
:100B2A00859970C298E51714601B147003020C03B0
:100B3A0024026003020C38E57064236003020C3857
:0D0B4A00D204020C09E5705407FFBF061F1E
:100B5700E57030E603D38001C39203900060E0FFA5
:0F0B6700A203E433242DF582E43400F583EFF08C
:100B7600900060E0FF04F0741D2FF582E43400F568
:0F0B860083E570F0900060E064106003020C38AB
:100B9500785B7C007D017B017A007904FE7F04127D
:100BA5000A8975710075720075F004E571A42572E6
:100BB500F582E435F0F583E582241DF582E583347D
:100BC50000F583E05407601C745B2571F582E434FD
:100BD50000F583E0FFAE72A8067401088002C333F6
:100BE500D8FC4FF00572E572B404BD0571E571B42A
:0C0BF50004B3900060E4F0751702D20514
:0D0C01008035E570642A702F751701802A78
:100C0E00309927C299900059E0FF90005AE06F602A
:100C1E0017E02451F582E43400F583E0F599900055
:100C2E005AE0045407F08002C20BD007D006D0055C
:100C3E00D004D003D002D001D000D0D0D082D08347
:050C4E00D0F0D0E032FF
:100DD0000842FFFFFF0000010101083AFF0001FF88
:100DE00001FF0001044EFF010000044A0000FF0162
:100DF0000436FFFF0101042AFF01FF01082EFEFE59
:100E0000FFFF010102020822FF01FE02FE02FF01B4
:02081D008F59F1
:10081F0078607C007D007B017A0079047E007F0484
:10082F00120A8978647C007D007B017A0079047E4E
:10083F00007F04120A89741D2559F582E43400F5EE
:10084F0083E0F55DA209E433242DF582E43400F54D
:10085F0083E0F55FE55D5407FF7004FB0209B4E523
:10086F005D30E603D38001C39201A201300901B3C9
:10087F0050057B000209B4EF24FD601A14601C14AC
:10088F00601B1460282404702F7B007A007960AFFE
:10089F0059120EEC8022120C53801D8003120C5340
:1008AF007B007A007960AF59120E11800B7B007AB2
:1008BF00007960AF59120F94E4F55AE4F55B746058
:1008CF00255AF8E6FD7C007E007401A85B088005C0
:1008DF00C333CE33CED8F9FFEE5CFEEF5D4E70031F
:1008EF0002099AE55A25E025E0455BF55C241DF5E4
:1008FF0082E43400F583E0F55E741D255CF582E437
:10090F003400F583E55DF0741D2559F582E434005C
:10091F00F583E4F0E55D5407FFBF0610A209E43349
:10092F00242DF582E43400F583E55CF0A209E4336D
:10093F00242DF582E43400F583E0FFA209B392027F
:10094F0012066F401A7464255AF8C000E6FFAE5BBA
:10095F00A8067401088002C333D8FC4FD000F67488
:10096F001D2559F582E43400F583E55DF0741D25EE
:10097F005CF582E43400F583E55EF0A209E43324EC
:10098F002DF582E43400F583E55FF0055BE55BC38D
:10099F00940450030208CD055AE55AC3940450033A
:0909AF000208CA7B007A00796499
:0109B800221C
:060F94008B688A69896A7E
:100F9A00741D2FF582E43400F583E05440F56BEFBD
:100FAA001313543FF56CEF5403F56DE4FF74422FAD
:100FBA00F8E6256CFE743A2FF8E6256DFDC3EE645B
:100FCA008094804059EE648094845052C3ED6480CA
:100FDA009480404AED648094845043EE25E025E0F5
:100FEA002D241DF582E43400F583E0FC54076007E4
:100FFA00EC5440656B6027AB68EEF5823395E0F5FB
:10100A0083E56A2582F9E5693583FA120AAFFEA8F3
:10101A00057401088002C333D8FC4E120AF50FEF9B
:04102A00640870895D
:01102E00229F
:060E11008B688A69896A02
:100E1700741D2FF582E43400F583E05440F56BEF41
:100E27001313543FF56EEF5403F56FE4FF856E6DB2
:100E3700AE6F744E2FF8E6256DF56D744A2FF8E600
:100E47002EFEC3E56D648094805003020EE2E56DCB
:100E5700648094844003020EE2C3EE648094804071
:100E67007AEE64809484507375F004E56DA42EF5D2
:100E770082E435F0F583E582241DF582E5833400AD
:100E8700F583E0F56C54077026AB68AD6DED3395CF
:100E9700E0FCE56A2DF9E5693CFA120AAFFDA80600
:100EA7007401088002C333D8FC4D120AF58083E52C
:100EB7006C5440656B6024AB68AD6DED3395E0FC19
:100EC700E56A2DF9E5693CFA120AAFFDA806740137
:100ED700088002C333D8FC4D120AF50FEF64046093
:040EE70003020E34C0
:010EEB0022E4
:080C53007B007A007960AF59C3
:060C5B008B688A69896ABA
:100C6100741D2FF582E43400F583E05440F56BEFF9
:100C71001313543FF56EEF5403F56FE4FF856E6D6A
:100C8100AE6F74362FF8E6256DF56D742A2FF8E6F0
:100C91002EFEC3E56D648094805003020D2CE56D3A
:100CA100648094844003020D2CC3EE6480948040E0
:100CB1007AEE64809484507375F004E56DA42EF58A
:100CC10082E435F0F583E582241DF582E583340065
:100CD100F583E0F56C54077026AB68AD6DED339587
:100CE100E0FCE56A2DF9E5693CFA120AAFFDA806B8
:100CF1007401088002C333D8FC4D120AF58083E5E4
:100D01006C5440656B6024AB68AD6DED3395E0FCD0
:100D1100E56A2DF9E5693CFA120AAFFDA8067401EE
:100D2100088002C333D8FC4D120AF50FEF6404604A
:040D310003020C7E2F
:010D3500229B
:060EEC008B688A69896A27
:100EF200741D2FF582E43400F583E05440F56BEF66
:100F02001313543FF56CEF5403F56DE4FF742E2F69
:100F1200F8E6256CFE74222FF8E6256DFDC3EE641B
:100F22008094804063EE64809484505CC3ED64805E
:100F320094804054ED64809484504D75F004EEA486
:100F42002DF582E435F0F583E582241DF582E583F3
:100F52003400F583E0FC54076007EC5440656B6095
:100F620027AB68EEF5823395E0F583E56A2582F9D1
:100F7200E5693583FA120AAFFEA8057401088002FA
:100F8200C333D8FC4E120AF50FEF64086003020F58
:010F92000F4F
:010F9300223B
:10066F00EF1313543FF568EF5403F569E4FF742E4D
:10067F002FF8E62568FD74222FF8E62569FEC3EDF5
:10068F00648094804041ED64809484503AC3EE645A
:10069F008094804032EE64809484502BED25E025C9
:1006AF00E04EF9241DF582E43400F583E0FC540795
:1006BF00FBBB0213EC30E6047B0180027B00A2023D
:1006CF00E433B50302D3220FEF640870A1E4FFAD4A
:1006DF0068AE69744E2FF8E62DFD744A2FF8E62E9A
:1006EF00FEC3ED64809480404DED64809484504649
:1006FF00C3EE64809480403EEE648094845037ED66
:10070F0025E025E04EF9241DF582E43400F583E061
:10071F00FC540760BEEC30E6047B0180027B00A234
:10072F0002E433B50310EC5407F56A64046005E581
:10073F006AB40502D3220FEF64047093E4FFAD682F
:10074F00AE6974362FF8E62DFD742A2FF8E62EFECB
:10075F00C3ED64809480404DED648094845046C313
:10076F00EE64809480403EEE648094845037ED2593
:10077F00E025E04EF9241DF582E43400F583E0FC1A
:10078F00540760BEEC30E6047B0180027B00A202BE
:10079F00E433B50310EC5407F56A64036005E56AAA
:1007AF00B40502D3220FEF64047093E4FF74422F59
:1007BF00F8E62568FD743A2FF8E62569FEC3ED6467
:1007CF008094804041ED64809484503AC3EE6480FD
:1007DF0094804032EE64809484502BED25E025E028
:1007EF004EF9241DF582E43400F583E0FC5407FB39
:1007FF00BB0613EC30E6047B0180027B00A202E40F
:0D080F0033B50302D3220FEF640870A1C3BC
:01081C0022B9
:10103B00020026E493A3F8E493A34003F68001F2A5
:10104B0008DFF48029E493A3F85407240CC8C333B6
:10105B00C4540F4420C8834004F456800146F6DF85
:10106B00E4800B0102040810204080900D36E47ED2
:10107B00019360BCA3FF543F30E509541FFEE4937A
:10108B00A360010ECF54C025E060A840B8E493A341
:10109B00FAE493A3F8E493A3C8C582C8CAC583CA6C
:1010AB00F0A3C8C582C8CAC583CADFE9DEE780BE24
:010E100000E1
:1009B900E709F608DFFA8046E709F208DFFA803E20
:1009C90088828C83E709F0A3DFFA8032E309F6080D
:1009D900DFFA8078E309F208DFFA807088828C8375
:1009E900E309F0A3DFFA806489828A83E0A3F60829
:1009F900DFFA805889828A83E0A3F208DFFA804C03
:100A090080D280FA80C680D4806980F280338010D9
:100A190080A680EA809A80A880DA80E280CA803342
:100A290089828A83ECFAE493A3C8C582C8CCC583BA
:100A3900CCF0A3C8C582C8CCC583CCDFE9DEE7808A
:100A49000D89828A83E493A3F608DFF9ECFAA9F009
:100A5900EDFB2289828A83ECFAE0A3C8C582C8CC5F
:100A6900C583CCF0A3C8C582C8CCC583CCDFEADE78
:100A7900E880DB89828A83E493A3F208DFF980CCDA
:100A890088F0EF60010E4E60C388F0ED2402B404D3
:100A99000050B9F582EB2402B4040050AF2323457A
:060AA9008223900A09738C
:100AAF00BB010689828A83E0225002E722BBFE0245
:090ABF00E32289828A83E4932278
:100AC800BB010CE58229F582E5833AF583E02250E3
:100AD80006E92582F8E622BBFE06E92582F8E2222D
:0D0AE800E58229F582E5833AF583E4932247
:100AF500BB010689828A83F0225002F722BBFE01E0
:020B0500F322D9
:00000001FF
