:0300000002101CCF
:0C101C00787FE4F6D8FD75815A0210635D
:0E13AB00C18D01580001560001550001570088
:100D5300E516540F93FFE515540F932FFFEC33FE65
:100D6300E517540F932FFFEC3EFEE518540F932F16
:100D7300FFEC22E509540F90162193FFE508540F69
:100D8300932FFFE433FEE50A540F937C002FFFEC0F
:100D93003EFEE50B22FBEF4B240EF582740035F08B
:100DA300F5832274082522AE23F8E6FFA80608225D
:100DB300FF240EF58274003EF583E022752E007544
:100DC3002F0075300D7B007A00791122AE26E6FFE5
:100DD300A80674010822FDA20BE4332419F8223E6D
:100DE300FEEF64014E22755806E4F556F51BF51C1B
:100DF300F51DF51E2275F004A4FFAEF0EF22E522E7
:100E030025E025E045232275F004A4FFEF22E50C3D
:100E13001313543F2278117C00020933E6FFE526C1
:100E23005403FEF8740108222529F8E6FFAE2AA828
:100E33000608227B017A0079222275370075380073
:0E0E430075390D22E5261313543F2422F822A0
:100026001215BC7590D81206F0D20B75570A30031C
:1000360003120AFD3004031213F7300529C2AFC2BA
:1000460005D2AF90001FE0240AFF90001EE004FDD9
:10005600900021E0240AFB900020E004F52E121403
:10006600F6755804D20DE557D3940040021557E5AE
:1000760058B408004003020670900086F8282873DA
:1000860002009E0200B502019102020A0200EB0282
:1000960005B002060C02065E300D031207042001AD
:1000A60003020670D20D75570A75580102067030A4
:1000B6000D18200203020670C20DC2027D00120E48
:1000C600367E007F04120E188020E5576003020674
:1000D6007012143F400280271206DB200C02801F9C
:1000E600D20D020426300D0BC20D120E36120F8FE2
:1000F600020204E557600302067012143F40030231
:100106000204120E3D7B017A00790012155C920CF6
:03011600300C7535
:1001190090001EE0F522A3E0F523A3E0F524A3E077
:10012900F525E522120DF84523120DB35407FDBD3F
:10013900060DE52425E025E04525120DD9A605740F
:100149000E2F120DB6FDE52475F004A4FFE5251266
:100159000D98EDF0E522120E0A4523120D9BE4F0ED
:10016900FD7B017A007900FE7F04120E18B20B1292
:1001790006F01212BD5003020589755802E4F556BE
:05018900D20D0206701A
:10018E00020204300D061206A575570230020BC28C
:10019E0002120E36120F8F755702E55760030206D4
:1001AE007012143F40030202041206DB200C08D228
:1001BE000D7558030206701206FAE55614703712C2
:1001CE000DBF12067A3E4F702D120D533E4F702604
:1001DE00120E11F522E50C5403F523740D120DA821
:1001EE008002C313D8FC30E00AE4F556F50C120673
:0601FE00FA8003120DE976
:10020400755702020670300D02C20D120DBF121591
:1002140029E5561470030202A5147003020429246C
:100224000260030205AA120D76120D6F120DE27020
:080234006A120D533E4F706386
:10023C00C206755601755802D20DF522300603021E
:10024C000670E4F523120DA68002C313D8FC30E02F
:10025C002D120E01FF7B007A00791BC207120710CA
:10026C0078227C007D017B007A00791B7E007F0464
:10027C00120933120E01F50CD202D20680090523A5
:10028C00E523C3940440BE0522E522C3940440AC8C
:03029C00020670E7
:10029F00755806020670120D76120D6F120DE27070
:1002AF000A120D533E4F7003020426120D76120DE3
:1002BF006F3EFEEF64024E706C120D533E4F706531
:1002CF00C206F522E4F523120DA68002C313D8FC53
:1002DF0030E022120E11FFE50C54034FFF120E01F6
:1002EF006F6012741B120DA88002C313D8FC30E08C
:1002FF0004D20680070523E523B404CB20060705A7
:10030F0022E522B404BE2006030205AA780A7C0067
:10031F007D017B007A00790D7E007F041209337511
:05032F0056020205A2C8
:10033400120D76120D6F120DE26003020426120DE7
:0903440053120DE26003020426CD
:10034D00F522C206F523741B2523F8E6FF74152547
:10035D0023F8E65F602AE4F52474152523AE2412F4
:10036D000DAC8002C313D8FC20E0070524E524B4AE
:10037D0004E7E52325E025E04524F522D206800794
:10038D000523E523B404BF2006030205AA120E11AE
:10039D00F525E50C5403F526E5221313543FF527F7
:1003AD00E5225403F528E525120DF84526120DB367
:1003BD005407FDBD060DE52725E025E04528120D66
:1003CD00D9A605740E2F120DB6FDE52775F004A400
:1003DD00FFE528120D98EDF0E525120E0A452612BF
:1003ED000D9BE4F074112525F8C000120DCF80028D
:1003FD00C333D8FCF45FD000F674112527F8C00084
:10040D00AE28120DD18002C333D8FC4FD000120696
:09041D00B14003020670020589DA
:100426000205A2752E00752F0075300D7B017A002E
:10043600790A12067A3E4F6003020591120D531295
:070446000DE26003020591C5
:10044D00C206F529741B2529F8E6FF74152529F830
:10045D00E65F6029E4F52A7415120E2B8002C31392
:10046D00D8FC30E00EE52925E025E0452AF522D21D
:10047D00068007052AE52AB404DD2006070529E5CF
:10048D0029B404C02006030205AA120E11F523E5B6
:10049D000C5403F524E5221313543FF525E522549E
:1004AD0003F526E4F529E4F52A7408120E2B8002D3
:1004BD00C313D8FC30E01CE52325E025E04524FFDF
:1004CD00E52925E025E0452A6F6008852927852A3D
:1004DD00288007052AE52AB404CF0529E529B404A7
:1004ED00C5E523120DF84524120DB35407FDBD06C5
:1004FD000DE52525E025E04526120DD9A605740E3E
:10050D002F120DB6FDE52575F004A4FFE526120D9D
:10051D0098EDF0E523120E0A4524120D9BE4F0E54B
:10052D0027120E0A4528120D9BE4F074112523F8AD
:10053D00C000E6FFAE24A8067401088002C333D8BC
:10054D00FCF45FD000F674112527F8C000E6FFAE6D
:10055D0028A8067401088002C333D8FCF45FD000CC
:10056D00F674112525F8C000120DCF8002C333D8C3
:10057D00FC4FD0001206B14003020670755805D22B
:04058D000D020670E5
:10059100120D76120D6F3E4F700D120D533E4F70BE
:1005A100067558020206708000120DE902067020DD
:0505B1000D03020670BD
:1005B600C20D120DDAE6F526E51FB4011AE4F5229E
:1005C600F523F524F525120E47C000120E1F8002F2
:1005D600C333D8FC4F8020E51F701F7522FF75239B
:1005E600FF7524FF7525FF120E47C000120E1F80EF
:1005F60002C333D8FCF45FD000F67B007A00792280
:03060600120F8F41
:10060900020670300D051207040555E5577058E5C7
:1006190055C39406403AE4F55512143F5024120E7E
:100629003D120DC812155C920C300C16755802E477
:10063900F5567BFF7A167951120F8FD20D75570A2D
:100649008025120DC8120F8F755732E4F5558017A2
:10065900755807800D300D031206A5E5577008750A
:10066900580675570AD20D7F0A7E001215D202006C
:1006790034121529E509540F90162193FFE5085402
:100689000F932FFFE433FEE50A540F937C002FFFED
:10069900EC3EFEE50B540F932FFFEC22C20D7BFFBE
:1006A9007A167951120F8F22F6B20BE4F556755866
:1006B90002F51BF51CF51DF51E7551AA754E03753E
:1006C9004C02900037E50CF0A3E522F0D204121297
:1006D900BD2275370075380075390D7B007A0079B0
:1006E9001112155C920C227BFF7A167951120F8F29
:1006F900227BFF7A167951120F8F22C20D7BFF7A66
:07070900167955120F8F2233
:0813B900015900015A00C10EA8
:1015BC0053890F438920D28E758DFF7598504387C0
:0615CC0080D2ACD2AF2278
:1014C000E559045407FE655A602BAD59743C2DF55F
:1014D00082E43400F583EFF08E59200E18D20EAF5F
:1014E0005A743C2FF582E43400F583E0F599E55A0F
:0514F000045407F55A49
:0114F50022D4
:10160F003F065B4F666D7D077F6F777C395E797123
:02161F003D7616
:0B163D00D2B5D2B400C2B500C2B42286
:0C163100C2B400C2B500D2B400D2B52291
:10000300E4FEC2B4EF1392B500D2B400EFC313FF02
:0E0013000EBE08EEC2B4D2B500D2B400C2B424
:0100210022BC
:0916480012163D120003021631D6
:1014F600AC077F4012164812163D7FC0120003EC5F
:1015060090160F93FF120003ED93FF120003EB9367
:10151600FF120003E52E93FF1200031216317F8F90
:0315260002164862
:101621000001010201020203010202030203030499
:1015FC00438901758CFC758A67C28DD28C308DFD48
:03160C00C28C226B
:1015D200E4FDFCC3ED9FEC9E500A1215FC0DBD000C
:0415E200010C80EF89
:0115E60022E2
:1015E700AB2EAA2FA9308F827583000209727B0068
:0515F7007A00792B22AF
:061529008B2B8A2C892D9A
:10152F00E4FF1215E7F4FEAB2BAA2CA92D1215ED33
:10153F005EFE74082FF8A6061215EDF4FE1215E7DD
:0C154F005EFE74152FF8A6060FBF04D630
:01155B00226D
:10143F00753303AF331533EF60391215F512133AC5
:10144F007F057E001215D27B007A00792F12133A96
:10145F0075370075380075392F1215F512155C5058
:10146F00D2780D7C007D001215F57E007F041209E5
:04147F0033D322C37E
:011483002246
:06133A008B348A35893670
:10134000A801AC02AD037BFF7A1679517E007F04C1
:10135000120933D297C29600D29612165FC297E452
:10136000F537E4F538A294E433FF530701AB34E5D5
:10137000362538F9E43535FA120959FEEF70047F45
:101380000180027F00AD37A805EF088002C333D883
:10139000FC4E12099F12165F0538E538C3940440CD
:0A13A000C40537E537C3940440B8D4
:0113AA002220
:100F8F00120959F52C900001120972F52D900002EB
:100F9F00120972F52E900003120972F52FC29312E7
:0E0FAF001659D2937F017E001215D2E4F52B65
:100FBD00C37403952BF530FFF8E52F088002C3139A
:100FCD00D8FC121011E52E088002C313D8FC1210A4
:100FDD0011E52D088002C313D8FC139290121659F7
:100FED00AF30A807E52C088002C313D8FC139290EC
:030FFD0012165970
:10100000052BE52BC3940440B4C292D29200C29245
:0C10100022139290121659AF30A807224C
:06165900D29100C29122B3
:06165F00D29500C29522A5
:0816510000000000FFFFFFFF95
:1013C100C10CC18BC18A0219000044000600000053
:0913D100004200040000010C00C0
:06155C008B348A3589364C
:10156200E4FFAB37AA38A9398F827583001209725A
:10157200FEAB34AA35A9368F827583001209726ECA
:091582006002C3220FBF04DAD39A
:01158B00223D
:1013DA00C102C101C100C10544001E000000000194
:0913EA005200015400C103C104CA
:101484007426252BF582E43400F58322E090001FB6
:10149400FFE0FEF874010822E02422F582E434001F
:1014A400F58322E4900022F0A3F0A3F0A3F0F52B3F
:0C14B40022E02400F582E43400F58322DD
:03002300020E5179
:100E5100C0E0C083C082C0D075D000C00730986D9B
:100E610085994AC298E55414601A146023146036B7
:100E710014604E2404707BE54A64AA7075F54F75C1
:100E81005401806E854A4DE54A624F755402806275
:100E9100854A4B755300E54A624FE54BD3940040B8
:100EA1001B755403804CAF53055374262F121488BD
:100EB100E54AF0624FE553C3954B403675540480C3
:0D0EC10031E54AB54F02D20375540080257B
:100ECE00309922C299E55A65596018AF5A743C2F71
:100EDE00F582E43400F583E0F599E55A045407F5FC
:100EEE005A8002C20ED007D0D0D082D083D0E0324A
:100AFD00200303020C38C203E54D24FE6010147070
:100B0D0003020B9924026003020C38D20122E4F592
:010B1D002BAC
:100B1E00121484E0F52C740E252BF582E43400F5C6
:0A0B2E0083E52CF05407FFBF061406
:100B3800E52C30E603D38001C39207A207E43324EF
:040B480019F8A62BC7
:100B4C00052BE52BB410CB121484E024FF920A126F
:100B5C0014A7E4FFE52B25E025E02F240EF582E415
:100B6C003400F583E0540760167422252B12149F71
:100B7C00E0FEA8077401088002C333D8FC4EF00FC6
:100B8C00BF04D1052BE52BB404C8D202221214A742
:100B9C00121484E0FF741E252BF582E43400F583D7
:100BAC00EFF0052BE52BB404E790001E12149CC04B
:100BBC0083C0821214908002C333D8FC4FD082D0F1
:100BCC0083F090002012149CC083C082E09000211E
:100BDC001214948002C333D8FC4FD082D083F078A7
:100BEC00007C007D017B007A0079117E007F04126D
:100BFC00093390001E1214B5C083C0821214908069
:100C0C0002C333D8FCF45FD082D083F09000201262
:100C1C0014B5C083C082E0FF9000211214958002AD
:0C0C2C00C333D8FC4FD082D083F0D20537
:010C38002299
:1013F700300444C204E4F550AF511214C0AF4E128A
:1014070014C0AF4C1214C0E54E6250E54C6250E474
:10141700F52BE52BC3954C50197437252BF582E432
:101427003400F583E0F52C6250AF2C1214C0052B65
:0714370080E0AF501214C069
:01143E00228B
:10158C00FFFFFF0000010101FF0001FF01FF00014F
:10159C00FF0100000000FF01FFFF0101FF01FF013F
:1015AC00FEFEFFFF01010202FF01FE02FE02FF012F
:0313F300011F00D7
:1010A800ED25E025E04EF9240EF582E43400F583C1
:1010B800E022AB3EAD43ED3395E0FCE5402DF9E58C
:1010C8003F3CFA120959FDA806740108227B007AF0
:1010D80000793AAF3022253EFDEF93253FFEC3ED60
:1010E8006480948022AB3FE5412545F9E43540FA18
:1010F800020959FDC3EE6480948022A20BE43324D4
:1011080019F822740E2536F582E43400F58322ABF3
:101118003EAD43ED3395E0FCE5402DF9E53F223542
:0C11280083FA120959FEA8057401082280
:080710008F308B318A328933EE
:10071800E4F53AF53BF53CF53DA801AC02AD037BA9
:10072800FF7A167951FE7F04120933740E253012B0
:1007380010B1F537121103E6F539E5375407FF70A4
:1007480003020862E53730E603D38001C39208A2AA
:1007580008300B01B3500302086220070BA20830CF
:100768000A01B35003020862EF24FE601814601DEA
:1007780014602214602114602C2405702E1210D5E8
:10078800120C3980261210D512123E801E1210D576
:10079800120EFE801680061210D5120EFE1210D50B
:1007A80012113480061210D51211BFE4F534E4F5A5
:1007B80035743A2534F8E6FD7C007E007401A835CE
:1007C800088005C333CE33CED8F9FFEE5CFEEF5D6B
:1007D8004E606FE53425E025E04535F5361210AF5B
:1007E800F53812110BE537F0740E253012110FE4AD
:1007F800F0E5375407FFBF0605121103A63612119C
:1008080003E6FFA20BB392091209B14020AB31E510
:10081800332534F9E43532FA120959FFAE35A80602
:100828007401088002C333D8FC4F12099F740E2547
:100838003012110FE537F012110BE538F0121103E1
:10084800A6390535E535C3940450030207B90534C4
:0A085800E534C3940450030207B610
:010862002273
:080C39008F3E8B3F8A40894188
:100C4100E53E1313543FFFE53E5403F543740E256F
:100C51003E1210B15440F54230E60875480175471F
:100C61000180067548FF754706E54825E025E0F552
:100C710049E5482FF545C39404506CE545C39400FC
:100C81004065E53E2549F5441210AF5407705812EE
:100C910010EDFEAD43A8057401088002C333D8FCF2
:100CA1004E12099FE5492544F544EF6547703874B4
:100CB1000E25441210B15407702DAF48EF3395E063
:100CC100FEE5452FFFE43EFEAB3FE5412FF9E54050
:100CD1003EFA120959FFAE43A8067401088002C307
:100CE10033D8FC4F12099FE543D39400402EE53ED3
:100CF100254914F5441210AFF5465407601EE54628
:100D01005440654260161210EDFFE54314FEF8747D
:100D110001088002C333D8FC4F12099FE543C394F5
:100D210003502EE53E254904F5441210AFF5465413
:100D310007601EE5465440654260161210EDFFE55E
:100D41004304FEF87401088002C333D8FC4F120932
:010D51009F02
:010D5200227E
:0611BF008B3E8A3F8940CF
:1011C500740E2F1210B15440F541EF1313543FF52F
:1011D50042EF5403F543E4FFEF90158C932542FE4F
:1011E500EF9015949325431210FB4046EE648094CE
:1011F50084503F1210E6403AED648094845033EEFB
:1012050025E025E02D1210AFFC54076007EC544093
:101215006541601EAB3EEEF5823395E0F583E54012
:101225002582F9E53F1211278002C333D8FC4E12FF
:08123500099F0FEF640870A08F
:01123D00228E
:061134008B3E8A3F89405A
:10113A00740E2F1210B15440F541EF1313543FF5BA
:10114A0044EF5403F545E4FF854443AE45EF90155B
:10115A009C932543F543EF9015A0932EFEC3E543D8
:10116A00648094804048E54364809484504012101F
:10117A00FC403BEE648094845034E54325E025E04E
:10118A002E1210AFF5425407700F1210BA8002C324
:10119A0033D8FC4D12099F80B4E542544065416042
:1011AA000D1210BA8002C333D8FC4D12099F0FEFFB
:0411BA0064047094C5
:0111BE00220E
:060EFE008B3E8A3F894093
:100F0400740E2F1210B15440F541EF1313543FF5F2
:100F140044EF5403F545E4FF854443AE45EF901593
:100F2400A4932543F543EF9015A8932EFEC3E54300
:100F340064809480404EE54364809484504612104B
:100F4400FC4041EE64809484503AE54325E025E07A
:100F54002E1210AFF542540770121211171210C955
:100F64008002C333D8FC4D12099F80B1E54254403E
:100F7400654160101211171210C98002C333D8FCE6
:0A0F84004D12099F0FEF6404708EF8
:010F8E002240
:06123E008B3E8A3F89404F
:10124400740E2F1210B15440F541EF1313543FF5AF
:1012540042EF5403F543E4FFEF9015AC932542FEAF
:10126400EF9015B49325431210FB4046EE6480942E
:1012740084503F1210E6403AED648094845033EE7B
:1012840025E025E02D1210AFFC54076007EC544014
:101294006541601EAB3EEEF5823395E0F583E54093
:1012A4002582F9E53F1211278002C333D8FC4E1280
:0812B400099F0FEF640870A010
:0112BC00220F
:1009B100EF1313543FF53EEF5403F53FE4FFEF907F
:1009C10015AC939015B41210DE4030ED6480948420
:1009D10050291210FC4024EE64809484501D1210A2
:1009E100A8FC5407FBBB0213EC30E6047B01800238
:1009F1007B00A209E433B50302D3220FEF64087030
:100A0100BDE4FFAD3EAE3FEF90159C932DFDEF9001
:100A110015A0932E1210E5403CED6480948450356E
:100A21001210FC4030EE6480948450291210A8FC0E
:100A3100540760D3EC30E6047B0180027B00A209FD
:100A4100E433B50310EC5407F54064046005E54058
:100A5100B40502D3220FEF640470A8E4FFAD3EAEEB
:100A61003FEF9015A4932DFDEF9015A8932E121032
:100A7100E5403CED6480948450351210FC4030EE2A
:100A81006480948450291210A8FC540760D3EC3080
:100A9100E6047B0180027B00A209E433B50310EC7C
:100AA1005407F54064036005E540B40502D3220F05
:100AB100EF640470A8E4FFEF90158C9390159412E5
:100AC10010DE4030ED6480948450291210FC4024E3
:100AD100EE64809484501D1210A8FC5407FBBB06E1
:100AE10013EC30E6047B0180027B00A209E433B5FC
:0B0AF1000302D3220FEF640870BDC3A6
:010AFC0022D7
:1012BD00121103E6FF7B007A00792CD20712132E50
:1012CD006002C322E4F52B740E252B1210B1602E93
:1012DD0030E6047F0180027F00A20BE4336F701EA5
:1012ED00740E252B1210B15407640660117B007A21
:1012FD0000792CD207AF2B12132E6002C322052BBF
:10130D00E52BC3941040C0E4F51FA20B332419F84C
:10131D00E6FFA20BB392091209B15003751F01D359
:0D132D0022120710E52C452D452E452F22DC
:10102800020026E493A3F8E493A34003F68001F2B8
:1010380008DFF48029E493A3F85407240CC8C333C9
:10104800C4540F4420C8834004F456800146F6DF98
:10105800E4800B01020408102040809013ABE47E6A
:10106800019360BCA3FF543F30E509541FFEE4938D
:10107800A360010ECF54C025E060A840B8E493A354
:10108800FAE493A3F8E493A3C8C582C8CAC583CA7F
:10109800F0A3C8C582C8CAC583CADFE9DEE780BE37
:0113F60000F6
:10086300E709F608DFFA8046E709F208DFFA803E77
:1008730088828C83E709F0A3DFFA8032E309F60864
:10088300DFFA8078E309F208DFFA807088828C83CC
:10089300E309F0A3DFFA806489828A83E0A3F60880
:1008A300DFFA805889828A83E0A3F208DFFA804C5A
:1008B30080D280FA80C680D4806980F28033801031
:1008C30080A680EA809A80A880DA80E280CA80339A
:1008D30089828A83ECFAE493A3C8C582C8CCC58312
:1008E300CCF0A3C8C582C8CCC583CCDFE9DEE780E2
:1008F3000D89828A83E493A3F608DFF9ECFAA9F061
:10090300EDFB2289828A83ECFAE0A3C8C582C8CCB6
:10091300C583CCF0A3C8C582C8CCC583CCDFEADECF
:10092300E880DB89828A83E493A3F208DFF980CC31
:1009330088F0EF60010E4E60C388F0ED2402B4042A
:100943000050B9F582EB2402B4040050AF232345D1
:0609530082239008B3733B
:10095900BB010689828A83E0225002E722BBFE029C
:09096900E32289828A83E49322CF
:10097200BB010CE58229F582E5833AF583E022503A
:1009820006E92582F8E622BBFE06E92582F8E22284
:0D099200E58229F582E5833AF583E493229E
:10099F00BB010689828A83F0225002F722BBFE0137
:0209AF00F32231
:00000001FF
