:03000000020E9558
:0C0E9500787FE4F6D8FD75816D020EDC5C
:0B0C8500C189011400011200011300DE
:100026001211957590D87B017A007904120F21C2BE
:100036000775130AE513D3940040021513E514144B
:10004600603E1470030200DD147003020203147094
:10005600030204D81470030204EF240560030205AA
:100066000930090BC2097B017A007908120F212099
:100076000403020509D20975130A7514010205095C
:10008600300913300510C209C2057B017A00795088
:10009600120F21751302E513600302050912107B86
:1000A60040030201FD755801755900755A107B0110
:1000B6007A00795012113F92082008030201FD7858
:1000C600147C007D017B017A0079107E007F04128A
:1000D600092DD2090203E330090EC2097B017A0019
:1000E6007904120F2175130230050EC2057B017AC1
:1000F60000792E120F21751302E51360030205091C
:1001060012107B40030201FD755801755900755A9E
:10011600107B017A00791412113F9208200808D248
:10012600097514030205097B017A007904120F216F
:10013600E5121460030201FD7557017558007559E3
:10014600107B017A00791412101C90000DE0FF124A
:1001560011D37E00C006C00790000CE0FF1211D339
:10016600EFFDD0E02DFFD0E03400FEC006C00790C2
:10017600000EE0FF1211D3EFFDD0E02DFFD0E034EA
:1001860000FEC006C00790000FE0FF1211D3EFFD7E
:10019600D0E02DFFD0E034004F705C900019E0FFF6
:1001A6001211D37E00C006C007900018E0FF12119E
:1001B600D3EFFDD0E02DFFD0E03400FEC006C0072F
:1001C60090001AE0FF1211D3EFFDD0E02DFFD0E032
:1001D6003400FEC006C00790001BE0FF1211D3EFEB
:1001E600FDD0E02DFFD0E034004F700BF5127B01FF
:1001F6007A007904120F21751302020509300902EB
:10020600C209C2097557017558007559107B017AE4
:1002160000791412101CE51214700302033D0460E9
:0402260003020509C1
:10022A0090000DE0FF1211D37E00C006C0079000B7
:10023A000CE0FF1211D3EFFDD0E02DFFD0E0340027
:10024A00FEC006C00790000EE0FF1211D3EFFDD0EA
:10025A00E02DFFD0E03400FEC006C00790000FE09A
:10026A00FF1211D3EFFDD0E02DFFD0E03400FEEFF6
:10027A0064014E6003020337900019E0FF1211D3A4
:10028A007E00C006C007900018E0FF1211D3EFFDF0
:10029A00D0E02DFFD0E03400FEC006C00790001A5F
:1002AA00E0FF1211D3EFFDD0E02DFFD0E03400FEC5
:1002BA00C006C00790001BE0FF1211D3EFFDD0E08B
:0902CA002DFFD0E034004F7064F8
:1002D300C200751201751402D209F55230000302EF
:1002E3000509E4F553740C2552F582E43400F583D3
:1002F300E0FFAE53A806088002C313D8FC30E01F0A
:10030300E55225E025E02553FF1206C1782E7C0037
:100313007D017E007F0412092DD205D200800905DC
:1003230053E553C3940440BD0552E552C3940440BE
:04033300AB0205090B
:1003370075140402050990000DE0FF1211D37E0029
:10034700C006C00790000CE0FF1211D3EFFDD0E00C
:100357002DFFD0E03400FEC006C00790000EE0FF7E
:100367001211D3EFFDD0E02DFFD0E03400FEC00620
:10037700C00790000FE0FF1211D3EFFDD0E02DFF73
:10038700D0E03400FEEF64014E7057900019E0FF93
:100397001211D37E00C006C007900018E0FF1211AB
:1003A700D3EFFDD0E02DFFD0E03400FEC006C0073C
:1003B70090001AE0FF1211D3EFFDD0E02DFFD0E03F
:1003C7003400FEC006C00790001BE0FF1211D3EFF8
:1003D700FDD0E02DFFD0E034004F70067514020207
:1003E700050990000DE0FF1211D37E00C006C0077B
:1003F70090000CE0FF1211D3EFFDD0E02DFFD0E00D
:100407003400FEC006C00790000EE0FF1211D3EFC4
:10041700FDD0E02DFFD0E03400FEC006C0079000FD
:100427000FE0FF1211D3EFFDD0E02DFFD0E0340035
:10043700FEEF64014E6003020509900019E0FF1208
:1004470011D37E00C006C007900018E0FF1211D339
:10045700EFFDD0E02DFFD0E03400FEC006C00790CE
:10046700001AE0FF1211D3EFFDD0E02DFFD0E034EA
:1004770000FEC006C00790001BE0FF1211D3EFFD7E
:0F048700D0E02DFFD0E03400FEEF64014E707323
:10049600C200F552742E2552F582E43400F583E04D
:1004A600FF74182552F582E43400F583E05F60049A
:1004B600D20080070552E552B404D920000775140E
:1004C600047F498008E4F5127514027F4D12121458
:0204D600803173
:1004D80030090BC2097B017A007908120F21E51354
:1004E800701F751405801530090BC2097B017A004D
:1004F8007904120F21E513700875140475130AD2D4
:0B050800097F0A7E001211AB02003ACE
:1011950053890F438920D28E758DFF7598504387EB
:0611A50080D2ACD2AF22A3
:08121400C2998F993099FD2267
:10000300AD07AC068D828C83E49360100DED700117
:0D0013000C14F582E493FF12121480E82211
:100C90005200323F065B4F666D7D077F6F777C3970
:050CA0005E79713D7654
:05122400121229D2B4F2
:021229000022A1
:0F11E400D2B5D2B4121229C2B5121229C2B42246
:0D11F300C2B4121229C2B5121224D2B522C4
:09116F00F582E43400F583E0FF91
:10117800E4FEC2B4EF1392B5121224EFC313FF0EAC
:0C118800BE08EFC2B4D2B5121224C2B4EB
:011194002238
:09120B001211E41211780211F332
:10110F00AC077F4012120B1211E47FC012117874DA
:10111F00322C12116F74322D12116F74322B121177
:10112F006F7432251112116F1211F37F8F02120B90
:1011C000438901758CFC758A67C28DD28C308DFD88
:0311D000C28C22AC
:1011AB00E4FDFCC3ED9FEC9E500A1211C00DBD0077
:0411BB00010C80EFB4
:0111BF00220D
:1011D300E4FE53070FEF60061452070E80F7AF06C5
:0111E30022E9
:04122B0000000000BF
:0610D7008B088A09890A5A
:1010DD00E4FFAB0BAA0CA90D8F8275830012096C6E
:1010ED00FEAB08AA09A90A8F8275830012096C6EDE
:1010FD00FE74002FF582E43400F583EEF00FBF048B
:01110D00D110
:01110E0022BE
:06101C008B548A55895631
:10102200E4FFAB57AA58A9598F8275830012096C45
:10103200F4FEAB54AA55A9568F8275830012096C2F
:101042005EFE740C2FF582E43400F583EEF08F829D
:1010520075830012096CF4FEAB57AA58A9598F8206
:1010620075830012096C5EFE74182FF582E4340059
:08107200F583EEF00FBF04AAA4
:01107A002253
:10107B00755403AF541554EF6050120FAD78447C88
:10108B00007D017E007F0412092D7F057E00121169
:10109B00AB120FAD78487C007D017E007F041209F6
:1010AB002D755801755900755A487B017A007944A2
:1010BB0012113F50BE78107C007D017B017A0079C4
:0B10CB00447E007F0412092DD322C3D5
:0110D60022F7
:100FAD00784C7C007D017BFF7A12792B7E007F04CB
:100FBD0012092DD297C296121229D29612121CC264
:100FCD0097E4F555E4F556A294E433FF5307017405
:100FDD004C2556F582E43400F583E0FEEF70047F76
:100FED000180027F00AD55A805EF088002C333D8FC
:100FFD00FC4EF012121C0556E556C3940440C8056C
:0E100D0055E555C3940440BC7B017A00794C34
:01101B0022B2
:100F2100120953F55590000112096CF55690000213
:100F310012096CF55790000312096CF558C293120F
:0E0F41001203D2937F017E001211ABE4F5542F
:100F4F00C374039554F559FFF8E558088002C3138D
:100F5F00D8FC121200AF59A807E557088002C31337
:100F6F00D8FC121200AF59A807E556088002C31328
:100F7F00D8FC139290121203AF59A807E5550880B9
:0B0F8F0002C313D8FC1392901212034F
:100F9A000554E554C3940440ACC292D29212122969
:020FAA00C292F1
:010FAC002222
:03120000139290B6
:08120300D291121229C29122BE
:08121C00D295121229C295229D
:100CA5004400101F1B041F440014FFFFFFFF4400F6
:100CB500000000000044000C000000004400180083
:100CC50000000044002E0000000044000400000065
:100CD50000440008FFFFFFFFC108C18742002C0048
:100CE5000050001C00000000000000000000000093
:040CF50000000000FB
:06113F008B558A5689570A
:10114500E4FFAB58AA59A95A8F8275830012096C1E
:10115500FEAB55AA56A9578F8275830012096C6E8E
:091165006002C3220FBF04DAD3BB
:01116E00225E
:100CF900C106C105C1044100540041005500011558
:080D090000440050000000004E
:030023000209AB24
:1009AB00C0E0C0F0C083C082C0D075D000C000C012
:1009BB0001C002C003C004C005C006C007209803D5
:0309CB00020AAC71
:1009CE0085996BC298E51514601B147003020AA476
:1009DE0024026003020AACE56B64236003020AACD6
:0D09EE00D204020AA9E56B5407FFBF061FE3
:1009FB00E56B30E603D38001C39203900055E0FF13
:0F0A0B00A203E433242CF582E43400F583EFF0EA
:100A1A00900055E0FF04F0741C2FF582E43400F5D1
:0C0A2A0083E56BF0900055E064107076DE
:100A360078507C007D017B017A007904FE7F0412E8
:100A4600092D756C00756D0075F004E56CA4256DB7
:100A5600F582E435F0F583E582241CF582E58334DE
:100A660000F583E05407601C7450256CF582E4346D
:100A760000F583E0FFAE6DA8067401088002C3335B
:100A8600D8FC4FF0056DE56DB404BD056CE56CB49E
:0C0A960004B3900055E4F0751502D20581
:0A0AA2008008E56BB42A0375150106
:100AAC00D007D006D005D004D003D002D001D0009E
:0B0ABC00D0D0D082D083D0F0D0E03248
:100D11000842FFFFFF0000010101083AFF0001FF47
:100D210001FF0001044EFF010000044A0000FF0121
:100D31000436FFFF0101042AFF01FF01082EFEFE18
:100D4100FFFF010102020822FF01FE02FE02FF0174
:0206C1008F5454
:1006C300785B7C007D007B017A0079047E007F04E7
:1006D30012092D785F7C007D007B017A0079047E0E
:1006E300007F0412092D741C2554F582E43400F5AF
:1006F30083E0F558A207E433242CF582E43400F5B3
:1007030083E0F55AE5585407FF7004FB020858E5E7
:100713005830E603D38001C39201A201300701B32D
:1007230050057B00020858EF24FD601A14601C1466
:10073300601B1460282404702F7B007A00795BAF60
:1007430054120D528022120AC7801D8003120AC759
:100753007B007A00795BAF54120BAA800B7B007A83
:1007630000795BAF54120DFAE4F555E4F556745B6A
:100773002555F8E6FD7C007E007401A85608800527
:10078300C333CE33CED8F9FFEE5CFEEF5D4E70037C
:1007930002083EE55525E025E04556F557241CF5AE
:1007A30082E43400F583E0F559741C2557F582E49F
:1007B3003400F583E558F0741C2554F582E43400C5
:1007C300F583E4F0E5585407FFBF0610A207E433AE
:1007D300242CF582E43400F583E557F0A207E433D3
:1007E300242CF582E43400F583E0FFA207B39202E0
:1007F300120513401A745F2555F8C000E6FFAE5684
:10080300A8067401088002C333D8FC4FD000F674E5
:100813001C2554F582E43400F583E558F0741C2557
:1008230057F582E43400F583E559F0A207E4332455
:100833002CF582E43400F583E55AF00556E556C3FA
:10084300940450030207710555E555C394045003FE
:0908530002076E7B007A00795F58
:01085C002279
:060DFA008B638A64896529
:100E0000741C2FF582E43400F583E05440F566EF5E
:100E10001313543FF567EF5403F568E4FF74422F52
:100E2000F8E62567FE743A2FF8E62568FDC3EE6400
:100E30008094804059EE648094845052C3ED648065
:100E40009480404AED648094845043EE25E025E090
:100E50002D241CF582E43400F583E0FC5407600780
:100E6000EC544065666027AB63EEF5823395E0F5A0
:100E700083E5652582F9E5643583FA120953FEA8F6
:100E8000057401088002C333D8FC4E1209990FEF94
:040E900064087089F9
:010E9400223B
:060BAA008B638A6489657B
:100BB000741C2FF582E43400F583E05440F566EFB1
:100BC0001313543FF569EF5403F56AE4FF85696830
:100BD000AE6A744E2FF8E62568F568744A2FF8E679
:100BE0002EFEC3E568648094805003020C7BE568A8
:100BF000648094844003020C7BC3EE648094804044
:100C00007AEE64809484507375F004E568A42EF540
:100C100082E435F0F583E582241CF582E583340017
:100C2000F583E0F56754077026AB63AD68ED339547
:100C3000E0FCE5652DF9E5643CFA120953FDA806D0
:100C40007401088002C333D8FC4D1209998083E5F2
:100C500067544065666024AB63AD68ED3395E0FC96
:100C6000E5652DF9E5643CFA120953FDA806740107
:100C7000088002C333D8FC4D1209990FEF64046059
:040C800003020BCD93
:010C8400224D
:080AC7007B007A00795BAF545B
:060ACF008B638A64896557
:100AD500741C2FF582E43400F583E05440F566EF8D
:100AE5001313543FF569EF5403F56AE4FF8569680C
:100AF500AE6A74362FF8E62568F568742A2FF8E68D
:100B05002EFEC3E568648094805003020BA0E5685F
:100B1500648094844003020BA0C3EE6480948040FB
:100B25007AEE64809484507375F004E568A42EF51C
:100B350082E435F0F583E582241CF582E5833400F3
:100B4500F583E0F56754077026AB63AD68ED339523
:100B5500E0FCE5652DF9E5643CFA120953FDA806AC
:100B65007401088002C333D8FC4D1209998083E5CE
:100B750067544065666024AB63AD68ED3395E0FC72
:100B8500E5652DF9E5643CFA120953FDA8067401E3
:100B9500088002C333D8FC4D1209990FEF64046035
:040BA50003020AF24B
:010BA9002229
:060D52008B638A648965D1
:100D5800741C2FF582E43400F583E05440F566EF07
:100D68001313543FF567EF5403F568E4FF742E2F0F
:100D7800F8E62567FE74222FF8E62568FDC3EE64C1
:100D88008094804063EE64809484505CC3ED6480FA
:100D980094804054ED64809484504D75F004EEA422
:100DA8002DF582E435F0F583E582241CF582E58390
:100DB8003400F583E0FC54076007EC544065666036
:100DC80027AB63EEF5823395E0F583E5652582F977
:100DD800E5643583FA120953FEA8057401088002F8
:100DE800C333D8FC4E1209990FEF64086003020D53
:010DF8007585
:010DF90022D7
:10051300EF1313543FF563EF5403F564E4FF742EB4
:100523002FF8E62563FD74222FF8E62564FEC3ED5C
:10053300648094804041ED64809484503AC3EE64B7
:100543008094804032EE64809484502BED25E02526
:10055300E04EF9241CF582E43400F583E0FC5407F3
:10056300FBBB0213EC30E6047B0180027B00A2029A
:10057300E433B50302D3220FEF640870A1E4FFADA7
:1005830063AE64744E2FF8E62DFD744A2FF8E62E01
:10059300FEC3ED64809480404DED648094845046A6
:1005A300C3EE64809480403EEE648094845037EDC3
:1005B30025E025E04EF9241CF582E43400F583E0C0
:1005C300FC540760BEEC30E6047B0180027B00A292
:1005D30002E433B50310EC5407F56564046005E5E4
:1005E30065B40502D3220FEF64047093E4FFAD6397
:1005F300AE6474362FF8E62DFD742A2FF8E62EFE2E
:10060300C3ED64809480404DED648094845046C370
:10061300EE64809480403EEE648094845037ED25F0
:10062300E025E04EF9241CF582E43400F583E0FC78
:10063300540760BEEC30E6047B0180027B00A2021B
:10064300E433B50310EC5407F56564036005E56511
:10065300B40502D3220FEF64047093E4FF74422FB6
:10066300F8E62563FD743A2FF8E62564FEC3ED64CE
:100673008094804041ED64809484503AC3EE64805A
:1006830094804032EE64809484502BED25E025E085
:100693004EF9241CF582E43400F583E0FC5407FB97
:1006A300BB0613EC30E6047B0180027B00A202E46C
:0D06B30033B50302D3220FEF640870A1C31A
:0106C0002217
:100EA100020026E493A3F8E493A34003F68001F241
:100EB10008DFF48029E493A3F85407240CC8C33352
:100EC100C4540F4420C8834004F456800146F6DF21
:100ED100E4800B0102040810204080900C85E47E20
:100EE100019360BCA3FF543F30E509541FFEE49316
:100EF100A360010ECF54C025E060A840B8E493A3DD
:100F0100FAE493A3F8E493A3C8C582C8CAC583CA07
:100F1100F0A3C8C582C8CAC583CADFE9DEE780BEBF
:010D510000A1
:10085D00E709F608DFFA8046E709F208DFFA803E7D
:10086D0088828C83E709F0A3DFFA8032E309F6086A
:10087D00DFFA8078E309F208DFFA807088828C83D2
:10088D00E309F0A3DFFA806489828A83E0A3F60886
:10089D00DFFA805889828A83E0A3F208DFFA804C60
:1008AD0080D280FA80C680D4806980F28033801037
:1008BD0080A680EA809A80A880DA80E280CA8033A0
:1008CD0089828A83ECFAE493A3C8C582C8CCC58318
:1008DD00CCF0A3C8C582C8CCC583CCDFE9DEE780E8
:1008ED000D89828A83E493A3F608DFF9ECFAA9F067
:1008FD00EDFB2289828A83ECFAE0A3C8C582C8CCBD
:10090D00C583CCF0A3C8C582C8CCC583CCDFEADED5
:10091D00E880DB89828A83E493A3F208DFF980CC37
:10092D0088F0EF60010E4E60C388F0ED2402B40430
:10093D000050B9F582EB2402B4040050AF232345D7
:06094D0082239008AD7347
:10095300BB010689828A83E0225002E722BBFE02A2
:09096300E32289828A83E49322D5
:10096C00BB010CE58229F582E5833AF583E0225040
:10097C0006E92582F8E622BBFE06E92582F8E2228A
:0D098C00E58229F582E5833AF583E49322A4
:10099900BB010689828A83F0225002F722BBFE013D
:0209A900F32237
:00000001FF
