:03000000020F6488
:0C0F6400787FE4F6D8FD758167020FABC2
:0E125300C18D011B00011900011800011A00D5
:100C0900E55F540F93FFE55E540F932FFFEC33FE1E
:100C1900E560540F932FFFEC3EFEE561540F932FCF
:100C2900FFEC22E54E540F9014C593FFE54D540F88
:100C3900932FFFE433FEE54F540F937C002FFFEC15
:100C49003EFEE55022244CF582E43400F583EEF0B3
:100C5900744C2FF582E43400F58322744D2522AEBD
:100C690023F8E6FFA8060822AE26E6FFA8067401C7
:100C79000822FEA20BE4332462F822752E00752F98
:100C890000753056223EFEEF64014E22751B06E4C4
:100C9900F519F564F565F566F56722E55113135401
:100CA9003F22785A7C00020A64E6FFE5265403FED7
:100CB900F8740108222529F8E6FFAE2AA8060822B9
:100CC9007B017A007900227537007538007539562D
:100CD90022E52225E025E0227B007A00795A227A52
:100CE90000FFEA35F0FEEF6D22E52525E025E0223B
:100CF900E52725E025E022E5261313543F2422F8B1
:010D090022C7
:100026001214607590D81206D2D20B751A0A3003D4
:1000360003120AE23004031212A2300521C2AFC233
:1000460005D2AFE509240AFFE50804FDE50B240AFD
:10005600FBE50A04F52E12139D751B04D20DE51A55
:10006600D394004002151AE51BB4080040030206AB
:100076005090007EF82828730200960200AD020117
:10008600760201F30200E30205900205EC02063E49
:10009600300D031206E6200103020650D20D751A32
:1000A6000A751B01020650300D1820020302065085
:1000B600C20DC2027D00120CC97E007F04120CAB79
:1000C6008020E51A60030206501212EA40028027D9
:1000D6001206BD200C02801FD20D020412300D0B39
:1000E600C20D120CC9120E4A0201EDE51A60030296
:1000F60006501212EA40030201ED120CD07B017A7F
:0B010600007948121403920C300C62C8
:10011100850822850923850A24850B25120CDA25F9
:1001210023FF244C120C5CE05407FEBE060DE524AF
:1001310025E025E04525120C7BA606120C59E0FEB0
:10014100E52425E025E02525120C4EE4F0FD7B0198
:100151007A007948FE7F04120CABB20B1206D21260
:1001610010F25003020569751B02E4F519D20D0264
:02017100065036
:100173000201ED300D06120687751A0230020BC21A
:1001830002120CC9120E4A751A02E51A600302061E
:10019300501212EA40030201ED1206BD200C08D2F0
:1001A3000D751B030206501206DCE51914703B1291
:1001B3000C847A00795A12065A3E4F702D120C099C
:0401C3003E4F702615
:1001C700120CA4F522E5515403F5237456120C665C
:1001D7008002C313D8FC30E00AE4F519F551120682
:0601E700DC8003120C9500
:1001ED00751A02020650300D02C20D120C84120C4B
:1001FD00E11213D0E5191470030202951470030275
:10020D0004152402600302058A120C2C120C25120F
:0B021D000C8E706E120C093E4F7067D3
:10022800C206751901751B02D20DF52230060302AC
:100238000650E4F523120C648002C313D8FC30E0A6
:1002480031120CDA2523FF7B007A007964C2071289
:1002580006F278007C007D017B007A0079647E00DC
:100268007F04120A64120CDA4523F551D202D20631
:1002780080090523E523C3940440BA0522E522C377
:07028800940440A802065097
:10028F00751B06020650120C2C120C25120C8E70C8
:10029F000A120C093E4F7003020412120C2C120C9E
:1002AF00253EFEEF64024E707B120C093E4F7074B8
:1002BF00C206F522E4F523120C648002C313D8FCA6
:1002CF0030E030120CA4FFE55154032FFDE433FC52
:1002DF00E52275F004A42523120CE87002EE6C6081
:1002EF00127464120C668002C313D8FC30E004D27F
:1002FF000680070523E523B404BD2006080522E583
:10030F0022640470AF20060302058A78527C007DB8
:10031F00007B007A0079567E007F04120A647519FB
:04032F00020205823F
:10033300120C2C120C25120C8E6003020412120CE8
:0903430009120C8E600302041281
:10034C00F522C206F52374642523F8E6FF745E25B6
:10035C0023F8E65F602AE4F524745E2523AE2412AC
:10036C000C6A8002C313D8FC20E0070524E524B4F2
:10037C0004E7E52325E025E04524F522D206800795
:10038C000523E523B404BF20060302058A120CA43E
:10039C00F525E5515403F526E5221313543FF527B3
:1003AC00E5225403F528120CF22526FF244C120CDE
:1003BC005CE05407FEBE060A120CF94528120C7BB1
:1003CC00A606120C59E0FE120CF92528120C4EE46C
:1003DC00F0745A2525F8C000120C718002C333D872
:1003EC00FCF45FD000F6745A2527F8C000AE281232
:1003FC000C738002C333D8FC4FD000120693400319
:06040C0002065002056922
:10041200020582120C847A00795212065A3E4F600B
:0F04220003020571120C09120C8E6003020571A2
:10043100C206F52974642529F8E6FF745E2529F8BA
:10044100E65F6029E4F52A745E120CBE8002C313D4
:10045100D8FC30E00EE52925E025E0452AF522D239
:10046100068007052AE52AB404DD2006070529E5EB
:1004710029B404C020060302058A120CA4F523E561
:10048100515403F524E5221313543FF525E5225475
:1004910003F526E4F529E4F52A744D120CBE800219
:1004A100C313D8FC30E028E52375F004A47C0025B3
:1004B10024FDEC35F0FCE52975F004A4252A120C85
:1004C100E87002EE6C6008852927852A28800705D7
:1004D1002AE52AB404C30529E529B404B9E523258D
:1004E100E025E02524FF244C120C5CE05407FEBEFD
:1004F100060A120CF24526120C7BA606120C59E0D4
:10050100FE120CF22526120C4EE4F0120CF92528ED
:10051100244C120C5CE4F0745A2523F8C000E6FF69
:10052100AE24A8067401088002C333D8FCF45FD05E
:1005310000F6745A2527F8C000E6FFAE28A8067415
:1005410001088002C333D8FCF45FD000F6745A2549
:1005510025F8C000120C718002C333D8FC4FD000C3
:100561001206934003020650751B05D20D02065078
:10057100120C2C120C253E4F700D120C093E4F70BF
:1005810006751B020206508000120C9502065020CF
:050591000D03020650FD
:10059600C20D120C7CE6F526E51EB4011AE4F5221E
:1005A600F523F524F525120D00C000120CB28002C9
:1005B600C333D8FC4F8020E51E701F7522FF7523BC
:1005C600FF7524FF7525FF120D00C000120CB280C6
:1005D60002C333D8FCF45FD000F67B007A007922A0
:0305E600120E4AA8
:1005E900020650300D051206E60518E51A7058E5A1
:1005F90018C39406403AE4F5181212EA5024120C72
:10060900D0120CE1121403920C300C16751B02E483
:10061900F5197BFF7A1479F5120E4AD20D751A0A6B
:100629008025120CE1120E4A751A32E4F51880176A
:10063900751B07800D300D03120687E51A700875C2
:100649001B06751A0AD20D7F0A7E00121476020063
:10065900347B001213D0E54E540F9014C593FFE577
:100669004D540F932FFFE433FEE54F540F937C0055
:100679002FFFEC3EFEE550540F932FFFEC22C20DE5
:100689007BFF7A1479F5120E4A22F6B20BE4F519BA
:10069900751B02F564F565F566F5677513AA750F9F
:1006A90003750D02900044E551F0A3E522F0D20450
:1006B9001210F2227537007538007539567B007AA9
:1006C90000795A121403920C227BFF7A1479F512DD
:1006D9000E4A227BFF7A1479F5120E4A22C20D7B4B
:0906E900FF7A1479F9120E4A227D
:08126100011C00011D00C10E7B
:1014600053890F438920D28E758DFF75985043871D
:0614700080D2ACD2AF22D5
:10136700E51C045407FE651D602BAD1C745C2DF550
:1013770082E43400F583EFF08E1C200E18D20EAFF6
:101387001D745C2FF582E43400F583E0F599E51DC3
:05139700045407F51DE0
:01139C00222E
:1014B3003F065B4F666D7D077F6F777C395E797181
:0214C3003D7674
:0B14E100D2B5D2B400C2B500C2B422E4
:0C14D500C2B400C2B500D2B400D2B522EF
:10000300E4FEC2B4EF1392B500D2B400EFC313FF02
:0E0013000EBE08EEC2B4D2B500D2B400C2B424
:0100210022BC
:0914EC001214E11200030214D5F0
:10139D00AC077F401214EC1214E17FC0120003EC75
:1013AD009014B393FF120003ED93FF120003EB9320
:1013BD00FF120003E52E93FF1200031214D57F8F49
:0313CD000214EC1B
:1014C50000010102010202030102020302030304F7
:1014A000438901758CFC758A67C28DD28C308DFDA5
:0314B000C28C22C9
:10147600E4FDFCC3ED9FEC9E500A1214A00DBD00C6
:04148600010C80EFE6
:01148A00223F
:10148B00AB2EAA2FA9308F82758300020AA37B0093
:05149B007A00792B220C
:0613D0008B2B8A2C892DF5
:1013D600E4FF12148BF4FEAB2BAA2CA92D12149148
:1013E6005EFE744D2FF8A606121491F4FE12148BAD
:0C13F6005EFE745E2FF8A6060FBF04D642
:0114020022C7
:1012EA00753303AF331533EF603912149912117144
:1012FA007F057E001214767B007A00792F12117115
:10130A0075370075380075392F1214991214035065
:10131A00D278567C007D001214997E007F04120A4E
:04132A0064D322C3A3
:01132E00229C
:061171008B348A3589363B
:10117700A801AC02AD037BFF7A1479F57E007F04EA
:10118700120A64D297C29600D296121503C297E448
:10119700F537E4F538A294E433FF530701AB34E5A0
:1011A700362538F9E43535FA120A8AFEEF70047FDE
:1011B7000180027F00AD37A805EF088002C333D84E
:1011C700FC4E120AD01215030538E538C3940440C3
:0A11D700C40537E537C3940440B89F
:0111E10022EB
:100E4A00120A8AF52C900001120AA3F52D900002CD
:100E5A00120AA3F52E900003120AA3F52FC29312C9
:0E0E6A0014FDD2937F017E00121476E4F52B66
:100E7800C37403952BF530FFF8E52F088002C313E0
:100E8800D8FC120ECCE52E088002C313D8FC120E33
:100E9800CCE52D088002C313D8FC1392901214FDE0
:100EA800AF30A807E52C088002C313D8FC13929032
:030EB8001214FD14
:100EBB00052BE52BC3940440B4C292D29200C2928C
:0C0ECB00221392901214FDAF30A80722F1
:0614FD00D29100C2912211
:06150300D29500C2952202
:0814F50000000000FFFFFFFFF3
:10126900C10CC18BC18A0262000004490000000060
:0712790002470000015100D3
:061403008B348A358936A6
:10140900E4FFAB37AA38A9398F82758300120AA382
:10141900FEAB34AA35A9368F82758300120AA36EF2
:091429006002C3220FBF04DAD3F4
:011432002297
:10128000C102C101C100C10501100001150004081F
:0E12900000000000011400011700C103C1049A
:101433007404252BF582E43400F58322F583AE0989
:10144300E0FFA80674010822E4900000F0A3F0A3D3
:0D145300F0A3F0F52B2274002FF582E422A7
:03002300020D0AC1
:100D0A00C0E0C083C082C0D075D000C00730986DE3
:100D1A00859946C298E51714601A14602314603640
:100D2A0014604E2404707BE54664AA7075F511754B
:100D3A001701806E85460EE54662117517028062BC
:100D4A0085460C751600E5466211E50CD394004001
:100D5A001B751703804CAF16051674042F1214372F
:100D6A00E546F06211E516C3950C40367517048006
:0D0D7A0031E546B51102D203751700802542
:100D8700309922C299E51D651C6018AF1D745C2F50
:100D9700F582E43400F583E0F599E51D045407F581
:100DA7001D8002C20ED007D0D0D082D083D0E032CF
:100AE200200303020C08C203E50E24FE60101470FA
:100AF20003020B8224026003020C08D20122E4F5F5
:010B02002BC7
:100B0300121433E0F52C744C252BF582E43400F5F4
:0A0B130083E52CF05407FFBF061421
:100B1D00E52C30E603D38001C39207A207E433240A
:040B2D0062F8A62B99
:100B3100052BE52BB410CB121433E024FF920A12DB
:100B4100144BE4FFE52B25E025E02F244CF582E44E
:100B51003400F583E05407601A7400252BF582E414
:100B61003400F583E0FEA8077401088002C333D87E
:100B7100FC4EF00FBF04CD052BE52BB404C4D2020B
:100B81002212144B121433E0FF7408252BF8A60728
:100B9100052BE52BB404EDAF0812145934001214DF
:100BA1003F8002C333D8FC4FF0AF0A12145934000E
:100BB100F583AE0B1214438002C333D8FC4FF07897
:100BC100487C007D017B007A00795A7E007F041207
:100BD1000A64AF0874482FF582E4340012143F8090
:100BE10002C333D8FCF45FF0AF0A74482FF582E4F6
:100BF1003400F583E0FFAE0BA8067401088002C340
:070C010033D8FC4FF0D205CF
:010C080022C9
:1012A200300444C204E4F512AF13121367AF0F12F5
:1012B2001367AF0D121367E50F6212E50D6212E4B8
:1012C200F52BE52BC3950D50197444252BF582E4BB
:1012D2003400F583E0F52C6212AF2C121367052B54
:0712E20080E0AF1212136758
:0112E90022E2
:10132F00FFFFFF0000010101FF0001FF01FF0001AE
:10133F00FF0100000000FF01FFFF0101FF01FF019E
:10134F00FEFEFFFF01010202FF01FE02FE02FF018E
:08135F0002040810100804024A
:03129E00011E002E
:1011E200ED25E025E04EF9244CF582E43400F58348
:1011F20022AB3EAD43ED3395E0FCE5402DF9E53FF2
:101202003CFA120A8AFDA80674010822253EFDEF67
:1012120093253FFEC3ED6480948022FDC3EE64807B
:101222009480227B007A00793AAF3022A20BE43319
:101232002462F822AB3EAD43ED3395E0FCE5402D50
:10124200F9E53F223583FA120A8AFEA805740108DD
:011252002279
:0806F2008F308B318A3289330D
:1006FA00E4F53AF53BF53CF53DA801AC02AD037BC8
:10070A00FF7A1479F5FE7F04120A64744C253012BC
:10071A0011EBE0F53712122EE6F539E5375407FFEB
:10072A007003020843E53730E603D38001C3920819
:10073A00A208300B01B3500302084320070BA2089A
:10074A00300A01B35003020843EF24FD6015146018
:10075A001A14601914602424047026121225121027
:10076A0071801E121225120DB780168006121225EC
:10077A00120DB7121225120ED78006121225120F69
:10078A00F0E4F534E4F535743A2534F8E6FD7C00F6
:10079A007E007401A835088005C333CE33CED8F95C
:1007AA00FFEE5CFEEF5D4E6078E53425E025E0451E
:1007BA0035F5361211E9E0F538744C25361211EB8D
:1007CA00E537F0744C25301211EBE4F0E5375407A5
:1007DA00FFBF060512122EA63612122EE6FFA20B34
:1007EA00B392091208444020AB31E5332534F9E4C9
:1007FA003532FA120A8AFFAE35A806740108800259
:10080A00C333D8FC4F120AD0744C25301211EBE5D1
:10081A0037F0744C25361211EBE538F012122EA679
:10082A00390535E535C3940450030207910534E5CB
:09083A0034C39404500302078E3C
:010843002292
:060FF0008B3E8A3F8940A0
:100FF600744C2F1211EBE05440F541EF1313543F9C
:10100600F542EF5403F543E4FFEF90132F93254287
:10101600FEEF90133793254312121D4047EE64806E
:1010260094845040121216403BED648094845034F0
:10103600EE25E025E02D1211E9E0FC54076007ECEF
:1010460054406541601EAB3EEEF5823395E0F58374
:10105600E5402582F9E53F1212468002C333D8FCEB
:0A1066004E120AD00FEF6408709FCD
:01107000225D
:060ED7008B3E8A3F8940BA
:100EDD00744C2F1211EBE05440F541EF1313543FB6
:100EED00F544EF5403F545E4FF854443AE45EF90DB
:100EFD00133F932543F543EF901343932EFEC3E524
:100F0D0043648094804049E5436480948450411249
:100F1D00121E403CEE648094845035E54325E02557
:100F2D00E02E1211E9E0F5425407700F1211F38013
:100F3D0002C333D8FC4D120AD080B3E5425440654C
:100F4D0041600D1211F38002C333D8FC4D120AD04B
:060F5D000FEF6404709325
:010F6300226B
:060DB7008B3E8A3F8940DB
:100DBD00744C2F1211EBE05440F541EF1313543FD7
:100DCD00F544EF5403F545E4FF854443AE45EF90FC
:100DDD001347932543F543EF90134B932EFEC3E535
:100DED004364809480404FE543648094845047125F
:100DFD00121E4042EE64809484503BE54325E0256D
:100E0D00E02E1211E9E0F54254077012121236125B
:100E1D0012028002C333D8FC4D120AD080B0E542D5
:100E2D005440654160101212361212028002C33313
:0C0E3D00D8FC4D120AD00FEF6404708D39
:010E49002286
:061071008B3E8A3F89401E
:10107700744C2F1211EBE05440F541EF1313543F1A
:10108700F542EF5403F543E4FFEF90134F932542E6
:10109700FEEF90135793254312121D4047EE6480CD
:1010A70094845040121216403BED6480948450346F
:1010B700EE25E025E02D1211E9E0FC54076007EC6E
:1010C70054406541601EAB3EEEF5823395E0F583F3
:1010D700E5402582F9E53F1212468002C333D8FC6A
:0A10E7004E120AD00FEF6408709F4C
:0110F10022DC
:10084400EF1313543FF53EEF5403F53FE4FFEF90ED
:10085400134F9390135712120E4031ED6480948419
:10086400502A12121E4025EE64809484501E1211E8
:10087400E2E0FC5407FBBB0213EC30E6047B01808E
:10088400027B00A209E433B50302D3220FEF64080C
:1008940070BCE4FFAD3EAE3FEF90133F932DFDEFF0
:1008A400901343932E121215403DED6480948450AE
:1008B4003612121E4031EE64809484502A1211E2E2
:1008C400E0FC540760D2EC30E6047B0180027B003C
:1008D400A209E433B50310EC5407F5406404600541
:1008E400E540B40502D3220FEF640470A7E4FFAD22
:1008F4003EAE3FEF901347932DFDEF90134B932E95
:10090400121215403DED64809484503612121E403C
:1009140031EE64809484502A1211E2E0FC540760A2
:10092400D2EC30E6047B0180027B00A209E433B5FB
:100934000310EC5407F54064036005E540B4050278
:10094400D3220FEF640470A7E4FFEF90132F93906A
:10095400133712120E4031ED64809484502A12121F
:100964001E4025EE64809484501E1211E2E0FC5473
:1009740007FBBB0613EC30E6047B0180027B00A27C
:0F09840009E433B50302D3220FEF640870BCC33C
:010993002241
:1010F20012122EE6FF7B007A00792CD207121165BC
:101102006002C322E4F52B744C252B1211EBE06034
:101112002F30E6047F0180027F00A20BE4336F7060
:101122001F744C252B1211EBE05407640660117BEF
:10113200007A00792CD207AF2B1211656002C3220C
:10114200052BE52BC3941040BEE4F51EA20B3324FD
:1011520062F8E6FFA20BB392091208445003751E0F
:0211620001D3B7
:0D116400221206F2E52C452D452E452F22C6
:100F7000020026E493A3F8E493A34003F68001F271
:100F800008DFF48029E493A3F85407240CC8C33382
:100F9000C4540F4420C8834004F456800146F6DF51
:100FA000E4800B0102040810204080901253E47E7C
:100FB000019360BCA3FF543F30E509541FFEE49346
:100FC000A360010ECF54C025E060A840B8E493A30D
:100FD000FAE493A3F8E493A3C8C582C8CAC583CA38
:100FE000F0A3C8C582C8CAC583CADFE9DEE780BEF0
:0112A100004C
:10099400E709F608DFFA8046E709F208DFFA803E45
:1009A40088828C83E709F0A3DFFA8032E309F60832
:1009B400DFFA8078E309F208DFFA807088828C839A
:1009C400E309F0A3DFFA806489828A83E0A3F6084E
:1009D400DFFA805889828A83E0A3F208DFFA804C28
:1009E40080D280FA80C680D4806980F280338010FF
:1009F40080A680EA809A80A880DA80E280CA803368
:100A040089828A83ECFAE493A3C8C582C8CCC583DF
:100A1400CCF0A3C8C582C8CCC583CCDFE9DEE780AF
:100A24000D89828A83E493A3F608DFF9ECFAA9F02E
:100A3400EDFB2289828A83ECFAE0A3C8C582C8CC84
:100A4400C583CCF0A3C8C582C8CCC583CCDFEADE9D
:100A5400E880DB89828A83E493A3F208DFF980CCFF
:100A640088F0EF60010E4E60C388F0ED2402B404F8
:100A74000050B9F582EB2402B4040050AF2323459F
:060A840082239009E473D7
:100A8A00BB010689828A83E0225002E722BBFE026A
:090A9A00E32289828A83E493229D
:100AA300BB010CE58229F582E5833AF583E0225008
:100AB30006E92582F8E622BBFE06E92582F8E22252
:0D0AC300E58229F582E5833AF583E493226C
:100AD000BB010689828A83F0225002F722BBFE0105
:020AE000F322FF
:00000001FF
