:0300000002111CCE
:0C111C00787FE4F6D8FD75817202116343
:0B0D3500C18C011200010F0001110031
:100026001214517590D87B017A0079041211A8D266
:1000360009C20B75110AE511D3940040021511E5AA
:100046001214603E1470030200E1147003020216DB
:1000560014700302064314700302065A2405600353
:10006600020674300C0BC20C7B017A00790812115F
:10007600A8200103020674D20C75110A751201023A
:100086000674300C13300210C20CC2027B017A00D7
:10009600795F1211A8751102E51160030206741248
:1000A60013024003020210755D01755E00755F1153
:1000B6007B017A00795F1213FB920A200A0302027F
:1000C60010C20378157C007D017B017A0079117ED0
:1000D600007F04120CB7D20C020417300C0EC20CAF
:1000E6007B017A0079041211A87511023003087594
:1000F6001201D20C02067430020EC2027B017A0093
:10010600795F1211A8751102E511600302067412D7
:1001160013024003020210755D01755E00755F11E2
:100126007B017A0079151213FB920A200A08D20C79
:100136007512030206747B017A0079041211A8E590
:100146000F146003020210755C01755D00755E1187
:100156007B017A0079151212A390000DE0FF1214AC
:100166008F7E00C006C00790000CE0FF12148FEFD0
:10017600FDD0E02DFFD0E03400FEC006C0079000A1
:100186000EE0FF12148FEFFDD0E02DFFD0E034001B
:10019600FEC006C00790000FE0FF12148FEFFDD0DF
:1001A600E02DFFD0E034004F706090001AE0FF129F
:1001B600148F7E00C006C007900019E0FF12148F4E
:1001C600EFFDD0E02DFFD0E03400FEC006C0079062
:1001D600001BE0FF12148FEFFDD0E02DFFD0E034BE
:1001E60000FEC006C00790001CE0FF12148FEFFD52
:1001F600D0E02DFFD0E034004F700FF50F900010C7
:10020600F07B017A0079041211A8751102020674B6
:10021600300C02C20C755C01755D00755E117B01C8
:100226007A0079151212A3E50F1470030203710404
:050236006003020674E4
:10023B0090000DE0FF12148F7E00C006C0079000E7
:10024B000CE0FF12148FEFFDD0E02DFFD0E0340057
:10025B00FEC006C00790000EE0FF12148FEFFDD01A
:10026B00E02DFFD0E03400FEC006C00790000FE089
:10027B00FF12148FEFFDD0E02DFFD0E03400FEEF26
:10028B0064014E600302036B90001AE0FF12148F9F
:10029B007E00C006C007900019E0FF12148FEFFD1F
:1002AB00D0E02DFFD0E03400FEC006C00790001B4D
:1002BB00E0FF12148FEFFDD0E02DFFD0E03400FEF5
:1002CB00C006C00790001CE0FF12148FEFFDD0E0BA
:0C02DB002DFFD0E034004F600302036BE5
:1002E700C204750F01751202D20CF55230040302D5
:1002F7000674E4F553740C2552F582E43400F58353
:10030700E0FFAE53A806088002C313D8FC30E03FD5
:10031700E55225E025E02553FF120A43782F7C009C
:100327007D017E007F04120CB7785F7C007D017B26
:10033700017A00792F7E007F04120CB7E490001039
:10034700F0E552C454F04553F0D202D204800905B7
:1003570053E553C39404409D0552E552C3940440AA
:040367008B0206748B
:10036B0075120402067490000DE0FF12148F7E00CC
:10037B00C006C00790000CE0FF12148FEFFDD0E019
:10038B002DFFD0E03400FEC006C00790000EE0FF4A
:10039B0012148FEFFDD0E02DFFD0E03400FEC0062D
:1003AB00C00790000FE0FF12148FEFFDD0E02DFF80
:1003BB00D0E03400FEEF64014E705790001AE0FF5E
:1003CB0012148F7E00C006C007900019E0FF1214B4
:1003DB008FEFFDD0E02DFFD0E03400FEC006C0074C
:1003EB0090001BE0FF12148FEFFDD0E02DFFD0E04B
:1003FB003400FEC006C00790001CE0FF12148FEF04
:10040B00FDD0E02DFFD0E034004F700675120202D4
:10041B00067490000DE0FF12148F7E00C006C0071B
:10042B0090000CE0FF12148FEFFDD0E02DFFD0E019
:10043B003400FEC006C00790000EE0FF12148FEFD1
:10044B00FDD0E02DFFD0E03400FEC006C0079000C9
:10045B000FE0FF12148FEFFDD0E02DFFD0E0340042
:10046B00FEEF64014E600302067490001AE0FF1267
:10047B00148F7E00C006C007900019E0FF12148F86
:10048B00EFFDD0E02DFFD0E03400FEC006C007909A
:10049B00001BE0FF12148FEFFDD0E02DFFD0E034F6
:1004AB0000FEC006C00790001CE0FF12148FEFFD8A
:1004BB00D0E02DFFD0E03400FEEF64014E6003026C
:0204CB000674B5
:1004CD00F554C204F552742F2552F582E43400F52B
:1004DD0083E0FF74192552F582E43400F583E05F63
:1004ED006032E4F55374192552F582E43400F58336
:1004FD00E0FFAE53A806088002C313D8FC20E00726
:10050D000553E553B404DEE552C454F04553F55498
:10051D00D20480070552E552B404AB20040B7512CA
:10052D00047F49121396020674900010E0FFC45424
:10053D000FF555EF540FF556E554C4540FF557E527
:10054D0054540FF55875F004E555A42556F582E47D
:10055D0035F0F583E582241DF582E5833400F583BE
:10056D00E05407FFBF0618E55725E025E04558FF85
:10057D00A209E433242DF582E43400F583EFF07500
:10058D00F004E555A42556F582E435F0F583E582B2
:10059D00241DF582E5833400F583E0FF75F004E555
:1005AD0057A42558F582E435F0F583E582241DF531
:1005BD0082E5833400F583EFF075F004E555A4254D
:1005CD0056F582E435F0F583E582241DF582E58349
:1005DD003400F583E4F074152555F582E43400F507
:1005ED0083E0FFAE56A8067401088002C333D8FC21
:1005FD00F45FF074152557F582E43400F583E0FFC0
:10060D00AE58A8067401088002C333D8FC4FF0B26F
:10061D0009E4F50F751202782F7C007D017B017ABC
:10062D00007904FE7F04120CB7D20B900010E0F598
:06063D001085540E80310F
:10064300300C0BC20C7B017A0079081211A8E5115A
:10065300701F7512058015300C0BC20C7B017A00DC
:1006630079041211A8E511700875120475110AD2E4
:100673000C300B11C20B7F4D121396AF1012139651
:0F068300AF0E1213967F0A7E0012146702003C1E
:0A0D40004100590041005A00C10DA6
:1014510053890F438920D28E758DFF75985043872C
:0614610080D2ACD2AF22E4
:10139600900059E02451F582E43400F583EFF09093
:1013A6000059E0045407F0200D1AD20DC299A3E0AB
:1013B6002451F582E43400F583E0F59990005AE073
:0513C600045407F022B1
:10000300AD07AC068D828C83E49360100DED700117
:0D0013000C14F582E493FF12139680E8228E
:100D4A005200333F065B4F666D7D077F6F777C39B4
:050D5A005E79713D7699
:0514D8001214DDD2B486
:0214DD000022EB
:0F14A000D2B5D2B41214DDC2B51214DDC2B4221B
:0D14AF00C2B41214DDC2B51214D8D2B52299
:09142B00F582E43400F583E0FFD2
:10143400E4FEC2B4EF1392B51214D8EFC313FF0E37
:0C144400BE08EFC2B4D2B51214D8C2B476
:011450002279
:0914C7001214A01214340214AF37
:1013CB00AC077F401214C71214A07FC012143474E0
:1013DB00332C12142B74332D12142B74332B121435
:1013EB002B7433251612142B1214AF7F8F0214C7D4
:10147C00438901758CFC758A67C28DD28C308DFDC9
:03148C00C28C22ED
:10146700E4FDFCC3ED9FEC9E500A12147C0DBD00F9
:04147700010C80EFF5
:01147B00224E
:10148F00E4FE53070FEF60061452070E80F7AF0606
:01149F00222A
:0414DF000000000009
:06135E008B088A09890AD0
:10136400E4FFAB0BAA0CA90D8F82758300120CF657
:10137400FEAB08AA09A90A8F82758300120CF66EC7
:10138400FE74002FF582E43400F583EEF00FBF0401
:01139400D187
:011395002235
:0612A3008B598A5A895B99
:1012A900E4FFAB5CAA5DA95E8F82758300120CF620
:1012B900F4FEAB59AA5AA95B8F82758300120CF60A
:1012C9005EFE740C2FF582E43400F583EEF08F8214
:1012D900758300120CF6F4FEAB5CAA5DA95E8F82E1
:1012E900758300120CF65EFE74192FF582E4340042
:0812F900F583EEF00FBF04AA1B
:0113010022C9
:10130200755903AF591559EF605012123478457C64
:10131200007D017E007F04120CB77F057E0012144F
:101322006712123478497C007D017E007F04120C22
:10133200B7755D01755E00755F497B017A0079457D
:101342001213FB50BE78117C007D017B017A00797B
:0B135200457E007F04120CB7D322C3BD
:01135D00226D
:10123400784D7C007D017BFF7A1479DF7E007F048A
:10124400120CB7D297C2961214DDD2961214D0C2E1
:1012540097E4F55AE4F55BA294E433FF5307017471
:101264004D255BF582E43400F583E0FEEF70047FE6
:101274000180027F00AD5AA805EF088002C333D86D
:10128400FC4EF01214D0055BE55BC3940440C80522
:0E1294005AE55AC3940440BC7B017A00794DA0
:0112A2002229
:1011A800120CDDF55A900001120CF6F55B90000266
:1011B800120CF6F55C900003120CF6F55DC2931262
:0E11C80014BFD2937F017E00121467E4F55924
:1011D600C374039559F55EFFF8E55D088002C313F5
:1011E600D8FC1214BCAF5EA807E55C088002C313E6
:1011F600D8FC1214BCAF5EA807E55B088002C313D7
:10120600D8FC1392901214BFAF5EA807E55A088067
:0B12160002C313D8FC1392901214BF07
:101221000559E559C3940440ACC292D2921214DD1F
:02123100C29267
:011233002298
:0314BC00139290F8
:0814BF00D2911214DDC291224A
:0814D000D2951214DDC2952231
:100D5F004400111F1B041F440015FFFFFFFF440039
:100D6F00000000000044000C0000000044001900C7
:100D7F0000000044002F00000000440004000000A9
:100D8F0000440008FFFFFFFFC10AC189C18842006C
:100D9F002D000050001D00000000000000000000AA
:0A0DAF0000000000000041001000E9
:0613FB008B5A8A5B895C3D
:10140100E4FFAB5DAA5EA95F8F82758300120CF6C3
:10141100FEAB5AAA5BA95C8F82758300120CF66E33
:091421006002C3220FBF04DAD3FC
:01142A00229F
:100DB900C102C101C100C1034100630041006400D7
:100DC90044005B0000000001170044005F000000C0
:010DD9000019
:0300230002069240
:10069200C0E0C0F0C083C082C0D075D000C000C02E
:1006A20001C002C003C004C005C006C007209803F1
:0306B200020850EB
:1006B500859970C298E5171460241470030207B079
:1006C50014700302083F2403600302087AE570648E
:1006D50023600302087AD20175170102087A900097
:1006E50064E0B41008E57024FF9208D20020003BB6
:0806F500E5705407FFBF061F6A
:1006FD00E57030E603D38001C39207900064E0FFFC
:0F070D00A207E433242DF582E43400F583EFF0E6
:10071C00900064E0FF04F0741D2FF582E43400F5C2
:10072C0083E570F020000302087A900064E0641006
:05073C00600302087AD1
:10074100785F7C007D017B017A007904FE7F0412D1
:100751000CB775710075720075F004E571A425720E
:10076100F582E435F0F583E582241DF582E58334D5
:1007710000F583E05407601C745F2571F582E43451
:1007810000F583E0FFAE72A8067401088002C3334E
:10079100D8FC4FF00572E572B404BD0571E571B482
:0C07A10004B3900064E4F0751703D2026A
:1007AD0002087A900063E0FF04F0745B2FF582E499
:1007BD003400F583E570F0900063E064046003029B
:1007CD00087A785F7C007D017B017A007904FE7FD9
:1007DD0004120CB790005BE0245FF582E43400F561
:1007ED0083C083C082E0FF90005CE0FEF8740108D6
:1007FD008002C333D8FC4FD082D083F090005DE0EF
:10080D00245FF582E43400F583C083C082E0FF905D
:10081D00005EE0FEF87401088002C333D8FC4FD0AF
:10082D0082D083F0900063E4F0751703D202D203F7
:10083D00803BE570642A7035900063F0751702C235
:03084D0003802AFB
:10085000309927C299900059E0FF90005AE06F60EC
:1008600017E02451F582E43400F583E0F599900017
:100870005AE0045407F08002C20DD007D006D0051C
:10088000D004D003D002D001D000D0D0D082D08309
:05089000D0F0D0E032C1
:100DDA000842FFFFFF0000010101083AFF0001FF7E
:100DEA0001FF0001044EFF010000044A0000FF0158
:100DFA000436FFFF0101042AFF01FF01082EFEFE4F
:100E0A00FFFF010102020822FF01FE02FE02FF01AA
:020A43008F59C9
:100A450078607C007D007B017A0079047E007F045C
:100A5500120CB778647C007D007B017A0079047EF6
:100A6500007F04120CB7741D2559F582E43400F596
:100A750083E0F55DA209E433242DF582E43400F525
:100A850083E0F55FE55D5407FF7004FB020BE2E5CB
:100A95005D30E603D38001C39205A205300901B399
:100AA5004008A205300801B350057B00020BE2EFB8
:100AB50024FD601A14601C14601B14602824047043
:100AC5002F7B007A007960AF59120FD98022120E60
:100AD5001B801D8003120E1B7B007A007960AF59C5
:100AE500120EFE800B7B007A007960AF59121081DF
:100AF500E4F55AE4F55B7460255AF8E6FD7C007E62
:100B0500007401A85B088005C333CE33CED8F9FF46
:100B1500EE5CFEEF5D4E7003020BC8E55A25E0253D
:100B2500E0455BF55C241DF582E43400F583E0F5D2
:100B35005E741D255CF582E43400F583E55DF07493
:100B45001D2559F582E43400F583E4F0E55D54078D
:100B5500FFBF0610A209E433242DF582E43400F525
:100B650083E55CF0A209E433242DF582E43400F535
:100B750083E0FFA209B39206120895401A74642512
:100B85005AF8C000E6FFAE5BA8067401088002C3F0
:100B950033D8FC4FD000F6741D2559F582E4340096
:100BA500F583E55DF0741D255CF582E43400F5837D
:100BB500E55EF0A209E433242DF582E43400F583E3
:100BC500E55FF0055BE55BC394045003020AFB0592
:100BD5005AE55AC394045003020AF87B007A007957
:010BE50064AB
:010BE60022EC
:061081008B688A69896A90
:10108700741D2FF582E43400F583E05440F56BEFCF
:101097001313543FF56CEF5403F56DE4FF74422FBF
:1010A700F8E6256CFE743A2FF8E6256DFDC3EE646D
:1010B7008094804059EE648094845052C3ED6480DC
:1010C7009480404AED648094845043EE25E025E007
:1010D7002D241DF582E43400F583E0FC54076007F6
:1010E700EC5440656B6027AB68EEF5823395E0F50D
:1010F70083E56A2582F9E5693583FA120CDDFEA8D6
:10110700057401088002C333D8FC4E120D230FEF7C
:04111700640870896F
:01111B0022B1
:060EFE008B688A69896A15
:100F0400741D2FF582E43400F583E05440F56BEF53
:100F14001313543FF56EEF5403F56FE4FF856E6DC4
:100F2400AE6F744E2FF8E6256DF56D744A2FF8E612
:100F34002EFEC3E56D648094805003020FCFE56DEF
:100F4400648094844003020FCFC3EE648094804095
:100F54007AEE64809484507375F004E56DA42EF5E4
:100F640082E435F0F583E582241DF582E5833400BF
:100F7400F583E0F56C54077026AB68AD6DED3395E1
:100F8400E0FCE56A2DF9E5693CFA120CDDFDA806E2
:100F94007401088002C333D8FC4D120D238083E50D
:100FA4006C5440656B6024AB68AD6DED3395E0FC2B
:100FB400E56A2DF9E5693CFA120CDDFDA806740119
:100FC400088002C333D8FC4D120D230FEF64046074
:040FD40003020F21E4
:010FD80022F6
:080E1B007B007A007960AF59F9
:060E23008B688A69896AF0
:100E2900741D2FF582E43400F583E05440F56BEF2F
:100E39001313543FF56EEF5403F56FE4FF856E6DA0
:100E4900AE6F74362FF8E6256DF56D742A2FF8E626
:100E59002EFEC3E56D648094805003020EF4E56DA7
:100E6900648094844003020EF4C3EE64809480404D
:100E79007AEE64809484507375F004E56DA42EF5C0
:100E890082E435F0F583E582241DF582E58334009B
:100E9900F583E0F56C54077026AB68AD6DED3395BD
:100EA900E0FCE56A2DF9E5693CFA120CDDFDA806BE
:100EB9007401088002C333D8FC4D120D238083E5E9
:100EC9006C5440656B6024AB68AD6DED3395E0FC07
:100ED900E56A2DF9E5693CFA120CDDFDA8067401F5
:100EE900088002C333D8FC4D120D230FEF64046050
:040EF90003020E469C
:010EFD0022D2
:060FD9008B688A69896A39
:100FDF00741D2FF582E43400F583E05440F56BEF78
:100FEF001313543FF56CEF5403F56DE4FF742E2F7C
:100FFF00F8E6256CFE74222FF8E6256DFDC3EE642E
:10100F008094804063EE64809484505CC3ED648070
:10101F0094804054ED64809484504D75F004EEA498
:10102F002DF582E435F0F583E582241DF582E58305
:10103F003400F583E0FC54076007EC5440656B60A7
:10104F0027AB68EEF5823395E0F583E56A2582F9E3
:10105F00E5693583FA120CDDFEA8057401088002DC
:10106F00C333D8FC4E120D230FEF64086003020F39
:01107F00FC74
:01108000224D
:10089500EF1313543FF568EF5403F569E4FF742E25
:1008A5002FF8E62568FD74222FF8E62569FEC3EDCD
:1008B500648094804041ED64809484503AC3EE6432
:1008C5008094804032EE64809484502BED25E025A1
:1008D500E04EF9241DF582E43400F583E0FC54076D
:1008E500FBBB0213EC30E6047B0180027B00A20611
:1008F500E433B50302D3220FEF640870A1E4FFAD22
:1009050068AE69744E2FF8E62DFD744A2FF8E62E71
:10091500FEC3ED64809480404DED64809484504620
:10092500C3EE64809480403EEE648094845037ED3D
:1009350025E025E04EF9241DF582E43400F583E039
:10094500FC540760BEEC30E6047B0180027B00A20C
:1009550006E433B50310EC5407F56A64046005E555
:100965006AB40502D3220FEF64047093E4FFAD6807
:10097500AE6974362FF8E62DFD742A2FF8E62EFEA3
:10098500C3ED64809480404DED648094845046C3EB
:10099500EE64809480403EEE648094845037ED256B
:1009A500E025E04EF9241DF582E43400F583E0FCF2
:1009B500540760BEEC30E6047B0180027B00A20692
:1009C500E433B50310EC5407F56A64036005E56A82
:1009D500B40502D3220FEF64047093E4FF74422F31
:1009E500F8E62568FD743A2FF8E62569FEC3ED643F
:1009F5008094804041ED64809484503AC3EE6480D5
:100A050094804032EE64809484502BED25E025E0FF
:100A15004EF9241DF582E43400F583E0FC5407FB10
:100A2500BB0613EC30E6047B0180027B00A206E4E2
:0D0A350033B50302D3220FEF640870A1C394
:010A42002291
:10112800020026E493A3F8E493A34003F68001F2B7
:1011380008DFF48029E493A3F85407240CC8C333C8
:10114800C4540F4420C8834004F456800146F6DF97
:10115800E4800B0102040810204080900D35E47EE5
:10116800019360BCA3FF543F30E509541FFEE4938C
:10117800A360010ECF54C025E060A840B8E493A353
:10118800FAE493A3F8E493A3C8C582C8CAC583CA7E
:10119800F0A3C8C582C8CAC583CADFE9DEE780BE36
:010E1A0000D7
:100BE700E709F608DFFA8046E709F208DFFA803EF0
:100BF70088828C83E709F0A3DFFA8032E309F608DD
:100C0700DFFA8078E309F208DFFA807088828C8344
:100C1700E309F0A3DFFA806489828A83E0A3F608F8
:100C2700DFFA805889828A83E0A3F208DFFA804CD2
:100C370080D280FA80C680D4806980F280338010A9
:100C470080A680EA809A80A880DA80E280CA803312
:100C570089828A83ECFAE493A3C8C582C8CCC5838A
:100C6700CCF0A3C8C582C8CCC583CCDFE9DEE7805A
:100C77000D89828A83E493A3F608DFF9ECFAA9F0D9
:100C8700EDFB2289828A83ECFAE0A3C8C582C8CC2F
:100C9700C583CCF0A3C8C582C8CCC583CCDFEADE48
:100CA700E880DB89828A83E493A3F208DFF980CCAA
:100CB70088F0EF60010E4E60C388F0ED2402B404A3
:100CC7000050B9F582EB2402B4040050AF2323454A
:060CD7008223900C37732C
:100CDD00BB010689828A83E0225002E722BBFE0215
:090CED00E32289828A83E4932248
:100CF600BB010CE58229F582E5833AF583E02250B3
:100D060006E92582F8E622BBFE06E92582F8E222FC
:0D0D1600E58229F582E5833AF583E4932216
:100D2300BB010689828A83F0225002F722BBFE01AF
:020D3300F322A9
:00000001FF
