:030000000203DF19
:0C03DF00787FE4F6D8FD7581200204262A
:1004F7004500186162636465450025313233343540
:1005070044001D00000000440021FFFFFFFFC183DE
:09051700011E00011C00011D0081
:100026001207D17590D87B017A00791D12046B7581
:100036001D0AE51DD394004002151DE51E14603E01
:100046001470030200DC14700302013F14700302F3
:10005600026814700302027F2405600302029930CD
:10006600030BC2037B017A00792112046B20000383
:10007600020299D203751D0A751E01020299300308
:1000860013300110C203C2017B017A0079481204C1
:100096006B751D02E51D60030202991206B7400248
:1000A600807D750E01750F0075100C7B017A007945
:1000B6004812077B9204200402806478107C007D3D
:1000C600017B017A00790C7E007F04120373D20350
:1000D600751E0202029930030EC2037B017A007973
:1000E6001D12046B751D02E51C14603904600302C1
:1000F6000299E51D60030202991206B74002801FAD
:10010600750E01750F0075100C7B017A00791012BF
:10011600077B9204200408D203751E030202997518
:100126001D02020299200103020299C2017B017A93
:0F01360000794812046B02029920030302029918
:10014500C203750D01750E00750F0C7B017A0079E0
:1001550010120658E51C6003020299900009E0FFA1
:1001650012081E7E00C006C007900008E0FF1208B6
:100175001EEFFDD0E02DFFD0E03400FEC006C00725
:1001850090000AE0FF12081EEFFDD0E02DFFD0E041
:100195003400FEC006C00790000BE0FF12081EEFFA
:1001A500FDD0E02DFFD0E03400FEEF64014E705429
:1001B500751C01D203751E02F508E4F509740825BE
:1001C50008F582E43400F583E0FFAE09A80608804F
:1001D50002C313D8FC30E0177F2112084DE508242F
:1001E50030FF12084DE5092430FF12084D8009053E
:1001F50009E509C3940440C50508E508C39404400E
:10020500B9020299900015E0FF12081E7E00C00693
:10021500C007900014E0FF12081EEFFDD0E02DFF8F
:10022500D0E03400FEC006C007900016E0FF1208BB
:100235001EEFFDD0E02DFFD0E03400FEC006C00764
:10024500900017E0FF12081EEFFDD0E02DFFD0E073
:100255003400FED3EF9400EE648094804036751E22
:03026500048031E1
:1002680030030BC2037B017A00792112046BE51D70
:10027800701F751E05801530030BC2037B017A00C1
:10028800791D12046BE51D7008751E04751D0AD2D0
:0B029800037F0A7E001207E702003817
:1007D10053890F438920D28E758DFF7598504387B9
:0607E10080D2ACD2AF2271
:08084D00C2998F993099FD2238
:10000300AD07AC068D828C83E49360100DED700117
:0D0013000C14F582E493FF12084D80E822E2
:1005200052002A3F065B4F666D7D077F6F777C39EF
:050530005E79713D76CB
:05085D00120862D2B494
:02086200002272
:0F080F00D2B5D2B4120862C2B5120862C2B422C6
:0D082C00C2B4120862C2B512085DD2B52236
:0907AB00F582E43400F583E0FF5F
:1007B400E4FEC2B4EF1392B512085DEFC313FF0E4B
:0C07C400BE08EFC2B4D2B512085DC2B48A
:0107D0002206
:0908440012080F1207B402082C7F
:10074B00AC077F4012084412080F7FC01207B47425
:10075B002A2C1207AB742A2D1207AB742A2B120703
:10076B00AB742A251B1207AB12082C7F8F0208448F
:1007FC00438901758CFC758A67C28DD28C308DFD56
:03080C00C28C2279
:1007E700E4FDFCC3ED9FEC9E500A1207FC0DBD0013
:0407F700010C80EF82
:0107FB0022DB
:0D081E00E4FEEF60061452070E80F7AF06EF
:01082B0022AA
:040864000000000090
:060713008B128A13891409
:10071900E4FFAB15AA16A9178F827583001203B2DD
:10072900FEAB12AA13A9148F827583001203B26E4D
:10073900FE74002FF582E43400F583EEF00FBF0458
:01074900D1DE
:01074A00228C
:060658008B0A8A0B890CDD
:10065E00E4FFAB0DAA0EA90F8F827583001203B2B1
:10066E00F4FEAB0AAA0BA90C8F827583001203B29B
:10067E005EFE74082FF582E43400F583EEF08F826F
:10068E007583001203B2F4FEAB0DAA0EA90F8F8272
:10069E007583001203B25EFE74142FF582E43400EB
:0806AE00F583EEF00FBF04AA72
:0106B6002221
:1006B700750A03AF0A150AEF605012057A783C7C79
:1006C700007D017E007F041203737F057E00120701
:1006D700E712057A78407C007D017E007F041203D3
:1006E70073750E01750F007510407B017A00793C18
:1006F70012077B50BE780C7C007D017B017A007964
:0B0707003C7E007F04120373D322C36A
:0107120022C4
:10057A0078447C007D017BFF7A0879647E007F04E1
:10058A00120373D297C296120862D296120855C203
:10059A0097E4F50BE4F50CA294E433FF53070174D6
:1005AA0044250CF582E43400F583E0FEEF70047F05
:1005BA000180027F00AD0BA805EF088002C333D883
:1005CA00FC4EF0120855050CE50CC3940440C8050E
:0E05DA000BE50BC3940440BC7B017A0079440E
:0105E80022F0
:10046B00120399F50B9000011203B2F50C900002E8
:10047B001203B2F50D9000031203B2F50EC29312E4
:0E048B00083CD2937F017E001207E7E4F50AD9
:10049900C37403950AF50FFFF8E50E088002C3132C
:1004A900D8FC120839AF0FA807E50D088002C3135D
:1004B900D8FC120839AF0FA807E50C088002C3134E
:1004C900D8FC13929012083CAF0FA807E50B0880DF
:0B04D90002C313D8FC13929012083CE1
:1004E400050AE50AC3940440ACC292D2921208628F
:0204F400C292B2
:0104F60022E3
:0308390013929087
:08083C00D291120862C2912260
:08085500D295120862C295223F
:1005350044000C1F1B041F440010FFFFFFFF440075
:100545000000000000440008000000004400140002
:0C05550000000044000401020304C10483
:06077B008B0B8A0C890DB6
:10078100E4FFAB0EAA0FA9108F827583001203B28A
:10079100FEAB0BAA0CA90D8F827583001203B26EFA
:0907A1006002C3220FBF04DAD389
:0107AA00222C
:10056100C102C101C10041004C0041004D00011F09
:080571000044004800000000F6
:030023000205E9EA
:1005E900C0E0C083C082C0D075D000C006C007304B
:0205F900985018
:1005FB00859911C298E51F14601114603B24027099
:10060B003FE51164237039D200803290004DE0FF3A
:10061B0004F0C374039FFFE49400FE74482FF5822B
:10062B0074003EF583E511F090004DE0B40411E445
:10063B00F0751F02D2018008E511B42A03751F0162
:0D064B00D007D006D0D0D082D083D0E032CE
:1003EB00020026E493A3F8E493A34003F68001F202
:1003FB0008DFF48029E493A3F85407240CC8C33313
:10040B00C4540F4420C8834004F456800146F6DFE1
:10041B00E4800B01020408102040809004F7E47E76
:10042B00019360BCA3FF543F30E509541FFEE493D6
:10043B00A360010ECF54C025E060A840B8E493A39D
:10044B00FAE493A3F8E493A3C8C582C8CAC583CAC8
:10045B00F0A3C8C582C8CAC583CADFE9DEE780BE80
:010579000081
:1002A300E709F608DFFA8046E709F208DFFA803E3D
:1002B30088828C83E709F0A3DFFA8032E309F6082A
:1002C300DFFA8078E309F208DFFA807088828C8392
:1002D300E309F0A3DFFA806489828A83E0A3F60846
:1002E300DFFA805889828A83E0A3F208DFFA804C20
:1002F30080D280FA80C680D4806980F280338010F7
:1003030080A680EA809A80A880DA80E280CA80335F
:1003130089828A83ECFAE493A3C8C582C8CCC583D7
:10032300CCF0A3C8C582C8CCC583CCDFE9DEE780A7
:100333000D89828A83E493A3F608DFF9ECFAA9F026
:10034300EDFB2289828A83ECFAE0A3C8C582C8CC7C
:10035300C583CCF0A3C8C582C8CCC583CCDFEADE95
:10036300E880DB89828A83E493A3F208DFF980CCF7
:1003730088F0EF60010E4E60C388F0ED2402B404F0
:100383000050B9F582EB2402B4040050AF23234597
:0603930082239002F373C7
:10039900BB010689828A83E0225002E722BBFE0262
:0903A900E32289828A83E4932295
:1003B200BB010CE58229F582E5833AF583E0225000
:1003C20006E92582F8E622BBFE06E92582F8E2224A
:0D03D200E58229F582E5833AF583E4932264
:00000001FF
