:03000000020F08E4
:0C0F0800787FE4F6D8FD758167020F4F7A
:0E11DF00C18D011B00011900011800011A004A
:100BC500E55F540F93FFE55E540F932FFFEC33FE63
:100BD500E560540F932FFFEC3EFEE561540F932F14
:100BE500FFEC22E54E540F90145193FFE54D540F41
:100BF500932FFFE433FEE54F540F937C002FFFEC5A
:100C05003EFEE55022244CF582E43400F583EEF0F7
:100C1500744C2FF582E43400F58322744D2522AE01
:100C250023F8E6FFA8060822AE26E6FFA80674010B
:100C35000822FEA20BE4332462F8A60622752E00D4
:100C4500752F00753056223EFEEF64014E22751B4E
:100C550006E4F519F564F565F566F56722785A7CBD
:100C650000020A202529F8E6FFAE2AA80608227BFD
:100C7500017A0079002275370075380075395622DA
:100C8500E52225E025E02523FF227B007A00795A1D
:100C9500227A00FFEA35F0FEEF6D22E52525E025F5
:090CA500E022E52725E025E0220C
:100026001213EC7590D812068ED20B751A0A30038D
:1000360003120A9E30040312122E300521C2AFC2EB
:1000460005D2AFE509240AFFE50804FDE50B240AFD
:10005600FBE50A04F52E121329751B04D20DE51AC9
:10006600D394004002151AE51BB4080040030206AB
:100076000C90007EF82828730200960200AD02015B
:10008600710201F00200E30205970205A00205FADB
:10009600300D0312069820010302060CD20D751AC4
:1000A6000A751B0102060C300D1820020302060C0D
:1000B600C20DC2027D00120C747E007F04120C6217
:1000C6008020E51A600302060C1212764002802791
:1000D600120679200C02801FD20D02041B300D0B74
:1000E600C20D120C74120DEE0201EAE51A6003024B
:1000F600060C12127640030201EA120C7B7B017A8F
:0B01060000794812138F920C300C5D42
:10011100850822850923850A24850B25120C85244F
:100121004C120C18E05407FEBE060BE52425E02511
:10013100E04525120C37120C15E0FEE52425E025DB
:10014100E02525120C0AE4F0FD7B017A007948FED6
:100151007F04120C62B20B12068E12117850030248
:0D0161000570751B02E4F519D20D02060CA5
:10016E000201EA300D06120643751A0230020BC266
:10017E0002120C74120DEE751A02E51A60030206D5
:10018E000C12127640030201EA120679200C08D2F4
:10019E000D751B0302060C1206A4E51914703D1210
:1001AE000C427A00795A1206163E4F702F120BC56A
:0401BE003E4F702818
:1001C200E551C4540FF522E551540FF5237456122C
:1001D2000C228002C313D8FC30E00AE4F519F55171
:0801E2001206A48003120C5365
:1001EA00751A0202060C300D02C20D120C42120CD4
:1001FA008F12135CE5191470030202911470030242
:10020A00041E24026003020591120BE8120BE1128C
:0B021A000C4C706D120BC53E4F70665F
:10022500C206751901751B02D20DF52230060302AF
:10023500060CE4F523120C208002C313D8FC30E031
:1002450030120C857B007A007964C2071206AE78FD
:10025500007C007D017B007A0079647E007F0412BA
:100265000A20E522C454F04523F551D202D2068076
:10027500090523E523C3940440BB0522E522C39465
:060285000440A902060C72
:10028B00751B0602060C120BE8120BE1120C4C70DC
:10029B000A120BC53E4F700302041B120BE8120B24
:1002AB00E13EFEEF64024E600302033E120BC53EBD
:0602BB004F600302033E48
:1002C100C206F522E4F523120C208002C313D8FCE8
:1002D10030E039E551C4540F75F004A4FFE55154E1
:1002E1000F7C002FFDEC35F0FCE52275F004A42510
:1002F10023120C967002EE6C60127464120C228050
:1003010002C313D8FC30E004D20680070523E5239D
:10031100B404B42006080522E522640470A6200670
:100321000302059178527C007D007B007A007956AA
:0D0331007E007F04120A2075190202058962
:10033E00120BE8120BE1120C4C600302041B120BA1
:09034E00C5120C4C600302041BF3
:10035700F522C206F52374642523F8E6FF745E25AB
:1003670023F8E65F6029E4F524745E2523AE2412A2
:100377000C268002C313D8FC20E0070524E524B42B
:1003870004E7E523C454F04524F522D20680070587
:1003970023E523B404C0200603020591E551C454A4
:1003A7000FF525E551540FF526E522C4540FF5271F
:1003B700E522540FF528120CA02526FF244C120C19
:1003C70018E05407FEBE0608120CA74528120C3782
:1003D700120C15E0FE120CA72528120C0AE4F07483
:1003E7005A2525F8C000120C2D8002C333D8FCF41F
:1003F7005FD000F6745A2527F8C000AE28120C2FDC
:100407008002C333D8FC4FD00012064F40030206C8
:040417000C0205705E
:10041B00020589120C427A0079521206163E4F6081
:0F042B0003020578120BC5120C4C600302057812
:10043A00C206F52974642529F8E6FF745E2529F8B1
:10044A00E65F6028E4F52A745E120C698002C31321
:10045A00D8FC30E00DE529C454F0452AF522D2062D
:10046A008007052AE52AB404DE2006070529E529BE
:10047A00B404C1200603020591E551C4540FF523C3
:10048A00E551540FF524E522C4540FF525E522540D
:10049A000FF526E4F529E4F52A744D120C69800259
:1004AA00C313D8FC30E028E52375F004A47C0025AA
:1004BA0024FDEC35F0FCE52975F004A4252A120C7C
:1004CA00967002EE6C6008852927852A2880070520
:1004DA002AE52AB404C30529E529B404B9E5232584
:1004EA00E025E02524FF244C120C18E05407FEBE38
:1004FA000608120CA04526120C37120C15E0FE1243
:10050A000CA02526120C0AE4F0120CA72528244C6C
:10051A00120C18E4F0745A2523F8C000E6FFAE2442
:10052A00A8067401088002C333D8FCF45FD000F631
:10053A00745A2527F8C000E6FFAE28A806740108F9
:10054A008002C333D8FCF45FD000F6745A2525F82C
:10055A00C000120C2D8002C333D8FC4FD000120603
:0E056A004F400302060C751B05D20D02060C55
:10057800120BE8120BE13E4F700D120BC53E4F7087
:1005880006751B0202060C8000120C5302060C3082
:100598000D7212069802060C300D0DC20D7BFF7A03
:1005A800147985120DEE0518E51A7058E518C394EC
:1005B80006403AE4F5181212765024120C7B120CFD
:1005C8008F12138F920C300C16751B02E4F5197BF1
:1005D800FF7A147981120DEED20D751A0A80251250
:1005E8000C8F120DEE751A32E4F5188017751B077B
:1005F800800D300D03120643E51A7008751B067549
:100608001A0AD20D7F0A7E001214020200347B00FF
:1006180012135CE54E540F90145193FFE54D540F9F
:10062800932FFFE433FEE54F540F937C002FFFEC2C
:100638003EFEE550540F932FFFEC22C20D7BFF7A4C
:10064800147981120DEE22F6B20BE4F519751B022E
:10065800F564F565F566F5677513AA750F03750DED
:1006680002900044E551F0A3E522F0D2041211787B
:10067800227537007538007539567B007A00795A2B
:1006880012138F920C227BFF7A147981120DEE22BD
:10069800C20D7BFF7A147985120DEE227BFF7A1446
:0606A8007981120DEE2223
:0811ED00011C00011D00C10EF0
:1013EC0053890F438920D28E758DFF759850438792
:0613FC0080D2ACD2AF224A
:1012F300E51C045407FE651D602BAD1C745C2DF5C5
:1013030082E43400F583EFF08E1C200E18D20EAF6A
:101313001D745C2FF582E43400F583E0F599E51D37
:05132300045407F51D54
:0113280022A2
:10143F003F065B4F666D7D077F6F777C395E7971F5
:02144F003D76E8
:0B146D00D2B5D2B400C2B500C2B42258
:0C146100C2B400C2B500D2B400D2B52263
:10000300E4FEC2B4EF1392B500D2B400EFC313FF02
:0E0013000EBE08EEC2B4D2B500D2B400C2B424
:0100210022BC
:0914780012146D1200030214614C
:10132900AC077F4012147812146D7FC0120003ECD1
:1013390090143F93FF120003ED93FF120003EB9308
:10134900FF120003E52E93FF1200031214617F8F31
:0313590002147803
:10145100000101020102020301020203020303046B
:10142C00438901758CFC758A67C28DD28C308DFD19
:03143C00C28C223D
:10140200E4FDFCC3ED9FEC9E500A12142C0DBD00AE
:04141200010C80EF5A
:0114160022B3
:10141700AB2EAA2FA9308F82758300020A5F7B004B
:051427007A00792B2280
:06135C008B2B8A2C892D69
:10136200E4FF121417F4FEAB2BAA2CA92D12141DA4
:101372005EFE744D2FF8A60612141DF4FE12141709
:0C1382005EFE745E2FF8A6060FBF04D6B6
:01138E00223C
:10127600753303AF331533EF603912142512109608
:101286007F057E001214027B007A00792F121096D9
:1012960075370075380075392F12142512138F50C3
:1012A600D278567C007D001214257E007F04120A37
:0412B60020D322C35C
:0112BA002211
:061096008B348A35893617
:10109C00A801AC02AD037BFF7A1479817E007F043A
:1010AC00120A20D297C29600D29612148FC297E4DD
:1010BC00F537E4F538A294E433FF530701AB34E57C
:1010CC00362538F9E43535FA120A46FEEF70047FFE
:1010DC000180027F00AD37A805EF088002C333D82A
:1010EC00FC4E120A8C12148F0538E538C394044058
:0A10FC00C40537E537C3940440B87B
:0111060022C6
:100DEE00120A46F52C900001120A5FF52D900002B2
:100DFE00120A5FF52E900003120A5FF52FC29312AE
:0E0E0E001489D2937F017E00121402E4F52BAA
:100E1C00C37403952BF530FFF8E52F088002C3133C
:100E2C00D8FC120E70E52E088002C313D8FC120EEB
:100E3C0070E52D088002C313D8FC1392901214890C
:100E4C00AF30A807E52C088002C313D8FC1392908E
:030E5C00121489E4
:100E5F00052BE52BC3940440B4C292D29200C292E8
:0C0E6F0022139290121489AF30A80722C1
:06148900D29100C2912285
:06148F00D29500C2952277
:0814810000000000FFFFFFFF67
:1011F500C10CC18BC18A02620000044900000000D5
:071205000247000001510047
:06138F008B348A3589361B
:10139500E4FFAB37AA38A9398F82758300120A5F3B
:1013A500FEAB34AA35A9368F82758300120A5F6EAB
:0913B5006002C3220FBF04DAD369
:0113BE00220C
:10120C00C102C101C100C105011000011500040893
:0E121C0000000000011400011700C103C1040E
:1013BF007404252BF582E43400F58322F583AE09FE
:1013CF00E0FFA80674010822E4900000F0A3F0A348
:0D13DF00F0A3F0F52B2274002FF582E4221C
:03002300020CAE1E
:100CAE00C0E0C083C082C0D075D000C00730986D40
:100CBE00859946C298E51714601A1460231460369D
:100CCE0014604E2404707BE54664AA7075F51175A8
:100CDE001701806E85460EE5466211751702806219
:100CEE0085460C751600E5466211E50CD39400405E
:100CFE001B751703804CAF16051674042F1213C301
:100D0E00E546F06211E516C3950C40367517048062
:0D0D1E0031E546B51102D20375170080259E
:100D2B00309922C299E51D651C6018AF1D745C2FAC
:100D3B00F582E43400F583E0F599E51D045407F5DD
:100D4B001D8002C20ED007D0D0D082D083D0E0322B
:100A9E00200303020BC4C203E50E24FE6010147083
:100AAE0003020B3E24026003020BC4D20122E4F5C2
:010ABE002B0C
:100ABF001213BFE0F52C744C252BF582E43400F5AE
:0A0ACF0083E52CF05407FFBF061466
:100AD900E52C30E603D38001C39207A207E433244F
:040AE90062F8A62BDE
:100AED00052BE52BB410CB1213BFE024FF920A1295
:100AFD0013D7E4FFE52B25E025E02F244CF582E408
:100B0D003400F583E05407601A7400252BF582E458
:100B1D003400F583E0FEA8077401088002C333D8C2
:100B2D00FC4EF00FBF04CD052BE52BB404C4D2024F
:100B3D00221213D71213BFE0FF7408252BF8A60756
:100B4D00052BE52BB404EDAF081213E53400121399
:100B5D00CB8002C333D8FC4FF0AF0A1213E534003B
:100B6D00F583AE0B1213CF8002C333D8FC4FF07850
:100B7D00487C007D017B007A00795A7E007F04124B
:100B8D000A20AF0874482FF582E434001213CB808D
:100B9D0002C333D8FCF45FF0AF0A74482FF582E43A
:100BAD003400F583E0FFAE0BA8067401088002C384
:070BBD0033D8FC4FF0D20514
:010BC400220E
:10122E00300444C204E4F512AF131212F3AF0F12DE
:10123E0012F3AF0D1212F3E50F6212E50D6212E416
:10124E00F52BE52BC3950D50197444252BF582E42F
:10125E003400F583E0F52C6212AF2C1212F3052B3D
:07126E0080E0AF121212F341
:011275002256
:1012BB00FFFFFF0000010101FF0001FF01FF000123
:1012CB00FF0100000000FF01FFFF0101FF01FF0113
:1012DB00FEFEFFFF01010202FF01FE02FE02FF0103
:0812EB000204081010080402BF
:03122A00011E00A2
:10110700ED25E025E04EF9244CF582E43400F58323
:1011170022AB3EAD43ED3395E0FCE5402DF9E53FCD
:101127003CFA120A46FDA80674010822253EFDEF87
:1011370093253FFEC3ED6480948022FDC3EE648057
:101147009480227B007A00793AAF3022A20BE433F5
:101157002462F822AB3EAD43ED3395E0FCE5402D2C
:10116700F9E53F223583FA120A46FEA805740108FD
:011177002255
:0806AE008F308B318A32893351
:1006B600E4F53AF53BF53CF53DA801AC02AD037B0C
:1006C600FF7A147981FE7F04120A20744C253012B9
:1006D6001110E0F537121153E6F539E5375407FFE7
:1006E60070030207FFE53730E603D38001C39208A3
:1006F600A208300B01B350030207FF20070BA20824
:10070600300A01B350030207FFEF24FD60151460A1
:100716001A1460191460242404702612114A121047
:1007260015801E12114A120D5B8016800612114AA0
:10073600120D5B12114A120E7B800612114A120F1D
:1007460094E4F534E4F535743A2534F8E6FD7C0096
:100756007E007401A835088005C333CE33CED8F9A0
:10076600FFEE5CFEEF5D4E6078E53425E025E04562
:1007760035F53612110EE0F538744C253612111087
:10078600E537F0744C2530121110E4F0E5375407C4
:10079600FFBF0605121153A636121153E6FFA20B30
:1007A600B392091208004020AB31E5332534F9E451
:1007B6003532FA120A46FFAE35A8067401088002E1
:1007C600C333D8FC4F120A8C744C2530121110E535
:1007D60037F0744C2536121110E538F0121153A675
:1007E600390535E535C39404500302074D0534E554
:0907F60034C39404500302074AC5
:0107FF0022D7
:060F94008B3E8A3F8940FC
:100F9A00744C2F121110E05440F541EF1313543FD3
:100FAA00F542EF5403F543E4FFEF9012BB93254259
:100FBA00FEEF9012C39325431211424047EE64801C
:100FCA009484504012113B403BED64809484503429
:100FDA00EE25E025E02D12110EE0FC54076007EC27
:100FEA0054406541601EAB3EEEF5823395E0F583D1
:100FFA00E5402582F9E53F12116B8002C333D8FC24
:0A100A004E120A8C0FEF6408709F6D
:0110140022B9
:060E7B008B3E8A3F894016
:100E8100744C2F121110E05440F541EF1313543FED
:100E9100F544EF5403F545E4FF854443AE45EF9037
:100EA10012CB932543F543EF9012CF932EFEC3E56A
:100EB10043648094804049E54364809484504112A6
:100EC1001143403CEE648094845035E54325E02590
:100ED100E02E12110EE0F5425407700F1211188026
:100EE10002C333D8FC4D120A8C80B3E542544065ED
:100EF10041600D1211188002C333D8FC4D120A8CC7
:060F01000FEF6404709381
:010F070022C7
:060D5B008B3E8A3F894037
:100D6100744C2F121110E05440F541EF1313543F0E
:100D7100F544EF5403F545E4FF854443AE45EF9058
:100D810012D3932543F543EF9012D7932EFEC3E57B
:100D91004364809480404FE54364809484504712BB
:100DA10011434042EE64809484503BE54325E025A5
:100DB100E02E12110EE0F5425407701212115B126F
:100DC10011278002C333D8FC4D120A8C80B0E54252
:100DD10054406541601012115B1211278002C33328
:0C0DE100D8FC4D120A8C0FEF6404708DDA
:010DED0022E3
:061015008B3E8A3F89407A
:10101B00744C2F121110E05440F541EF1313543F51
:10102B00F542EF5403F543E4FFEF9012DB932542B7
:10103B00FEEF9012E39325431211424047EE64807A
:10104B009484504012113B403BED648094845034A7
:10105B00EE25E025E02D12110EE0FC54076007ECA5
:10106B0054406541601EAB3EEEF5823395E0F5834F
:10107B00E5402582F9E53F12116B8002C333D8FCA2
:0A108B004E120A8C0FEF6408709FEC
:011095002238
:10080000EF1313543FF53EEF5403F53FE4FFEF9031
:1008100012DB939012E31211334031ED6480948423
:10082000502A1211434025EE64809484501E121108
:1008300007E0FC5407FBBB0213EC30E6047B0180AD
:10084000027B00A209E433B50302D3220FEF640850
:1008500070BCE4FFAD3EAE3FEF9012CB932DFDEFA9
:100860009012CF932E12113A403DED648094845043
:10087000361211434031EE64809484502A121107DD
:10088000E0FC540760D2EC30E6047B0180027B0080
:10089000A209E433B50310EC5407F5406404600585
:1008A000E540B40502D3220FEF640470A7E4FFAD66
:1008B0003EAE3FEF9012D3932DFDEF9012D7932EC3
:1008C00012113A403DED6480948450361211434039
:1008D00031EE64809484502A121107E0FC540760C2
:1008E000D2EC30E6047B0180027B00A209E433B540
:1008F0000310EC5407F54064036005E540B40502BD
:10090000D3220FEF640470A7E4FFEF9012BB939023
:1009100012C31211334031ED64809484502A1211B5
:10092000434025EE64809484501E121107E0FC546D
:1009300007FBBB0613EC30E6047B0180027B00A2C0
:0F09400009E433B50302D3220FEF640870BCC380
:01094F002285
:10117800121153E6FF7B007A00792CD2071211D3A3
:101188006002C322E4F52B744C252B121110E06089
:101198002F30E6047F0180027F00A20BE4336F70DA
:1011A8001F744C252B121110E05407640660117B44
:1011B800007A00792CD207AF2B1211D36002C32218
:0A11C800052BE52BC3941040BED3A5
:0D11D200221206AEE52C452D452E452F229C
:100F1400020026E493A3F8E493A34003F68001F2CD
:100F240008DFF48029E493A3F85407240CC8C333DE
:100F3400C4540F4420C8834004F456800146F6DFAD
:100F4400E4800B01020408102040809011DFE47E4D
:100F5400019360BCA3FF543F30E509541FFEE493A2
:100F6400A360010ECF54C025E060A840B8E493A369
:100F7400FAE493A3F8E493A3C8C582C8CAC583CA94
:100F8400F0A3C8C582C8CAC583CADFE9DEE780BE4C
:01122D0000C0
:10095000E709F608DFFA8046E709F208DFFA803E89
:1009600088828C83E709F0A3DFFA8032E309F60876
:10097000DFFA8078E309F208DFFA807088828C83DE
:10098000E309F0A3DFFA806489828A83E0A3F60892
:10099000DFFA805889828A83E0A3F208DFFA804C6C
:1009A00080D280FA80C680D4806980F28033801043
:1009B00080A680EA809A80A880DA80E280CA8033AC
:1009C00089828A83ECFAE493A3C8C582C8CCC58324
:1009D000CCF0A3C8C582C8CCC583CCDFE9DEE780F4
:1009E0000D89828A83E493A3F608DFF9ECFAA9F073
:1009F000EDFB2289828A83ECFAE0A3C8C582C8CCC9
:100A0000C583CCF0A3C8C582C8CCC583CCDFEADEE1
:100A1000E880DB89828A83E493A3F208DFF980CC43
:100A200088F0EF60010E4E60C388F0ED2402B4043C
:100A30000050B9F582EB2402B4040050AF232345E3
:060A400082239009A0735F
:100A4600BB010689828A83E0225002E722BBFE02AE
:090A5600E32289828A83E49322E1
:100A5F00BB010CE58229F582E5833AF583E022504C
:100A6F0006E92582F8E622BBFE06E92582F8E22296
:0D0A7F00E58229F582E5833AF583E49322B0
:100A8C00BB010689828A83F0225002F722BBFE0149
:020A9C00F32243
:00000001FF
