:0300000002149C4B
:0C149C00787FE4F6D8FD75817D0214E332
:0E17F200C18D01150001130001120001140049
:1016BB0074532522AE23F8E6FFA8060822752E00E8
:1016CB00752F0075305C7B007A0079642274762567
:1016DB0023F8E6FF746C2523F8E622E52233333337
:1016EB0054F8452322E52333333354F84524F522AC
:1016FB00D206227E007F08020D0AE6FFE52A540778
:10170B00FEF874010822E52A131313541F2422F840
:10171B00227B017A00795A22753F00754000754192
:02172B005C223E
:10002600121A2F7590D8120522D20B75140A3003B6
:1000360003120ED030040312183E300529C2AFC297
:1000460005D2AF900057E0240AFF900056E004FD69
:10005600900059E0240AFB900058E004F52E12198E
:1000660043751504D20DE514D3940040021514E52A
:1000760015B4080040030204E1900086F8282873AE
:1000860002009E0200C102017D0202040201030277
:10009600040902047D0204CF300D0F752E017B0288
:1000A6007D027F011219431205752001030204E146
:1000B600D20D75140A7515010204E1300D24752E52
:1000C600027B037D037F021219432002030204E12F
:1000D600C20DC20278647C007D0012171C1216FE47
:1000E6008020E51460030204E1121886400280278E
:1000F60012050D200C02801FD20D02037B300D0B62
:10010600C20D12171C1209480201FEE51460030213
:1001160004E112188640030201FE1217237B017ABE
:0B0126000079001219A9920C300C495E
:10013100900056E0F522A3E0F523A3E0F524A3E027
:10014100F525900056E033333354F8FFA3E04FFF19
:10015100A3E033333354F8FEA3E04EFDC20712058A
:100161008B1215B25005751505D20D1205227515A4
:0901710002E4F513D20D0204E1D1
:10017A000201FE300D12752E037B047D047F0312EB
:10018A00194312050175140230020BC20212171C20
:10019A00120948751402E51460030204E112188674
:1001AA0040030201FE12050D200C08D20D7515033D
:1001BA000204E1120561E5131470391216C812041B
:0A01CA00F4EF7030FB1204EB702A12
:1001D400E55B131313541FF522E55B5407F52374F1
:1001E4005C1216BD8002C313D8FC30E00AE4F51398
:0A01F400F55B12056180031205811E
:1001FE007514020204E1300D02C20D1216C8121956
:10020E0076E5131470030202A214700302037E2417
:10021E00026003020403752E017B017D017F011232
:0F022E00194312052CEF64017064120536705FDE
:10023D00C206751301751502D20DF52230060302A3
:10024D0004E1E4F5231216BB8002C313D8FC30E0A1
:10025D00291216E6FF7B007A007976C207120ADEB4
:10026D00785A7C007D017B007A0079761216FE1299
:10027D0016E6F55BD202D20680090523E523C39469
:0F028D000840C20522E522C3940840B00204E1F4
:10029C007515060204E112052CBF010A7B0012043D
:1002AC00EB700302037B1205566402706F12053665
:0202BC00706A66
:1002BE00C206F522E4F5231216BB8002C313D8FC46
:1002CE0030E026E55B131313541FFFE55B54074F15
:1002DE00FF1216E66F601274761216BD8002C313FB
:1002EE00D8FC30E004D20680070523E523B408C706
:1002FE002006080522E522640870B92006030204D0
:10030E0003780E7C007D017B007A00795C7E007F95
:0A031E0008120D0A7513020203FB1A
:0E0328001205566401704C12056B640170459D
:10033600F522C206F5231216D85F6021E4F524746F
:100346006C2523AE241216C18002C313D8FC20E00C
:10035600070524E524B408E71216F080070523E50F
:1003660023B408D220060302040312054040030208
:0503760004E10203DCBC
:10037B000203FB752E00752F0075305C7B017A0034
:0F038B00790E1204F4EF705112056B6401704A81
:10039A00C206F5231216D85F6024E4F5241216DF8C
:1003AA00FFAE24A806088002C313D8FC30E0051269
:1003BA0016F080070524E524B408E2200607052381
:1003CA00E523B408CF200602802F1205404003021D
:0A03DA0004E1751505D20D0204E1DF
:1003E4007B007A00795312172DEF7011FB7A007994
:1003F4006C12172DEF70067515020204E1800012CD
:0B04040005810204E1200D030204E169
:10040F00C20DA20BE4332474F8E6F52AE518640153
:10041F007021F522F523F524F525F526F527F52886
:10042F00F529121711C0001217058002C333D8FC2B
:10043F004F802CE518702B7522FF7523FF7524FF55
:10044F007525FF7526FF7527FF7528FF7529FF1284
:10045F001711C0001217058002C333D8FCF45FD008
:0B046F0000F67B007A00792212094899
:10047A000204E1300D051205750512E5147058E500
:10048A0012C39406403AE4F5121218865024121741
:10049A00231216D11219A9920C300C16751502E402
:1004AA00F5137BFF7A1A79A1120948D20D75140A3D
:1004BA0080251216D1120948751432E4F5128017F4
:1004CA00751507800D300D03120501E514700875C6
:1004DA00150675140AD20D7F0A7E00121A4502000B
:1004EA00347A00796C12172DEF221219767B007A72
:1004FA0000795312172D22C20D7BFF7A1A79A112A5
:10050A00094822753F0075400075415C7B007A00FE
:10051A0079641219A9920C227BFF7A1A79A112091D
:10052A0048227B007A00795312172D22FB7A007930
:10053A006C12172DEF22E4F513751502121A7FD2E9
:10054A0007AD22AF5B12058B1215B2227B007A002F
:10055A00795312172DEF227BFF7A1A79A1120948D3
:10056A0022FB7A00796C12172DEF22C20D7BFF7ADB
:10057A001A79A912094822751506E4F513121A7F89
:01058A00224E
:08180000011600011700C10EE2
:101A2F0053890F438920D28E758DFF759850438748
:061A3F0080D2ACD2AF2200
:10190D00E516045407FE6517602BAD1674A82DF56A
:10191D0082E43400F583EFF08E16200E18D20EAF50
:10192D001774A82FF582E43400F583E0F599E517D7
:05193D00045407F5173A
:011942002282
:101A6D003F065B4F666D7D077F6F777C395E7971C1
:021A7D003D76B4
:0B1ABD00D2B5D2B400C2B500C2B42202
:0C1AB100C2B400C2B500D2B400D2B5220D
:10000300E4FEC2B4EF1392B500D2B400EFC313FF02
:0E0013000EBE08EEC2B4D2B500D2B400C2B424
:0100210022BC
:091AC800121ABD120003021AB14A
:10194300AC077F40121AC8121ABD7FC0120003EC05
:10195300901A6D93FF120003ED93FF120003EB93B4
:10196300FF120003E52E93FF120003121AB17F8FBB
:03197300021AC88D
:101A91000001010201020203010202030203030425
:101A09002D2FFF120D49FE54F0C4540F901A9193D3
:101A1900FDEE540F932D2FFF22120D4954F0C4549B
:061A29000F901A919322B8
:101A5A00438901758CFC758A67C28DD28C308DFDE5
:031A6A00C28C2209
:101A4500E4FDFCC3ED9FEC9E500A121A5A0DBD0031
:041A5500010C80EF11
:011A5900226A
:10172D00900001120D49FF121A25FEEF540F932E52
:10173D00FF120D30FE121A25FDEE540F939000028C
:10174D00121A09900003120D49FE121A25FDEE54CE
:10175D000F93900004121A09900005121A0C9000B4
:10176D0006121A22FE900006120D49121A282E2F6B
:10177D00FF900007121A22FE900007120D49121A4F
:05178D00282E2FFF22B1
:10179200A294E433F541534101E5402404FFE433CC
:1017A200FEAB3CE53E2FF9E53D3EFA120D30FF223D
:1017B200AB2EAA2FA9308F82758300020D49A29405
:1017C200E433F541534101AB3CE53E2540F9E435B4
:1017D2003DFA120D30FF227403C3952BF534FFF846
:1017E20022053FE53FC39404227B007A00792B2235
:061976008B2B8A2C892D49
:10197C00E4FF1217B2F4FEAB2BAA2CA92D1217B848
:10198C005EFE74532FF8A6061217B8F4FE1217B2A7
:0C199C005EFE746C2FF8A6060FBF08D684
:0119A800221C
:10188600753B03AF3B153BEF60391217EB12127134
:101896007F057E00121A457B007A00793312127199
:1018A600753F007540007541331217EB1219A950A8
:1018B600D2785C7C007D001217EB7E007F08120D4B
:0418C6000AD322C35C
:0118CA0022FB
:061271008B3C8A3D893E22
:10127700A801AC02AD037BFF7A1A79A17E007F0833
:10128700120D0AD297C29600D296121AD7C297E4C5
:10129700F53FE4F5401217C0E54170047E01800276
:1012A7007E00AD3FA805EE088002C333D8FC1213B9
:1012B7004140E21217E340DAE4F53FE4F540121744
:1012C700C0E53F2404FEE54170047D0180027D00F6
:1012D700A806ED088002C333D8FC12134140DF1281
:1012E70017E340D7E4F53FE4F540121792E53F24B2
:1012F70004FEE54170047D0180027D00A806ED082B
:101307008002C333D8FC12135040DF1217E340D7D3
:10131700E4F53FE4F540121792E54170047E018041
:10132700027E00AD3FA805EE088002C333D8FC1249
:09133700135040E21217E340DA02
:10134000224F120D76121AD70540E540C3940422AD
:0F1350004F120D76121AD70540E540C3940422C0
:10094800120D30F52C900001120D49F52D90000282
:10095800120D49F52E900003120D49F52F90000451
:10096800120D49F530900005120D49F53190000639
:10097800120D49F532900007120D49F533C2931252
:0E0988001AD1D2937F017E00121A45E4F52B9E
:100996001217D9E533088002C313D8FC120A80E582
:1009A60032088002C313D8FC120A80E5310880029F
:1009B600C313D8FC120A8BE530088002C313D8FC97
:0809C600120AAC40CBE4F52B52
:1009CE0074071217DBE533088002C313D8FC120A32
:1009DE008BE532088002C313D8FC120A96E5310863
:1009EE008002C313D8FC120A96E530088002C313A6
:0209FE00D8FC23
:080A0000120AAC40C9E4F52B19
:100A0800C374071217DCE52F088002C313D8FC1241
:100A18000AA1E52E088002C313D8FC120AA1E52D0D
:100A2800088002C313D8FC120ABAE52C088002C356
:030A380013D8FCD4
:080A3B00120AC540C8E4F52BC6
:100A43001217D9E52F088002C313D8FC120ABAE59E
:100A53002E088002C313D8FC120AD3E52D088002A6
:100A6300C313D8FC120AD3E52C088002C313D8FCA5
:0C0A7300120AC540CBC292D29200C2927F
:100A7F0022139290121AD1AF34A807221392901218
:100A8F001AD1AF34A80722139290121AD1AF34A8FB
:100A9F000722139290121AD1AF34A8072213929003
:100AAF00121AD1052BE52BC3940422139290121A1C
:100ABF00D1AF34A80722139290121AD1052BE52B30
:0F0ACF00C3940422139290121AD1AF34A80722B5
:061AD100D29100C2912237
:061AD700D29500C2952229
:101AA1000000000000000000FFFFFFFFFFFFFFFF3D
:10180800C10CC18BC18A0274000044000A000000A8
:09181800004200080000015B0021
:101A7F00E4F576F577F578F579F57AF57BF57CF57C
:021A8F007D22B6
:0619A9008B3C8A3D893EE3
:1019AF00E4FFAB3FAA40A9418F82758300120D4916
:1019BF00FEAB3CAA3DA93E8F82758300120D496E86
:0919CF006002C3220FBF08DAD345
:0119D80022EC
:10182100C102C101C100C105440056000000000110
:091831000F00011100C103C10404
:1018CB00E490005AF0A3F0A3F0A3F0A3F0A3F0A3CD
:1018DB00F0A3F0227462252BF582E43400F5832209
:1018EB00E0900057FFE0FEF874010822E0245AF55F
:1018FB0082E43400F58322E02400F582E43400F521
:02190B00832235
:0300230002135F66
:10135F00C0E0C083C082C0D075D000C00730986D88
:10136F00859952C298E51114601A146023146036DF
:10137F0014604E2404707BE55264AA7075F50C75E9
:10138F001101806E85520AE552620C75110280625E
:10139F00855208751000E552620CE508D3940040A1
:1013AF001B751103804CAF10051074622F1218E3D8
:1013BF00E552F0620CE510C39508403675110480B4
:0D13CF0031E552B50C02D2037511008025E6
:1013DC00309922C299E51765166018AF1774A82FBB
:1013EC00F582E43400F583E0F599E517045407F52C
:1013FC00178002C20ED007D0D0D082D083D0E0327A
:100ED000200303021014C203E50A24FE60101470FC
:100EE00003020F7324026003021014D20122E4F5FE
:010EF0002BD6
:100EF1001218DFE0F52C7416252BF582E43400F589
:0A0F010083E52CF05407FFBF06142F
:100F0B00E52C30E603D38001C39207A207E4332418
:040F1B0074F8A62B95
:100F1F00052BE52BB440CB1218DFE024FF920A1209
:100F2F0018CBF52BE4FDE52B75F008A4FFEDFBEFD7
:100F3F004B2416F582740035F0F583E054076016E4
:100F4F00745A252B1218FAE0FFA8057401088002C5
:100F5F00C333D8FC4FF00DBD08CC052BE52BB408DF
:100F6F00C3D202221218CBF52B1218DFE0FF7456F2
:100F7F00252BF582E43400F583EFF0052BE52BB438
:100F8F0004E79000561218F7C083C0821218EB8046
:100F9F0002C333D8FC4FD082D083F0900058121880
:100FAF00F7C083C082E09000591218EF8002C3335C
:100FBF00D8FC4FD082D083F078007C007D017B007D
:100FCF007A0079647E007F08120D0A90005612197C
:100FDF0002C083C0821218EB8002C333D8FCF45FC7
:100FEF00D082D083F0900058121902C083C082E0E3
:100FFF00FF9000591218F08002C333D8FC4FD082F3
:05100F00D083F0D205C2
:0110140022B9
:10183E00300444C204E4F50DAF0E12190DAF0B12B5
:10184E00190DAF0912190DE50B620DE509620DE4D4
:10185E00F52BE52BC39509501974A3252BF582E4BE
:10186E003400F583E0F52C620DAF2C12190D052B0B
:07187E0080E0AF0D12190D0F
:011885002240
:1019D900FFFFFF0000010101FF0001FF01FF0001FE
:1019E900FF0100000000FF01FFFF0101FF01FF01EE
:1019F900FEFEFFFF01010202FF01FE02FE02FF01DE
:03183A0001180092
:10114A00E933333354F84CF5492416F582E4340074
:10115A00F583E02234FF45F0FEEB4F2416F5827446
:10116A00003EF583E022AB46AD4BED3395E0FCE55E
:10117A00482DF9E5473CFA120D30FDA8067401081E
:10118A00227B007A00793EAF3422E52C75F008A460
:10119A00FFEF452D2416F582740035F0F58322AB56
:1011AA0047E549254DF9E43548FA020D302546F957
:1011BA00EF932547FCC3E96480948022E0900057AE
:1011CA00FFE0FEF874010822A20BE4332474F8222B
:1011DA007416253AF582E43400F58322E54A75F05F
:1011EA0008A4FF22EF131313541F22AB46E5482528
:1011FA004AF9E43547FA120D30FFE54B22AB46AD0A
:10120A004BED3395E0FCE5482DF9E54722AF48EF71
:10121A003395E0254675F008A4FFE54722E6FFA8C6
:10122A000674010822FDC3EE64809480223583FA95
:10123A00120D30FEA80574010822C3EC6480948064
:10124A0022F582E43400F58322F0A3F0A3F0A3F0A0
:10125A0022E0245AF582E43400F58322E02400F5E2
:07126A0082E43400F5832249
:02058B008D2BB6
:10058D00C208C2091211EEF52CEF5407F52DE52B1B
:10059D00131313541FF52EE52B5407F52F12119439
:1005AD00E05407640660030206C5A20B332408124B
:1005BD00124BE060030206A8E52DB40406E52F6496
:1005CD00066012E52D640460030206A8E52F64029F
:1005DD0060030206A8D209E52FB40604C2088007FD
:1005ED00E52FB40202D208900056E52CF020080445
:1005FD007F0780027F00900057EFF0A3E52EF020DB
:10060D0008047F0580027F03900059EFF0E490000D
:10061D005A121253A312125390005612125BC0833A
:10062D00C0821211C68002C333D8FC4FD082D08352
:10063D00F090005812125BC083C082E090005912F6
:10064D0011CA8002C333D8FC4FD082D083F078001A
:10065D007C007D017B007A0079647E007F08120D9D
:10066D000A900056121266C083C0821211C6800213
:10067D00C333D8FCF45FD082D083F09000581212AF
:10068D0066C083C082E0FF9000591211CB8002C377
:10069D0033D8FC4FD082D083F0D205E52E333333DF
:1006AD0054F8452FFFA20BE433FE2474F8A607740B
:1006BD00082E12124B7401F0E52C75F008A4FFE51D
:1006CD00F0FCEF452DFD2416F58274003CF583E01A
:1006DD005407FFBF0430A20BE43325E0FFE433FEE3
:1006ED00740A2FF58274003EF583E52DD394047EB4
:1006FD000040047F0180027F00E5822FF582E583B3
:10070D003EF5837401F074162DF58274003CF5836B
:10071D00E0FDE52E75F008A4FFE52FFBEF4B121160
:10072D009EEDF0121194E4F07464252CF8C000AE27
:10073D002D1212278002C333D8FCF45FD000F6745B
:10074D0064252EF8C000AE2F1212278002C333D8B5
:10075D00FC4FD000F6200902B20B300715750EAA1A
:10076D00750B037509029000A3E55BF0A3E52BF073
:02077D00D204A4
:01077F002257
:080ADE008F348B358A3689370D
:100AE600E4F53EF53FF540F541F542F543F544F5AD
:100AF60045A801AC02AD037BFF7A1A79A1FE7F08F7
:100B0600120D0A74162534121155F53B1211D2E650
:100B1600F53DE53B5407FF7003020C39E53B30E633
:100B260003D38001C39208A208300B01B35003021D
:100B36000C3920070BA208300A01B35003020C3906
:100B4600EF24FE601814601D1460221460211460E6
:100B56002C2405702E12118B121015802612118B63
:100B660012163A801E12118B12140C801680061271
:100B7600118B12140C12118B121528800612118B70
:100B8600120D88E4F538E4F539743E2538F8E6FDAB
:100B96007C007E007401A839088005C333CE33CEAD
:100BA600D8F9FFEE5CFEEF5D4E6070E53833333307
:100BB60054F84539F53A121153F53C1211DAE53B72
:100BC600F0741625341211DEE4F0E53B5407FFBF3E
:100BD60006051211D2A63A1211D2E6FFA20BB39263
:100BE600091207804020AB35E5372538F9E435365C
:100BF600FA120D30FFAE39A8067401088002C3331D
:100C0600D8FC4F120D76741625341211DEE53BF032
:100C16001211DAE53CF01211D2A63D0539E539C3C9
:100C260094085003020B8F0538E538C39408500327
:030C3600020B8C22
:010C39002298
:081015008F468B478A48894988
:10101D00E546131313541FFFE5465407F54B74169D
:10102D0025461211555440F54A30E60875500175A4
:10103D004F0180067550FF754F06E550333333541D
:10104D00F8F551E5502FF54DC39408506CE54DC39F
:10105D0094004065E5462551F54C12115354077027
:10106D00581211A9FEAD4BA8057401088002C333B7
:10107D00D8FC4E120D76E551254CF54CEF654F70B1
:10108D00387416254C1211555407702DAF50EF338F
:10109D0095E0FEE54D2FFFE43EFEAB47E5492FF908
:1010AD00E5483EFA120D30FFAE4BA80674010880DC
:1010BD0002C333D8FC4F120D76E54BD39400403A62
:1010CD00E54D94004034E54D9408502EE5462551EC
:1010DD0014F54C121153F54E5407601EE54E544055
:1010ED00654A60161211A9FFE54B14FEF87401084C
:1010FD008002C333D8FC4F120D76E54BC3940750D5
:10110D003BE54DC394004034E54D9408502EE54623
:10111D00255104F54C121153F54E5407601EE54E42
:10112D005440654A60161211A9FFE54B04FEF87490
:0C113D0001088002C333D8FC4F120D766D
:011149002283
:060D88008B468A478948F2
:100D8E0074162F1211555440F5491211EEF54AEF13
:100D9E005407F54BE54960047F0180027F008F4CBC
:100DAE00E4FFEF9019D993254AFEEF9019E19325B0
:100DBE004B12122F404AEE648094885043C3ED6468
:100DCE00809480403BED648094885034EE3333330E
:100DDE0054F82D121153FC54076007EC544065492A
:100DEE00601EAB46EEF5823395E0F583E54825822D
:100DFE00F9E5471212378002C333D8FC4E120D7636
:100E0E000FEF6408709C7408254C12124BE06003BF
:100E1E00020ECFE54C25E0240AF582E43400F5837A
:100E2E00E0703C1211E6AD4B7C00ED2401FBEC337F
:100E3E00121160540770281211E6ED2402FDEC33F6
:100E4E0045F0FEED121164540770141211F52402D0
:100E5E00FEF87401088002C333D8FC4F120D76E5FC
:100E6E004C25E0240BF582E43400F583E070521239
:100E7E0011E6AD4B7C00ED24FFFBEC12115E540726
:100E8E00703F1211E6ED24FEFDEC34FF45F0FEED51
:100E9E001211645407702A1211E6E54B24FDFDEC85
:100EAE0034FF45F0FEED121164540770141211F563
:100EBE0024FEFEF87401088002C333D8FC4F120DD5
:010ECE0076AD
:010ECF002200
:061528008B468A4789484A
:10152E0074162F1211555440F5491211EEF54CEF69
:10153E005407F54DE4FF854C4BAE4DEF9019E993F2
:10154E00254BF54BEF9019ED932EFEC3E54B6480C2
:10155E0094804049E54B648094885041121230408B
:10156E003CEE648094885035E54B33333354F82E7B
:10157E00121153F54A5407700F1211708002C333C3
:10158E00D8FC4D120D7680B3E54A54406549600D86
:10159E001211708002C333D8FC4D120D760FEF641A
:0315AE0004709333
:0115B1002217
:06140C008B468A47894867
:1014120074162F1211555440F5491211EEF54CEF86
:101422005407F54DE4FF854C4BAE4DEF9019F19307
:10143200254BF54BEF9019F5932EFEC3E54B6480D7
:101442009480404FE54B648094885047121230409C
:1014520042EE64809488503BE54B33333354F82E8C
:10146200121153F54A5407701212120712117F809B
:1014720002C333D8FC4D120D7680B0E54A54406564
:1014820049601012120712117F8002C333D8FC4D3B
:09149200120D760FEF6404708D59
:01149B00222E
:06163A008B468A47894837
:1016400074162F1211555440F5491211EEF54AEF58
:101650005407F54BE4FFEF9019F993254AFEEF90FC
:101660001A0193254B12122F404AEE648094885041
:1016700043C3ED64809480403BED64809488503493
:10168000EE33333354F82D121153FC54076007EC3A
:1016900054406549601EAB46EEF5823395E0F58314
:1016A000E5482582F9E5471212378002C333D8FC9A
:0A16B0004E120D760FEF6408709CD7
:0116BA00220D
:100780001211EEF546EF5407F5473009047FFF805C
:10079000027F018F48EF3395E0FEE5462FFFE43EF0
:1007A000FEC3648094804060EF9408EE648094807F
:1007B0005056E5479400402412121724FFFBE41220
:1007C000115EFD5407FFBF0113ED30E6047F018089
:1007D000027F00A209E433B50702D322E547C394A0
:1007E0000750251212172401FBE433121160FD5447
:1007F00007FFBF0113ED30E6047F0180027F00A2F6
:1008000009E433B50702D322E4FFEF9019F993907E
:100810001A011211B74030E96480948850291212ED
:10082000444024EC64809488501D12114AFD540702
:10083000FEBE0213ED30E6047E0180027E00A209B6
:10084000E433B50602D3220FEF640870BDE4FFA9BC
:1008500046AC47EF9019E99329F9EF9019ED932CE5
:100860001211BE403CE96480948850351212444015
:1008700030EC64809488502912114AFD5407FE60C0
:10088000D2ED30E6047B0180027B00A209E433B59F
:10089000030F8E4AE54A64046005E54AB40502D3B5
:1008A000220FEF640470A8E4FFA946AC47EF90194B
:1008B000F19329F9EF9019F5932C1211BE403CE900
:1008C0006480948850351212444030EC64809488DF
:1008D000502912114AFD5407FE60D2ED30E6047B28
:1008E0000180027B00A209E433B5030F8E4AE54A7A
:1008F00064036005E54AB40502D3220FEF64047077
:10090000A8E4FFEF9019D9939019E11211B7403084
:10091000E96480948850291212444024EC64809445
:1009200088501D12114AFD5407FEBE0613ED30E635
:10093000047E0180027E00A209E433B50602D322C0
:070940000FEF640870BDC356
:01094700228D
:1015B2001211D2E6FF7B007A00792CD207120ADEE2
:1015C200E4FF742C2FF8E66002C3220FBF08F3E495
:1015D200F52B7416252B121155FE603930E6047E68
:1015E2000180027E00A20BE4336E70297416252B53
:1015F20012115554076406601C7B007A00792CD2C4
:1016020007AF2B120ADEE4FF742C2FF8E66002C348
:10161200220FBF08F3052BE52BC3944040B4E4F539
:1016220018A20B332474F8E6FFA20BB39209120737
:07163200805003751801D37D
:01163900228E
:1014A800020026E493A3F8E493A34003F68001F234
:1014B80008DFF48029E493A3F85407240CC8C33345
:1014C800C4540F4420C8834004F456800146F6DF14
:1014D800E4800B01020408102040809017F2E47E9B
:1014E800019360BCA3FF543F30E509541FFEE49309
:1014F800A360010ECF54C025E060A840B8E493A3D0
:10150800FAE493A3F8E493A3C8C582C8CAC583CAFA
:10151800F0A3C8C582C8CAC583CADFE9DEE780BEB2
:01183D0000AA
:100C3A00E709F608DFFA8046E709F208DFFA803E9C
:100C4A0088828C83E709F0A3DFFA8032E309F60889
:100C5A00DFFA8078E309F208DFFA807088828C83F1
:100C6A00E309F0A3DFFA806489828A83E0A3F608A5
:100C7A00DFFA805889828A83E0A3F208DFFA804C7F
:100C8A0080D280FA80C680D4806980F28033801056
:100C9A0080A680EA809A80A880DA80E280CA8033BF
:100CAA0089828A83ECFAE493A3C8C582C8CCC58337
:100CBA00CCF0A3C8C582C8CCC583CCDFE9DEE78007
:100CCA000D89828A83E493A3F608DFF9ECFAA9F086
:100CDA00EDFB2289828A83ECFAE0A3C8C582C8CCDC
:100CEA00C583CCF0A3C8C582C8CCC583CCDFEADEF5
:100CFA00E880DB89828A83E493A3F208DFF980CC57
:100D0A0088F0EF60010E4E60C388F0ED2402B4044F
:100D1A000050B9F582EB2402B4040050AF232345F6
:060D2A008223900C8A7385
:100D3000BB010689828A83E0225002E722BBFE02C1
:090D4000E32289828A83E49322F4
:100D4900BB010CE58229F582E5833AF583E022505F
:100D590006E92582F8E622BBFE06E92582F8E222A9
:0D0D6900E58229F582E5833AF583E49322C3
:100D7600BB010689828A83F0225002F722BBFE015C
:020D8600F32256
:00000001FF
