:030000000212E900
:0C12E900787FE4F6D8FD75817D0213309B
:0E15D800C18D01150001130001120001140065
:100DEE00E56D540F93FFE56C540F932FFFEC33FE1C
:100DFE00E56E540F932FFFEC3EFEE56F540F932FCD
:100E0E00FFEC22E554540F90183F93FFE553540F17
:100E1E00932FFFE433FEE555540F937C002FFFEC28
:100E2E003EFEE55622FBEF4B2416F582740035F09C
:100E3E00F58322F6B20BE4F513751502F576F57708
:100E4E00F578F579F57AF57BF57CF57D22745325E9
:100E5E0022AE23F8E6FFA8060822FF2416F58274B8
:100E6E00003EF583E022752E00752F0075305C7BF9
:100E7E00007A00796422AE26E6FFA80674010822E5
:100E8E00FDA20BE4332474F822E55B131313541FF5
:100E9E00223EFEEF64014E22E52233333354F845F1
:100EAE00232275F008A4FFAEF0EF2275F008A4FF20
:100EBE00EF2278647C00020AE1E6FFE52A5407FE81
:100ECE00F8740108222529F8E6FFAE2AA8060822A2
:100EDE00E52A131313541F2422F8227B017A00797A
:100EEE005A22753F0075400075415C22E52333336D
:100EFE003354F8452422E52933333354F8452A2256
:100026001217EF7590D81206EED20B75140A30032C
:1000360003120CA9300403121624300529C2AFC2DC
:1000460005D2AF900057E0240AFF900056E004FD69
:10005600900059E0240AFB900058E004F52E121790
:1000660029751504D20DE514D3940040021514E544
:1000760015B408004003020698900086F8282873F5
:1000860002009E0200C10201AA0202350201030219
:1000960005D8020634020686300D0F752E017B0246
:1000A6007D027F0112172912071B20010302069801
:1000B600D20D75140A751501020698300D24752E99
:1000C600027B037D037F0212172920020302069892
:1000D600C20DC2027D00120EE97E007F08120EC01C
:1000E6008020E514600302069812166C40028027F1
:1000F6001206D9200C02801FD20D020452300D0BBD
:10010600C20D120EE912072702022FE51460030240
:10011600069812166C400302022F120EF07B017A2B
:0B01260000790012178F920C300C764D
:10013100900056E0F522A3E0F523A3E0F524A3E027
:10014100F525E522120EB04523120E685407FDBDB8
:10015100060EE52433333354F84525120E8EA605D9
:1001610074162F120E6BFDE52475F008A4FFE5252A
:10017100120E33EDF0E522120EB94523120E36E4CC
:10018100F0FD7B017A007900FE7F08120EC0B20BF0
:100191001206EE1214FB50030205AB751502E4F5CD
:0601A10013D20D020698C6
:1001A70002022F300D12752E037B047D047F03128C
:1001B70017291206CD75140230020BC202120EE97E
:1001C700120727751402E514600302069812166CCD
:1001D700400302022F1206D9200C08D20D75150311
:1001E700020698120711E51314703D120E741206D9
:0C01F700A23E4F7033120DEE3E4F702CF4
:10020300120E97F522E55B5407F523745C120E5D1D
:100213008002C313D8FC30E00AE4F513F55B120740
:0C022300118009751506E4F513120E4A4F
:10022F00751402020698300D02C20D120E741217C9
:10023F005CE5131470030202D014700302045524FA
:10024F000260030205CC120E11120E0A120E9F70DD
:08025F006A120DEE3E4F7063C0
:10026700C206751301751502D20DF5223006030279
:100277000698E4F523120E5B8002C313D8FC30E026
:100287002D120EA6FF7B007A007976C2071208BDF1
:10029700785A7C007D017B007A0079767E007F08A2
:1002A700120AE1120EA6F55BD202D20680090523D7
:1002B700E523C3940840BE0522E522C3940840AC59
:0302C70002069894
:1002CA00751506020698120E11120E0A120E9F706A
:1002DA000A120DEE3E4F7003020452120E11120E54
:1002EA000A3EFEEF64024E706D120DEE3E4F7066CE
:1002FA00C206F522E4F523120E5B8002C313D8FC72
:10030A0030E022120E97FFE55B54074FFF120EA64C
:10031A006F60127476120E5D8002C313D8FC30E04F
:10032A0004D20680070523E523B408CB2006080576
:10033A0022E522640870BD2006030205CC780E7CF3
:10034A00007D017B007A00795C7E007F08120AE159
:06035A007513020205C448
:10036000120E11120E0A120E9F6003020452120D99
:09037000EE120E9F60030204521C
:10037900F522C206F52374762523F8E6FF746C2569
:1003890023F8E65F6025E4F524746C2523AE241276
:100399000E618002C313D8FC20E0070524E524B4CC
:1003A90008E7120EFAF522D20680070523E523B4E1
:1003B90008C42006030205CC120E97F525E55B5407
:1003C90007F526E522131313541FF527E5225407D1
:1003D900F528E525120EB04526120E685407FDBD15
:1003E900060EE52733333354F84528120E8EA60539
:1003F90074162F120E6BFDE52775F008A4FFE5288A
:10040900120E33EDF0E525120EB94526120E36E42B
:10041900F074642525F8C000120E848002C333D815
:10042900FCF45FD000F674642527F8C000AE2812EA
:100439000E868002C333D8FC4FD000120E4112063B
:09044900F840030206980205AB1D
:100452000205C4752E00752F0075305C7B017A0091
:10046200790E1206A23E4F60030205B3120DEE1280
:070472000E9F60030205B3B9
:10047900C206F52974762529F8E6FF746C2529F852
:10048900E65F6024E4F52A746C120ED38002C3136C
:10049900D8FC30E009120F04F522D2068007052A9C
:1004A900E52AB408E22006070529E529B408C5208C
:1004B90006030205CC120E97F523E55B5407F524D4
:1004C900E522131313541FF525E5225407F526E4F5
:1004D900F529E4F52A7453120ED38002C313D8FC0C
:1004E90030E012120EFAFF120F046F6008852927F7
:1004F900852A288007052AE52AB408D90529E52986
:10050900B408CFE523120EB04524120E685407FD36
:10051900BD060EE52533333354F84526120E8EA653
:100529000574162F120E6BFDE52575F008A4FFE57D
:1005390026120E33EDF0E523120EB94524120E36BC
:10054900E4F0E527120EB94528120E36E4F074647A
:100559002523F8C000E6FFAE24A80674010880022E
:10056900C333D8FCF45FD000F674642527F8C000C3
:10057900E6FFAE28A8067401088002C333D8FCF44C
:100589005FD000F674642525F8C000120E8480023D
:10059900C333D8FC4FD000120E411206F8400302B3
:0A05A9000698751505D20D0206989C
:1005B300120E11120E0A3E4F700D120DEE3E4F70C9
:1005C300067515020206988000751506E4F51312E8
:0B05D3000E4A020698200D0302069855
:1005DE00C20D120E8FE6F52AE518B4011AE4F522C3
:1005EE00F523F524F525120EDEC000120EC780028B
:1005FE00C333D8FC4F8020E518701F7522FF75237A
:10060E00FF7524FF7525FF120EDEC000120EC78087
:10061E0002C333D8FCF45FD000F67B007A00792257
:03062E0012072789
:10063100020698300D0512071B0512E5147058E5E6
:1006410012C39406403AE4F51212166C5024120EAD
:10065100F0120E7D12178F920C300C16751502E4F4
:10066100F5137BFF7A18794F120727D20D75140AFB
:100671008025120E7D120727751432E4F5128017BA
:10068100751507800D300D031206CDE51470087540
:10069100150675140AD20D7F0A7E00121805020094
:1006A1003412175CE554540F90183F93FFE55354EF
:1006B1000F932FFFE433FEE555540F937C002FFF7A
:1006C100EC3EFEE556540F932FFFEC22C20D7BFF4B
:1006D1007A18794F12072722753F0075400075413E
:1006E1005C7B007A00796412178F920C227BFF7A6F
:1006F10018794F12072722750EAA750B0375090287
:100701009000A3E55BF0A3E522F0D2041214FB22D2
:100711007BFF7A18794F12072722C20D7BFF7A18C7
:06072100795712072722A0
:0815E600011600011700C10EFF
:1017EF0053890F438920D28E758DFF75985043878B
:0617FF0080D2ACD2AF2243
:1016F300E516045407FE6517602BAD1674A82DF587
:1017030082E43400F583EFF08E16200E18D20EAF6C
:101713001774A82FF582E43400F583E0F599E517F3
:05172300045407F51756
:01172800229E
:10182D003F065B4F666D7D077F6F777C395E797103
:02183D003D76F6
:0B186B00D2B5D2B400C2B500C2B42256
:0C185F00C2B400C2B500D2B400D2B52261
:10000300E4FEC2B4EF1392B500D2B400EFC313FF02
:0E0013000EBE08EEC2B4D2B500D2B400C2B424
:0100210022BC
:0918760012186B12000302185F46
:10172900AC077F4012187612186B7FC0120003ECC9
:1017390090182D93FF120003ED93FF120003EB9312
:10174900FF120003E52E93FF12000312185F7F8F2B
:03175900021876FD
:10183F000001010201020203010202030203030479
:10181A00438901758CFC758A67C28DD28C308DFD27
:03182A00C28C224B
:10180500E4FDFCC3ED9FEC9E500A12181A0DBD00B5
:04181500010C80EF53
:0118190022AC
:10157800A294E433F541534101E5402404FFE433E8
:10158800FEAB3CE53E2FF9E53D3EFA120B07FF2284
:10159800AB2EAA2FA9308F82758300020B20A2944C
:1015A800E433F541534101AB3CE53E2540F9E435D0
:1015B8003DFA120B07FF227403C3952BF534FFF88D
:1015C80022053FE53FC39404227B007A00792B2251
:06175C008B2B8A2C892D65
:10176200E4FF121598F4FEAB2BAA2CA92D12159E9C
:101772005EFE74532FF8A60612159EF4FE121598FB
:0C1782005EFE746C2FF8A6060FBF08D6A0
:01178E002238
:10166C00753B03AF3B153BEF60391215D112102AB5
:10167C007F057E001218057B007A00793312102A40
:10168C00753F007540007541331215D112178F50FC
:10169C00D2785C7C007D001215D17E007F08120A86
:0416AC00E1D322C3A1
:0116B0002217
:06102A008B3C8A3D893E6B
:10103000A801AC02AD037BFF7A18794F7E007F08D0
:10104000120AE1D297C29600D296121885C297E48E
:10105000F53FE4F5401215A6E54170047E018002DB
:101060007E00AD3FA805EE088002C333D8FC121005
:10107000FA40E21215C940DAE4F53FE4F5401215F2
:10108000A6E53F2404FEE54170047D0180027D0059
:10109000A806ED088002C333D8FC1210FA40DF1214
:1010A00015C940D7E4F53FE4F540121578E53F2433
:1010B00004FEE54170047D0180027D00A806ED0874
:1010C0008002C333D8FC12110940DF1215C940D782
:1010D000E4F53FE4F540121578E54170047E0180A7
:1010E000027E00AD3FA805EE088002C333D8FC1293
:0910F000110940E21215C940DAB1
:1010F900224F120B4D1218850540E540C394042276
:0F1109004F120B4D1218850540E540C394042288
:10072700120B07F52C900001120B20F52D900002FB
:10073700120B20F52E900003120B20F52F900004CA
:10074700120B20F530900005120B20F531900006B2
:10075700120B20F532900007120B20F533C29312CB
:0E076700187FD2937F017E00121805E4F52B57
:100775001215BFE533088002C313D8FC12085FE5E4
:1007850032088002C313D8FC12085FE531088002E5
:10079500C313D8FC12086AE530088002C313D8FCDD
:0807A50012088B40CBE4F52B98
:1007AD0074071215C1E533088002C313D8FC120873
:1007BD006AE532088002C313D8FC120875E53108CA
:1007CD008002C313D8FC120875E530088002C313EC
:0207DD00D8FC46
:0807DF0012088B40C9E4F52B60
:1007E700C374071215C2E52F088002C313D8FC1281
:1007F7000880E52E088002C313D8FC120880E52D77
:10080700088002C313D8FC120899E52C088002C39C
:0308170013D8FCF7
:08081A001208A440C8E4F52B0C
:100822001215BFE52F088002C313D8FC120899E500
:100832002E088002C313D8FC1208B2E52D088002EC
:10084200C313D8FC1208B2E52C088002C313D8FCEB
:0C0852001208A440CBC292D29200C292C5
:10085E002213929012187FAF34A80722139290128F
:10086E00187FAF34A8072213929012187FAF34A8C6
:10087E00072213929012187FAF34A807221392907A
:10088E0012187F052BE52BC3940422139290121895
:10089E007FAF34A8072213929012187F052BE52BF9
:0F08AE00C394042213929012187FAF34A807222C
:06187F00D29100C291228B
:06188500D29500C295227D
:10184F000000000000000000FFFFFFFFFFFFFFFF91
:1015EE00C10CC18BC18A0274000044000A000000C5
:0915FE00004200080000015B003E
:06178F008B3C8A3D893EFF
:10179500E4FFAB3FAA40A9418F82758300120B205D
:1017A500FEAB3CAA3DA93E8F82758300120B206ECD
:0917B5006002C3220FBF08DAD361
:0117BE002208
:10160700C102C101C100C10544005600000000012C
:091617000F00011100C103C10420
:1016B100E490005AF0A3F0A3F0A3F0A3F0A3F0A3E9
:1016C100F0A3F0227462252BF582E43400F5832225
:1016D100E0900057FFE0FEF874010822E0245AF57B
:1016E10082E43400F58322E02400F582E43400F53D
:0216F100832252
:03002300021118AF
:10111800C0E0C083C082C0D075D000C00730986DD1
:10112800859952C298E51114601A14602314603628
:1011380014604E2404707BE55264AA7075F50C7532
:101148001101806E85520AE552620C7511028062A7
:10115800855208751000E552620CE508D3940040EA
:101168001B751103804CAF10051074622F1216C93D
:10117800E552F0620CE510C39508403675110480FD
:0D11880031E552B50C02D20375110080252F
:10119500309922C299E51765166018AF1774A82F04
:1011A500F582E43400F583E0F599E517045407F575
:1011B500178002C20ED007D0D0D082D083D0E032C3
:100CA900200303020DEDC203E50A24FE601014704F
:100CB90003020D4C24026003020DEDD20122E4F57A
:010CC9002BFF
:100CCA001216C5E0F52C7416252BF582E43400F5CE
:0A0CDA0083E52CF05407FFBF061459
:100CE400E52C30E603D38001C39207A207E4332442
:040CF40074F8A62BBF
:100CF800052BE52BB440CB1216C5E024FF920A124F
:100D080016B1F52BE4FDE52B75F008A4FFEDFBEF1C
:100D18004B2416F582740035F0F583E0540760160D
:100D2800745A252B1216E0E0FFA80574010880020A
:100D3800C333D8FC4FF00DBD08CC052BE52BB40808
:100D4800C3D202221216B1F52B1216C5E0FF745653
:100D5800252BF582E43400F583EFF0052BE52BB461
:100D680004E79000561216DDC083C0821216D180A7
:100D780002C333D8FC4FD082D083F09000581216AB
:100D8800DDC083C082E09000591216D58002C333BB
:100D9800D8FC4FD082D083F078007C007D017B00A6
:100DA8007A0079647E007F08120AE19000561216D4
:100DB800E8C083C0821216D18002C333D8FCF45F26
:100DC800D082D083F09000581216E8C083C082E029
:100DD800FF9000591216D68002C333D8FC4FD08238
:050DE800D083F0D205EC
:010DED0022E3
:10162400300444C204E4F50DAF0E1216F3AF0B12EE
:1016340016F3AF091216F3E50B620DE509620DE42A
:10164400F52BE52BC39509501974A3252BF582E4DA
:101654003400F583E0F52C620DAF2C1216F3052B44
:0716640080E0AF0D1216F348
:01166B00225C
:1017BF00FFFFFF0000010101FF0001FF01FF00011A
:1017CF00FF0100000000FF01FFFF0101FF01FF010A
:1017DF00FEFEFFFF01010202FF01FE02FE02FF01FA
:03162000011800AE
:1011C500ED33333354F84EF92416F582E43400F543
:1011D50083E022AB46AD4BED3395E0FCE5482DF9B8
:1011E500E5473CFA120B07FDA806740108227B00AF
:1011F5007A00793EAF34222546FDEF932547FEC39D
:10120500ED6480948022AB47E549254DF9E43548E6
:10121500FA020B07FDC3EE6480948022A20BE4332F
:101225002474F8227416253AF582E43400F58322F5
:10123500EF131313541F22AB46AD4BED3395E0FC72
:10124500E5482DF9E547223583FA120B07FEA80577
:0412550074010822F6
:0808BD008F348B358A36893730
:1008C500E4F53EF53FF540F541A801AC02AD037BEB
:1008D500FF7A18794FFE7F08120AE1741625341243
:1008E50011CFF53B121221E6F53DE53B5407FF70AC
:1008F50003020A10E53B30E603D38001C39208A248
:1009050008300B01B35003020A1020070BA2083070
:100915000A01B35003020A10EF24FE601814601D8B
:1009250014602214602114602C2405702E1211F31A
:10093500120F0E80261211F312147D801E1211F370
:10094500121259801680061211F31212591211F360
:1009550012137580061211F31213FFE4F538E4F54E
:1009650039743E2538F8E6FD7C007E007401A8390F
:10097500088005C333CE33CED8F9FFEE5CFEEF5DBC
:100985004E6070E53833333354F84539F53A121172
:10099500CDF53C121229E53BF07416253412122DC3
:1009A500E4F0E53B5407FFBF0605121221A63A12F3
:1009B5001221E6FFA20BB39209120B5F4020AB3563
:1009C500E5372538F9E43536FA120B07FFAE39A8B5
:1009D500067401088002C333D8FC4F120B4D741600
:1009E500253412122DE53BF0121229E53CF01212C6
:1009F50021A63D0539E539C394085003020966056A
:0B0A050038E538C39408500302096371
:010A100022C3
:080F0E008F468B478A48894990
:100F1600E546131313541FFFE5465407F54B7416A5
:100F260025461211CF5440F54A30E6087550017532
:100F36004F0180067550FF754F06E5503333335425
:100F4600F8F551E5502FF54DC39408506CE54DC3A7
:100F560094004065E5462551F54C1211CD540770B5
:100F66005812120BFEAD4BA8057401088002C3335C
:100F7600D8FC4E120B4DE551254CF54CEF654F70E4
:100F8600387416254C1211CF5407702DAF50EF331D
:100F960095E0FEE54D2FFFE43EFEAB47E5492FF910
:100FA600E5483EFA120B07FFAE4BA806740108800F
:100FB60002C333D8FC4F120B4DE54BD39400402EA1
:100FC600E546255114F54C1211CDF54E5407601E19
:100FD600E54E5440654A601612120BFFE54B14FEAF
:100FE600F87401088002C333D8FC4F120B4DE54B51
:100FF600C39407502EE546255104F54C1211CDF544
:101006004E5407601EE54E5440654A601612120B98
:10101600FFE54B04FEF87401088002C333D8FC4F89
:03102600120B4D5D
:0110290022A4
:0613FF008B468A47894875
:1014050074162F1211CF5440F549121235F54AEFD3
:101415005407F54BE4FFEF9017BF93254AFEEF9075
:1014250017C793254B1212194047EE6480948850D4
:1014350040121204403BED648094885034EE3333FF
:101445003354F82D1211CDFC54076007EC54406558
:1014550049601EAB46EEF5823395E0F583E54825F8
:1014650082F9E54712124C8002C333D8FC4E120BA9
:071475004D0FEF6408709FAA
:01147C00224D
:061375008B468A478948FF
:10137B0074162F1211CF5440F549121235F54CEF5C
:10138B005407F54DE4FF854C4BAE4DEF9017CF93C3
:10139B00254BF54BEF9017D3932EFEC3E54B648093
:1013AB0094804049E54B64809488504112121A4056
:1013BB003CEE648094885035E54B33333354F82E30
:1013CB001211CDF54A5407700F1211D88002C33396
:1013DB00D8FC4D120B4D80B3E54A54406549600D66
:1013EB001211D88002C333D8FC4D120B4D0FEF6492
:0313FB00047093E8
:0113FE0022CC
:061259008B468A4789481C
:10125F0074162F1211CF5440F549121235F54CEF79
:10126F005407F54DE4FF854C4BAE4DEF9017D793D8
:10127F00254BF54BEF9017DB932EFEC3E54B6480A8
:10128F009480404FE54B64809488504712121A4067
:10129F0042EE64809488503BE54B33333354F82E41
:1012AF001211CDF54A5407701212123C1211E78039
:1012BF0002C333D8FC4D120B4D80B0E54A54406544
:1012CF0049601012123C1211E78002C333D8FC4D53
:0912DF00120B4D0FEF6404708D39
:0112E80022E3
:06147D008B468A478948F6
:1014830074162F1211CF5440F549121235F54AEF55
:101493005407F54BE4FFEF9017DF93254AFEEF90D7
:1014A30017E793254B1212194047EE648094885036
:1014B30040121204403BED648094885034EE333381
:1014C3003354F82D1211CDFC54076007EC544065DA
:1014D30049601EAB46EEF5823395E0F583E548257A
:1014E30082F9E54712124C8002C333D8FC4E120B2B
:0714F3004D0FEF6408709F2C
:0114FA0022CF
:100B5F00121235F546EF5407F547E4FFEF9017DF14
:100B6F00939017E71211FC4030ED64809488502960
:100B7F0012121A4024EE64809488501D1211C5FC85
:100B8F005407FBBB0213EC30E6047B0180027B00B1
:100B9F00A209E433B50302D3220FEF640870BDE45A
:100BAF00FFAD46AE47EF9017CF932DFDEF9017D3C4
:100BBF00932E121203403CED64809488503512122C
:100BCF001A4030EE6480948850291211C5FC5407E6
:100BDF0060D3EC30E6047B0180027B00A209E43392
:100BEF00B50310EC5407F54864046005E548B405F7
:100BFF0002D3220FEF640470A8E4FFAD46AE47EFB7
:100C0F009017D7932DFDEF9017DB932E1212034001
:100C1F003CED64809488503512121A4030EE648097
:100C2F00948850291211C5FC540760D3EC30E604A8
:100C3F007B0180027B00A209E433B50310EC54075B
:100C4F00F54864036005E548B40502D3220FEF644D
:100C5F000470A8E4FFEF9017BF939017C71211FC11
:100C6F004030ED64809488502912121A4024EE64AB
:100C7F00809488501D1211C5FC5407FBBB0613EC62
:100C8F0030E6047B0180027B00A209E433B5030246
:090C9F00D3220FEF640870BDC3FD
:010CA8002229
:1014FB00121221E6FF7B007A00792CD20712156CB1
:10150B006002C322E4F52B7416252B1211CF602E2B
:10151B0030E6047F0180027F00A20BE4336F701E64
:10152B007416252B1211CF5407640660117B007AB9
:10153B0000792CD207AF2B12156C6002C322052B3E
:10154B00E52BC3944040C0E4F518A20B332474F888
:10155B00E6FFA20BB39209120B5F5003751801D370
:0D156B00221208BDE52C452D452E452F22EE
:1012F500020026E493A3F8E493A34003F68001F2E9
:1013050008DFF48029E493A3F85407240CC8C333F9
:10131500C4540F4420C8834004F456800146F6DFC8
:10132500E4800B01020408102040809015D8E47E6B
:10133500019360BCA3FF543F30E509541FFEE493BD
:10134500A360010ECF54C025E060A840B8E493A384
:10135500FAE493A3F8E493A3C8C582C8CAC583CAAF
:10136500F0A3C8C582C8CAC583CADFE9DEE780BE67
:0116230000C6
:100A1100E709F608DFFA8046E709F208DFFA803EC7
:100A210088828C83E709F0A3DFFA8032E309F608B4
:100A3100DFFA8078E309F208DFFA807088828C831C
:100A4100E309F0A3DFFA806489828A83E0A3F608D0
:100A5100DFFA805889828A83E0A3F208DFFA804CAA
:100A610080D280FA80C680D4806980F28033801081
:100A710080A680EA809A80A880DA80E280CA8033EA
:100A810089828A83ECFAE493A3C8C582C8CCC58362
:100A9100CCF0A3C8C582C8CCC583CCDFE9DEE78032
:100AA1000D89828A83E493A3F608DFF9ECFAA9F0B1
:100AB100EDFB2289828A83ECFAE0A3C8C582C8CC07
:100AC100C583CCF0A3C8C582C8CCC583CCDFEADE20
:100AD100E880DB89828A83E493A3F208DFF980CC82
:100AE10088F0EF60010E4E60C388F0ED2402B4047B
:100AF1000050B9F582EB2402B4040050AF23234522
:060B01008223900A6173DB
:100B0700BB010689828A83E0225002E722BBFE02EC
:090B1700E32289828A83E493221F
:100B2000BB010CE58229F582E5833AF583E022508A
:100B300006E92582F8E622BBFE06E92582F8E222D4
:0D0B4000E58229F582E5833AF583E49322EE
:100B4D00BB010689828A83F0225002F722BBFE0187
:020B5D00F32281
:00000001FF
